:020000040800F2
:10000000D8080020010100081B1A00081118000878
:10001000191A0008A50600082D2500080000000098
:10002000000000000000000000000000A720000801
:10003000A7060008000000008F1E0008A920000885
:100040001B0100081B0100081B0100081B01000820
:100050001B0100081B0100081B0100081B01000810
:100060001B0100081B0100081B0100081B01000800
:100070001B0100081B0100081B0100081B010008F0
:100080001B0100081B0100081B0100081B010008E0
:100090001B0100081B0100081B0100081B010008D0
:1000A0001B0100081B0100081B0100081B010008C0
:1000B000312100081B0100081B0100081B0100087A
:1000C0001B0100081B0100081B0100081B010008A0
:1000D0001B0100081B0100081B0100081B01000890
:1000E0001B0100081B0100081B010008DFF80CD0F1
:1000F00000F0C6FA00480047512E0008D80800203A
:100100000648804706480047FEE7FEE7FEE7FEE7B1
:10011000FEE7FEE7FEE7FEE7FEE7FEE72D2100082B
:10012000ED000008202A04DB203A21FA02F0002129
:10013000704721FA02F3D040C2F1200291400843F7
:1001400019467047D2B201E000F8012B491EFBD2DC
:1001500070470022F6E710B513460A4604461946D2
:10016000FFF7F0FF204610BD10B5002200E0521C42
:10017000835C8C5CA34201D1002BF8D1D8B2E1B2F0
:10018000401A10BD2DE9FE4F804681EA0300C00FE2
:100190000C46009021F0004123F00045B8EB02002E
:1001A000A94105D24046214690461C460B460246D0
:1001B00023F00040104347D0270DC7F30A00C3F3D4
:1001C0000A510290401A019040286BDAC3F31300E1
:1001D00040F4801B0098924620B10023D2EB030A22
:1001E00063EB0B0B01985946C0F14002504600F0FA
:1001F000B0F906460D4650465946019A00F0B8F946
:1002000010EB08006141002487EA115284EAE77389
:100210001A4340D0009A62B3019A012A4FEA07526A
:1002200015DC001B61EB02014FF0004202EA0752AD
:10023000CDE90042001C41F5801132462B4600F00A
:10024000B8F903B0BDE8F08F40462146F9E7001B3E
:1002500061EB0201001C41F5801300185B4120187E
:10026000A2F5001747EB030140EAD570B6196D41BE
:1002700011E06D084FEA360645EAC0754FEA0752AD
:10028000001B61EB0201001C41F5801149084FEA97
:1002900030000019514132462B4603B0BDE8F04F03
:1002A00000F078B90098012240000023D0EB020250
:1002B00063EBE073009821464FEAE074B8EB00006E
:1002C00061EB0401E9E783F000435BE781F0004163
:1002D00058E72DE9FE4F81EA030404F0004421F0C1
:1002E000004100944FF0000B23F0004350EA01045A
:1002F0005ED052EA03045BD0C3F30A54C1F30A553B
:100300002C44A4F2F3340194A0FB0254C1F3130172
:1003100041F48011C3F3130343F4801301FB02443F
:1003200000FB034E840A970A44EA815447EA835744
:10033000A4FB076802958D0A05FB07854FEA932CFD
:1003400004FB0C542705029D4FEA065847EA16376E
:10035000B5EB08056EEB070C870E920E47EA811786
:1003600042EA8312A7FB0201B6EB0B0164EB000427
:100370002B0D43EA0C335E1844EB1C50DA46514611
:10038000E7FB0201C5F313044FEA0B3343EA1453AE
:100390004FEA0432019C43EA0603A4F10C040294E0
:1003A000009CCDE900B400F004F903B0BDE8F08F83
:1003B00000200146F9E72DE9F04D81EA030404F03D
:1003C000004B21F0004514464FF0000A23F0004195
:1003D00050EA050220D054EA01021DD0C5F30A57A5
:1003E0000246C5F31303C1F31300C1F30A5640F4E8
:1003F000801543F48013A7EB0608101BD64608F2BD
:10040000FD3873EB050002D308F1010801E09218F2
:100410005B41B8F1000F03DA00200146BDE8F08D22
:1004200000204FF48011064684460EE0171B73EB44
:10043000050705D3121B63EB050306434CEA010CC9
:1004400049084FEA300092185B4150EA0107EDD1AC
:1004500052EA030012D082EA040083EA050108434D
:1004600005D0101BAB4106D20122002306E000227A
:100470004FF0004302E06FF0010253101AEB060048
:100480004CEB085110EB0A0041EB0B01BDE8F04DBD
:1004900000F080B830B5041E71F1000404DB4FF0A9
:1004A0000044404264EB0101141E73F1000405DBBB
:1004B0001C464FF00043524263EB0403994208BFCD
:1004C000904230BD30B50B46014600202022012469
:1004D00009E021FA02F59D4205D303FA02F5491B12
:1004E00004FA02F52844151EA2F10102F1DC30BD28
:1004F0002DE9F05F0546002092469B468846064659
:10050000814640241BE02846414647462246FFF7E5
:1005100009FE53465A46C01A914110D31146184657
:10052000224600F016F82D1A67EB01084F462246C6
:100530000120002100F00DF817EB00094E41201EAC
:10054000A4F10104DFDC484631462A464346BDE8B3
:10055000F09F202A04DB203A00FA02F100207047C5
:100560009140C2F1200320FA03F3194390407047F1
:10057000202A06DBCB17203A41FA02F043EAE07367
:1005800006E041FA02F3D040C2F120029140084354
:100590001946704710B5141E73F1000408DA401CA8
:1005A00041F1000192185B411A4301D120F0010092
:1005B00010BD2DE9F04D92469B4611B1B1FA81F282
:1005C00002E0B0FA80F220329046FFF7C2FF044604
:1005D0000F4640EA0A0041EA0B0153465A460843D7
:1005E00013D0114653EA010019D0C8F14002504619
:1005F000FFF798FD05460E46504659464246FFF71E
:10060000A8FF084305D0012004E020463946BDE894
:10061000F08D0020054346EAE0762C4337430A98E4
:100620006305E40AA0EB08000022FD0A44EA4754EF
:100630000A3002D500200146E9E701051019694199
:10064000DDE9084500196941BDE8F04DA2E7C1F3B5
:100650000A52C1F3130140F2FF3341F480119A4270
:1006600002DA00200146704740F233439A42A2F278
:10067000334202DC5242FFF755BDFFF76ABF00006C
:10068000064C074D06E0E06840F0010394E80700DF
:1006900098471034AC42F6D3FFF72CFD9C45000878
:1006A000BC450008FEE7704772B6FEE72DE9F84F3B
:1006B000DFF8B8910024A9F1040B23460F2709F1B4
:1006C000040AABF1040EC9E00125A5402A40AA4264
:1006D0007DD1674ED1F804C0ACEB0608B44532D0EA
:1006E00014DCBCF1030F3AD009DCBCF1000F2AD0B6
:1006F000BCF1010F1CD0BCF1020F31D11DE0BCF1E7
:10070000110F17D0BCF1120F2AD119E0B8F5881FCC
:1007100019D006DCB8F5803F15D0B8F5801F1FD181
:1007200011E0B8F5001F0ED0B8F5041F18D10AE08B
:10073000CB6815E0CB681B1D12E0CB6808330FE0D7
:10074000CB680C330CE08B682BB1012B4FF0080306
:1007500003D0456104E0042302E0056100E00023CA
:10076000FF2A01D8064601E000F104064FEA84059D
:1007700001D9A5F12005D6F8008007FA05FC28EA82
:100780000C0803FA05F548EA0508C6F800804D682C
:10079000ED0062D5374DAE6946F00106AE61AD6938
:1007A00024F0030605F001050095334D06EB050C1A
:1007B000DCF80850A607360F07FA06F825EA080500
:1007C000DFF8B880404503D14FF0000817E044E05F
:1007D000DFF8AC80404502D14FF001080FE0DFF8B0
:1007E000A480404502D14FF0020808E0DFF898806D
:1007F000404502D14FF0030801E04FF0040808FA29
:1008000006F848EA0508CCF808804D68D9F8006079
:10081000ED024D4601D5164300E096432E604D682B
:10082000DAF80060AD02554601D5164300E0964364
:100830002E604D68DBF80060AD035D4601D51643C0
:1008400000E096432E604D68DEF80060ED037546CB
:1008500001D5164300E096432E60641C0D682A46BD
:10086000E5407FF431AFBDE8F88F00000804014097
:10087000000011100010024000000140000801407B
:10088000000C014000100140001401408068084045
:1008900000D0012070470AB1016170470904FBE7ED
:1008A000014880687047000000000020024881680D
:1008B000027811448160704700000020074810B59D
:1008C000016841F010010160032000F075F80F206D
:1008D00000F006F800F024F8002010BD00200240CF
:1008E00070B50D4D04464FF47A712878B1FBF0F0E5
:1008F0000A490968B1FBF0F000F077FD48B9102C07
:1009000007D200222146501E00F036F800206C600D
:1009100070BD012070BD0000000000200C00002010
:100920000C4808B5816941F001018161816901F0DC
:1009300001010091C16941F08051C161C06900F0BD
:10094000805000900448416821F0E06141F000715E
:10095000416008BD0010024000000140002809DB92
:1009600000F01F02012191404009800000F1E020C9
:10097000C0F8001170470000F0B40E4B1B680C4625
:10098000C3F30223C3F10705042D00D90425191D63
:10099000072901D2002300E0DB1E012606FA05F13B
:1009A000491E214099409E40761E16403143F0BCBE
:1009B00001F0D0BD0CED00E0064900F00702086828
:1009C0004FF6FF03184040EA0220034A1043086034
:1009D000704700000CED00E00000FA05014901201D
:1009E0000862704700000E4210B501460020234CFB
:1009F000012922D0022939D010291DD1616822682D
:100A0000D20119D51E48C1F38342C903805C0AD5BF
:100A100061681B4AC1F34041921E515C194AB2FB06
:100A2000F1F1484301E0184948436168490203D4A1
:100A300040000321B0FBF1F010BD226AC2F3012196
:100A4000012903D1920701D5C80310BD022905D1A0
:100A5000626A920702D549F6404010BD0329FCD1D5
:100A600021688903F9D54FF2244010BD00F02AF91E
:100A70006168C1F38131491C4900DBE70010024085
:100A8000862E000800127A0000093D002DE9F84387
:100A900005460078354CC00754D0E0690026C000F8
:100AA00008D4E06940F08050E061E069012600F080
:100AB000805000902E480168C90512D40168804614
:100AC00041F480710160FFF7EBFE074605E000BFCF
:100AD000FFF7E6FEC01B642823D8D8F80000C00545
:100AE000F6D5206A10F4407021D0A98801F4407135
:100AF00081421CD0206A1F49012220F440700A6004
:100B000000220A602062C00711D0FFF7C9FE074625
:100B100041F2883808E000BFFFF7C2FEC11B414523
:100B200002D90320BDE8F883206A8007F4D5206A43
:100B3000696820F44070084320621EB1E06920F02B
:100B40008050E0612878800705D56068A96820F4A6
:100B50004040084360602878C00605D56068E968B1
:100B600020F48000084360600020DBE700100240B2
:100B700000700040400442422DE9F0470F46050056
:100B800061D0434E306800F00700B84209D23068A7
:100B900020F0070038433060306800F00700B842AA
:100BA00051D128683B4C810712D5400703D56068B6
:100BB00040F4E06060602878000703D5606840F486
:100BC000605060606068A96820F0F00008436060D1
:100BD0002878C00728D06868012810D0216802282A
:100BE00010D0890700292EDA616821F00301014342
:100BF0006160FFF755FE804641F288390DE02168BB
:100C00008903EFE78901EDE7FFF74AFEA0EB080152
:100C1000494502D90320BDE8F0876068696800F0A3
:100C20000C00B0EB810FEFD1306800F00700B84244
:100C30000BD9306820F0070038433060306800F08E
:100C40000700B84201D00120E5E72878400705D524
:100C50006068E96820F4E060084360602878000775
:100C600006D56068296920F4605040EAC1006060E0
:100C700000F038F86168084AC1F30311515CC840BC
:100C80000649086006480068FFF72AFE0020C2E710
:100C90000020024000100240962E00080C000020A8
:100CA000040000200448054900684968044AC1F36B
:100CB0000221515CC84070470C0000200010024027
:100CC000A62E00080448054900684968044AC1F393
:100CD000C221515CC84070470C0000200010024047
:100CE000A62E00080E4A51680E4801F00C03042B92
:100CF00011D0082B0FD10C48C1F38343C903C05C4A
:100D00000AD55168084AC1F34041921E515C054A18
:100D10005043B0FBF1F0704704494843704700006E
:100D20000010024000127A00742E000800093D00F5
:100D30002DE9F84F040070D02078C04DC00749D08D
:100D40006868C0F38100012807D06868C0F381009B
:100D5000022809D16868C00306D52868800339D500
:100D600060680028E7D035E06068B0F5803F0BD0C0
:100D700010B1B0F5A02F11D0286820F48030286081
:100D8000286820F4802002E0286840F48030286041
:100D9000606890B1FFF784FD06460AE0286840F4D9
:100DA00080202860F0E700BFFFF77AFD801B6428F1
:100DB00073D828688003F7D50CE0FFF771FD06466D
:100DC00005E000BFFFF76CFD801B6428F0D82868A1
:100DD0008003F7D420789A4E80074FF001094FF036
:100DE000000839D5686810F00C0F07D06868C0F3A8
:100DF0008100022809D16868C00306D428688007EA
:100E000014D52069012808D110E02069B0B1C6F8D6
:100E10000090FFF745FD074605E00AE1FFF740FDBA
:100E2000C01B0228C4D828688007F7D528686169E4
:100E300020F0F80040EAC10028600DE0C6F800800C
:100E4000FFF72EFD074604E0FFF72AFDC01B02282E
:100E500023D828688007F7D4207800072CD5794854
:100E6000A169D9B1C0F80090FFF71AFD074604E068
:100E7000FFF716FDC01B02280FD8686A8007F7D558
:100E800071484FF4FA510068B0FBF1F0009000BFD8
:100E90000098411E0091FAD20EE080E0C0F8008078
:100EA000FFF7FEFC074604E0FFF7FAFCC01B022830
:100EB00075D8686A8007F7D42078400760D5E8695C
:100EC0000027C00008D4E86940F08050E861E86974
:100ED000012700F0805000905C480168C90513D4D8
:100EE0000168834641F480710160FFF7D9FC8246B6
:100EF00006E000BFFFF7D4FCA0EB0A0064284ED840
:100F0000DBF80000C005F5D5E06801280AD008B17B
:100F1000052813D0286A20F001002862286A20F0F2
:100F2000040002E0286A40F001002862E06841F213
:100F3000883B98B1FFF7B4FC82460BE0286A40F08A
:100F400004002862EEE700BFFFF7AAFCA0EB0A014D
:100F500059455AD8286A8007F6D50CE0FFF7A0FC5F
:100F6000824605E0FFF79CFCA0EB0A0159454CD8EE
:100F7000286A8007F6D41FB1E86920F08050E86144
:100F8000E06988B36968C1F38101022944D002286D
:100F9000C6F8608004D0FFF783FC044638E034E0F4
:100FA000FFF77EFC074604E0FFF77AFCC01B02282F
:100FB0002BD828688001F7D4206AB0F5803F05D18E
:100FC0006868A16820F4003008436860D4E908012B
:100FD0000843696821F4741108436860C6F860909A
:100FE000FFF75EFC044606E025E000BFFFF758FC73
:100FF000001B022809D828688001F7D51BE000BF34
:10100000FFF74EFC001B022802D90320BDE8F88F31
:1010100028688001F4D40EE00128F7D06868226ABD
:1010200000F48031914204D1616A00F4701088426A
:1010300001D00120EAE70020E8E7000000100240AC
:1010400000004242800442420C0000200070004038
:10105000F8B505004FF0000016460C46009006D08B
:101060002CB100226946284600F019F808B1012089
:10107000F8BD287B2070E87BE070697B6170A97BFC
:10108000A17056B100F00DFFE070607800F009FF2C
:101090006070A07800F005FFA0700020F8BD2DE979
:1010A000F04791460C465FEA00084AD084B3D8F86E
:1010B00000004068400744D4404600F091FF4FF4E0
:1010C00061620546B0FBF2F1B0FBF2F302FB135094
:1010D0003C23B0FBF3F0B5FBF2F6607002FB165058
:1010E000B0FBF3F203FB1200A070182931D31820D3
:1010F000B1FBF0F7B1FBF0F200FB1210207040469C
:1011000000F067FF411C04D0A84202D9461B02E050
:1011100017E04FF0FF36A7EB071000EB4000C0EBE5
:10112000001005EBC0152946404600F0A8FF40B965
:10113000701C01D0711900E03146404600F08BFF71
:1011400010B10120BDE8F0873946404600F0B4FEFA
:1011500000E02170B9F1000F0BD0207800F0A1FE63
:101160002070607800F09DFE6070A07800F099FE1D
:10117000A0700020E6E7000070B5040003D0607C9A
:10118000002610B105E0012070BD2674204600F055
:101190003DF802206074204600F00AF9042550BB97
:1011A000204600F0E0FE30BB2068416821F00701D6
:1011B0004160A06820B11448016821F0010101607C
:1011C0001148001F0168A26821F460711143016099
:1011D0006068411C04D10120FFF706FC58B1401E95
:1011E0002268C0F303419160216880B2C860204644
:1011F00000F0D4FE08B16574C5E7E67301206073A2
:10120000A0736074002070BD306C004008B50068A9
:10121000084988420DD1FFF7E1FB0748C16941F059
:101220000061C161C069054900F0006000900120C3
:10123000086008BD00280040001002403C04424203
:101240002DE9F0410D4604003BD0C5B3207C0128B8
:101250003AD04FF0010884F8108002206074E878DA
:1012600072B300F015FEE073687800F011FE607351
:10127000A87800F00DFEA073C2B2617BE07B00F0A5
:10128000BFFE20732870204600F0AAFE4FF4616173
:10129000B0FBF1F1002518292DD91822B1FBF2F18C
:1012A000A1EB011101EB4101C1EB011100EBC116F2
:1012B0003146204600F0E3FE0427C8B90BE000E009
:1012C00004E00120BDE8F0810220FBE7E0736878CC
:1012D0006073A878CFE7204600F07BFE411C0AD05F
:1012E000B04208D206490144204600F0B4FE10B1D5
:1012F00067742574E5E784F8118025740020E1E720
:10130000805101002DE9F0410D46040024D01DB3A9
:10131000207C012823D04FF0010884F8108002209F
:1013200060742878EAB100F0B3FD4FF4616100FB0E
:1013300001F6687800F0ACFDC0EB001006EB80060B
:10134000A87800F0A5FD35182946204600F097FE44
:101350000026042710BB0FE00120BDE8F081022029
:10136000FBE74FF4616148436978C1EB011100EB81
:101370008100A9784518E7E72068416821F0050158
:101380004160204600F025FE411C0AD0A84208D248
:1013900006490144204600F05EFE10B167742674D1
:1013A000DAE784F8118026740020D6E78051010026
:1013B00070B504000AD02068416821F0080141603E
:1013C000FFF76EFA05464FF47A7608E0012070BD0B
:1013D000FFF766FA401BB04201D9032070BD2068B8
:1013E00040680007F4D5002070BD10B5401EB0F174
:1013F000807F01D3012010BD4FF0E02460610F21F8
:10140000601701F0A7F80020A061072020610020EC
:1014100010BD70477047000070B590F83C20012A5D
:1014200026D0012480F83C40022280F83D20036849
:101430005A689D6822F070060A6832435A600D4B64
:1014400002689A4208D0B2F1804F05D00A4B9A4206
:1014500002D00A4B9A4204D1496825F0800319430F
:10146000916080F83D40002180F83C10084670BD36
:10147000022070BD002C0140000400400008004024
:1014800010B5040003D094F83D0010B107E001202E
:1014900010BD002084F83C00204600F01FF8022018
:1014A00084F83D00211D206800F048FE012084F8EA
:1014B000460084F83E0084F83F0084F8400084F839
:1014C000410084F8420084F8430084F8440084F822
:1014D000450084F83D00002010BD000008B50068FC
:1014E000B0F1804F12D10A48C16941F00101C161D8
:1014F000C069002200F00100009011461C20FFF797
:101500003BFABDE808401C20FFF728BA08BD0000E0
:101510000010024070B5044690F83C0000250128F8
:1015200017D0012684F83C60022084F83D00206832
:10153000826822F0770222F47F4282600868502895
:1015400038D00DDC20284FD005DC90B3102811D105
:101550004AE0022070BD302846D040280AD13BE046
:1015600060282FD070280DD0B0F5805F03D0B0F583
:10157000005F12D0012584F83D60002084F83C0013
:10158000284670BDCB68D1E90121206800F012FE29
:101590002068816841F0770109E0CB68D1E9012139
:1015A000206800F007FE2068816841F48041816076
:1015B000E1E719E0CA684968206800F00DFE502193
:1015C000206806E0CA684968206800F016FE6021BD
:1015D000206800F0F9FDCEE7CA684968206800F08D
:1015E000FBFD40212068F4E7226801461046F0E741
:1015F00070472DE9F04104460068C66805694FF060
:101600000007A90713D5B10711D5F91E0161012003
:101610002077206880698007204602D0FFF7E8FF26
:1016200004E000F07EF8204600F07CF82777680799
:1016300016D5700714D521686FF0040008610220E8
:1016400020772068806910F4407F204602D0FFF7A1
:10165000CFFF04E000F065F8204600F063F827773C
:10166000280715D5300713D521686FF008000861E9
:10167000042020772068C0698007204602D0FFF749
:10168000B7FF04E000F04DF8204600F04BF8277754
:10169000E80616D5F00614D521686FF01000086131
:1016A000082020772068C06910F4407F204602D0CF
:1016B000FFF79EFF04E000F034F8204600F032F817
:1016C0002777E80708D0F00706D021686FF00100FF
:1016D0000861204600F028F8280608D5300606D50F
:1016E00021686FF0800008612046FFF792FE6806CF
:1016F00008D5700606D521686FF0400008612046C5
:1017000000F01AF8A8060AD5B00608D521686FF0CF
:10171000200008612046BDE8F041FFF77BBEBDE830
:10172000F0817047704700000249884201D100F003
:1017300077BD704744000020704770B5040004D0A6
:1017400094F84100002510B106E0012070BD84F836
:101750004050204600F024F8242084F841002068FE
:10176000C16821F40051C160204600F083FE20686A
:10177000016921F4904101612068416921F02A0149
:1017800041612068C16841F40051C1606564202056
:1017900084F8410084F842006563002070BD0000B9
:1017A00030B585B00024009401940294039400683D
:1017B0001449884224D11448816941F480418161EF
:1017C000816901F480410491816941F004018161E2
:1017D00080690E4D00F0040004904FF400700090FA
:1017E000022001900320039069462846FEF75EFF21
:1017F0002815CDE90004694628460294FEF756FFF5
:1018000005B030BD00380140001002400008014022
:10181000FEE70000064B10B51A5C0A4205D001290C
:1018200001D08A431A54012010BD002010BD0000D1
:101830002500002010B50A4A20B1012804D0022852
:1018400004D00AE0082103E0202101E04FF4807178
:101850001046FFF71BF8002800D0012010BD000043
:10186000000C014070B586B0002425480094019416
:1018700002940394816941F010018161816901F052
:1018800010010491816941F020018161816901F0B9
:1018900020010491816941F008018161816901F0B1
:1018A00008010491816941F0040181618069154E4C
:1018B00000F004004FF440550490012229463046C0
:1018C000FEF7E9FF1120CDE9005001250220CDE906
:1018D000025069463046FEF7E9FE08208DE83100E7
:1018E00069463046FEF7E2FE4FF49070CDE9000401
:1018F000694630460294FEF7D9FE06B070BD00007E
:1019000000100240000C01407CB5002419480194ED
:10191000174900940160611EC0E90114FFF72CFC17
:1019200008B1FEF7C1FE20258DF8045015208DF872
:1019300005008DF80640012201A90E48FFF7E2FCE0
:1019400008B1FEF7B1FE05208DF8000003208DF8E8
:1019500001008DF8025026208DF80300012269460F
:101960000448FFF76DFC002801D0FEF79DFE7CBD0A
:10197000002800403000002010B586B00024174831
:10198000009401940294039404944FF080410594D0
:1019900001604721C0E901144FF47A71C0E90314D2
:1019A00080218161FFF76CFD08B1FEF77DFE4FF4E9
:1019B0008050009069460948FFF7ACFD08B1FEF77A
:1019C00073FE049404A905480594FFF725FD00283B
:1019D00001D0FEF769FE06B010BD000044000020F3
:1019E0000C4810B50A4901604FF4E1314160002113
:1019F00081600C22C160C0E904128161C161FFF7FE
:101A00009CFE002803D0BDE81040FEF74DBE10BD7F
:101A1000003801408C000020FEE7FEE7F0B57F288B
:101A20002AD83F2928D88418802C02D9C0F18002F6
:101A3000D2B2CC18402C02D9C1F14003DBB201264E
:101A4000DFF838E087180B4414E001F0070206FACB
:101A500002F5CA0804460EEBC21207E012F804C0F1
:101A60002CEA050C02F804C0641CE4B2A742F5D8C5
:101A7000491CC9B28B42E8D8F0BD0000D400002058
:101A800070B500240646802525FA04F0304000D0C9
:101A9000012000F0CBF9012000F0C0F9002000F097
:101AA000BDF9641CE4B2082CEED3012000F0B6F9B5
:101AB000BDE87040002000F0B1B910B5012000F081
:101AC000B5F9012000F0AAF9002000F0AFF9BDE857
:101AD0001040002000F0A2B910B5002000F0A6F9D7
:101AE000012000F09BF9BDE81040012000F09EB9F4
:101AF00010B5AE2000F0A2F9D52000F09FF98020AB
:101B000000F09CF9A82000F099F93F2000F096F928
:101B1000D32000F093F9002000F090F9402000F06D
:101B20008DF9A12000F08AF9C82000F087F9DA20A9
:101B300000F084F9122000F081F9812000F07EF994
:101B4000CF2000F07BF9D92000F078F9F12000F0E7
:101B500075F9DB2000F072F9302000F06FF9A42055
:101B600000F06CF9A62000F069F98D2000F066F90C
:101B7000142000F063F9BDE81040AF2000F05EB91A
:101B80000FB470B588B014460D46064610AA6846D4
:101B90000F9900F0CDFC23466A462946304600F0F6
:101BA00013F908B070BC5DF814FB0000F0B57F2895
:101BB0002AD83F2928D88418802C02D9C0F1800265
:101BC000D2B2CC18402C02D9C1F14003DBB20126BD
:101BD000DFF838E087180B4414E001F0070206FA3A
:101BE00002F5CA0804460EEBC21207E012F804C060
:101BF0008CEA050C02F804C0641CE4B2A742F5D8D4
:101C0000491CC9B28B42E8D8F0BD0000D4000020C6
:101C100010B50C4640F0B00000F010F9102040EA7A
:101C2000141000F00BF904F00F00BDE8104000F0B4
:101C300005B9000008B5082B0ED0062B15D00C2BCB
:101C40001ED1104B02EBC20203EB8202A2F590629E
:101C5000182300920C2211E00B4B03EB0212A2F5A9
:101C6000007210230092082208E0084B02EB4202A7
:101C700003EB4202C03A00920823062200F04CF81F
:101C800008BD0000D8360008AE2E00089E340008BB
:101C90002DE9FC5F002490468B4682462546DFF8FE
:101CA000709001942EE001A90855641CE4B2032C45
:101CB00026D30024264606E0384601A9FEF754FA4A
:101CC00058B1761CF6B206EBC60109EB8100074657
:101CD00010A1FEF749FA0028EED1681C0321B0FBE1
:101CE000F1F10AEB011006EBC60209EB8201091DB6
:101CF000103810230091C0B21A46594600F00CF873
:101D00006D1CEDB218F805000028CCD1BDE8FC9F91
:101D100034440008000000002DE9FC4F1F46154622
:101D20000C4606467F284AD83F2C48D8FFF776FE57
:101D3000781EC117002300EB51700121DFF884B039
:101D400004F0070901EBE00737E0002031E031182B
:101D50007F2930D803EBD40ABAF1070F2FD80BEB49
:101D6000CA1E03FB05F21EF801C00192DDF82C80AB
:101D70008044CDF8008012F8082002FA09F24CEAFB
:101D8000020C0AF101020EF801C0072A0FD80EEB6F
:101D90000108DDE900C198F8802011F80CC0C9F1F4
:101DA00008012CFA01FC42EA0C0288F88020401C51
:101DB000C0B2A842CBD35B1CDBB29F42C5DCBDE8FE
:101DC000FC8F0000D40000202DE9F0411E4615468E
:101DD00088460746002408E004FB0670C0B233467C
:101DE0004146FFF727FF641CE4B22A5D002AF3D1C5
:101DF000BDE8F08170B5084D002400212046FFF7B2
:101E000007FF05EBC410802100F029F8641CE4B240
:101E1000082CF2D370BD0000D400002002464FF41D
:101E200080510148FEF737BD000C014002464FF4D7
:101E300000510148FEF72FBD000C014010B50446CB
:101E4000FFF73BFE7820FFF71BFE0020FFF718FE90
:101E50002046FFF715FEBDE81040FFF73DBE70B508
:101E60000D460646FFF729FE7820FFF709FE4020C1
:101E7000FFF706FE002404E0305DFFF701FE641C5E
:101E8000E4B2AC42F8D3BDE87040FFF725BE70471E
:101E9000010901EB810100F00F0000EB4100C0B22D
:101EA0007047002102E00A38C0B2491C0A28FAD261
:101EB000090740EA116070472DE9F041044600250A
:101EC000C07B627BA37B42E0012A16D0032A14D098
:101ED000052A12D0072A10D0082A0ED00A2A0CD0C0
:101EE0000C2A0AD0042A10D0062A0ED0092A0CD0B7
:101EF0000B2A0AD0022A0DD028E01F2B0CD30C2A63
:101F000005D101221346401C20E01E2B04D30123DF
:101F1000521C1BE01C2B02D203F1010316E011D16D
:101F200083B29E0710D16426B3FBF6F706FB173683
:101F300036B94FF4C876B3FBF6F706FB17331BB977
:101F40001D2303E01D2B01D1032201236D1C8D42B3
:101F5000BAD3D1B2E0736173DAB2A27300F050F871
:101F60002073BDE8F08170B50446FEF799FC054684
:101F70004FF47A7606E0FEF793FC401BB04201D99D
:101F8000032070BD206840688006F4D52068416851
:101F900041F010014160002070BD000070B50446A2
:101FA0000068416821F010014160FEF779FC0546A8
:101FB0004FF47A7607E000BFFEF772FC401BB04298
:101FC00001D9032070BD206840688006F4D5002048
:101FD00070BD0168086A496A89B241EA00407047E9
:101FE000006881698AB2C1698BB2816989B28A420B
:101FF00003D0C06961F31F40704743EA0240704755
:10200000F0B56424C1EBC1030927A500072603EB43
:1020100001130329B3FBF7F100F5FA601144014401
:102020000AD2401EB0FBF4F201EB9001B0FBF5F0D8
:10203000891A0844001D08E0B0FBF4F201EB90019E
:10204000B0FBF5F0891A0844801CB0FBF6F106FBE2
:102050001100C0B2F0BD70B50D4606460024FFF772
:1020600082FF48B93168280C08623168A8B248621A
:102070003046FFF793FF00B10124204670BD70B5D4
:102080000D4606460024FFF76EFF48B93168280C5C
:1020900088613168A8B2C8613046FFF77FFF00B1A0
:1020A0000124204670BD7047FEF700BC70B594B0A7
:1020B00028216846FEF74DF814210AA8FEF749F8D2
:1020C000002501240F951195052012950090CDE96A
:1020D000025410954FF48030019002260494CDE90B
:1020E00007604FF4E01009906846FEF721FE08B142
:1020F00072B6FEE70F20CDE90A064FF48060CDE905
:102100000C5002210AA80E95FEF736FD08B172B6F2
:10211000FEE74FF48070CDE90F400FA8FEF7B6FC44
:10212000002801D072B6FEE714B070BD7047000001
:102130000148FFF75EBA000044000020F0B50268D5
:10214000194B1A4C1A4D4FF08047984205D0B842AF
:1021500003D0A04201D0A84203D122F070064A6801
:102160003243984205D0B84203D0A04201D0A842E1
:1021700003D122F44074CA6822434C6922F08002E1
:10218000224302608A68C2620A688262984201D170
:1021900009690163012141610169C90703D001692E
:1021A00021F001010161F0BD002C0140000400405C
:1021B0000008004010B5846842EA032224F47F44FA
:1021C0000A432243826010BD826822F070020A43F3
:1021D00042F007018160704710B5036A046A24F079
:1021E00001040462846924F0F00444EA021423F038
:1021F0000A020A438461026210BD10B5036A046AD0
:1022000024F010040462846923F0A00324F47044D1
:1022100044EA023243EA01118261016210BD00000A
:102220002DE9F0474E4C002204F10E0562706078F3
:1022300035F8101011B1491E25F81010401CC0B21D
:1022400060700328F3D32078401CC0B2207014289B
:1022500071D3434F22707F1DFE1E9246104662705E
:1022600006F1060906F10908C0B2315C3954FFF7DE
:10227000E1FA61784246705418F8013028B123F031
:102280000103535401280BD013E043F001035354CE
:1022900017F801C0BCF1010F0BD143F0020306E0B7
:1022A00017F801C0BCF1000F03D143F0040308F894
:1022B000013019F80130052B4BD2DFE803F0030A97
:1022C0001C30360028BB012009F801004FF47A7059
:1022D0000EE0012803D035F8110028B139E00220C2
:1022E00009F80100C82003E0042009F80100642077
:1022F00025F811002DE018B135F8110050B128E093
:1023000018F80130032043F0100308F8013009F8F1
:1023100001001EE018F8013043F0080310E0012826
:1023200017D100BF09F801A013E0012804D035F847
:10233000110040B10DE011E018F8013043F0200326
:1023400008F80130EEE718F8012042F0400208F8E2
:102350000120491CC8B26070032885D3BDE8F0870E
:102360001A0000203EB5002235493648FEF797FE98
:1023700033490022C91C3348FEF76AFE304DEC1E7B
:10238000A8786178884223D06070A01D2EA382783F
:102390004178C0788DE80700082200211320FFF75C
:1023A000EFFB2878AA7869788DE8070010212AA326
:1023B0000C220846FFF7E4FB2AA230215F20FFF73A
:1023C00067FC2AA230210020FFF762FC0020A070E9
:1023D00008210020FFF71EFA38B12078401E10F0C7
:1023E000FF00207013D102200BE008210120FFF72D
:1023F00011FA40B12078401CC0B22070032806D3E7
:102400000120207003E008210220FFF703FA207862
:10241000A178884213D0A07001280BD002280ED1D9
:102420003F237F2230215F20FFF7C0FBBDE83E4005
:10243000FFF7E0BC3F23202230210020F4E73EBD1F
:102440001300002030000020323025642D2530326A
:10245000642D25303264000025643A25643A2564F1
:1024600000000000E8AEBEE7BDAE0000E88F9CE5CE
:102470008D95000070B5044600680169E26821F49A
:102480004051114301612169A06808436169084313
:102490002168CA6841F20C639A430243CA6020680B
:1024A0004169A26921F44071114341611E492068CC
:1024B000884202D1FEF706FC01E0FEF7F3FB00EBD9
:1024C000C00101EB0012606864218000B2FBF0F3F0
:1024D000B3FBF1F36FF018067343B2FBF0F5B2FBF8
:1024E000F0F605EB8305322303EB0515B5FBF1F59B
:1024F000B6FBF1F605F0F00505EB0615B2FBF0F6BC
:10250000B2FBF0F0B0FBF1F06FF01802504306EBB5
:10251000800003EB0010B0FBF1F0216800F00F0029
:102520002844886070BD000000380140FEE70000CC
:1025300037B514460846064B6A46214600F0ECF8CB
:1025400004466946002000F07EFC20463EBD0000A7
:10255000472E00080907090E002804DB00F1E020DF
:1025600080F80014704700F00F0000F1E02080F8C0
:10257000141D704702E008C8121F08C1002AFAD1D2
:1025800070477047002001E001C1121F002AFBD1F3
:10259000704700002DE9FF5F82B00021DDE90430C3
:1025A000020DDDF840B0034318D044F61050A2F2FB
:1025B000FF3242431514119801281FD0A5EB0B00E0
:1025C000401C5FEA000A4FF000064E4FDFF83891DA
:1025D000B046504615D5CAF1000413E01198012405
:1025E0004AA3012801D16FEA0B010298119AC0E9B0
:1025F0000031C0E9024206B0BDE8F09FCBF1000017
:10260000DFE704460021404A491842EB0450CDE977
:10261000001012E0E00707D032463B4640464946EC
:10262000FDF757FE8046894632463B46104619461E
:10263000FDF74FFE06460F466410002CEAD1DDE997
:102640000401DDE90023BAF1000F06DAFDF741FECF
:1026500042464B46FDF73DFE05E0FDF7ACFE424627
:102660004B46FDF7A8FE04460E460022284BFDF718
:1026700011FF03D84FF0FF30014607E00022254B41
:1026800020463146FDF77EFDFDF7E1FF102409E00D
:10269000002C0ADB0A220023FDF72AFF039B3032BD
:1026A0001A55641E50EA0102F2D1641C039AC4F167
:1026B00011031444119A012A03D0012208430DD1B9
:1026C0000AE0084304D000204FF0110B119072E78C
:1026D000A3EB0B056D1E0DE05B4504DD4FF0000222
:1026E00005F1010504E003DA4FF00002A5F1010550
:1026F000002AECD002981199C0E90231C0E90045E6
:1027000079E70000000014400000F03F30000000B6
:102710000000F0430000E03F2DE9FF4F95B09B46DD
:102720008946064600250FE2252877D10024274652
:10273000F84A0121059400E0044316F8013F203BCC
:1027400001FA03F01042F7D130782A2811D06FF047
:102750002F033078A0F13002092A16D8059A44F0E8
:10276000020402EB820203EB42021044761C059045
:10277000EFE759F8042B0592002A03DA504244F49B
:102780000054059044F00204761C30782E2816D1AF
:1027900016F8010F44F004042A280DD06FF02F0220
:1027A0003078A0F13003092B09D807EB870302EB3F
:1027B0004303C718761CF3E759F8047B761C30787E
:1027C0006C280FD006DC4C2817D068280DD06A285A
:1027D00014D104E0742810D07A280FD10DE044F40D
:1027E00000140AE044F4801401E044F440147278C8
:1027F000824202D104F58014761C761C307866285B
:102800000BD013DC582877D009DC002875D0452878
:10281000F6D04628F4D047281AD19DE118E0632865
:1028200035D0642879D0652812D195E1702873D00D
:1028300008DC6728F1D069286FD06E280DD06F288A
:1028400006D1B5E073282CD0752875D0782874D0BF
:102850005A46179990476D1C75E1C4F3025002283F
:1028600009D003280DD0D9F8001004280DD00D6030
:1028700009F1040967E1D9F80010EA17C1E900522B
:10288000F6E7D9F800100D80F2E70D70F0E719F8BF
:10289000041B8DF8001000208DF80100EA4601208D
:1028A00003E059F804AB4FF0FF3061074FF000012F
:1028B00002D40DE008F101018846B9420FDA8045E3
:1028C000F8DB1AF808100029F4D108E008F101013A
:1028D00088468142FADB1AF808100029F6D10598DB
:1028E0005B46A0EB080721463846179A00F094FA99
:1028F000284400EB080507E04DE029E10DE01AF857
:10290000010B5A4617999047B8F10108F7D25B4678
:1029100021463846179A13E142E00A220092C4F396
:1029200002524FF0000A022A08D059F804CB032AB9
:102930004FEAEC710AD00DE029E02AE009F1070125
:1029400021F00702F2E802C1914609E00FFA8CFC7F
:102950004FEAEC71042A03D14FFA8CFC4FEAEC7178
:10296000002907DA0A460021DCF1000C61EB0201C4
:102970002D2202E0220504D52B228DF8042001220D
:1029800003E0E20701D02022F7E7904659E00A2150
:1029900002E010220DE010214FF0000A00910BE040
:1029A00010224FF0000A44F004040827009203E0CC
:1029B00008224FF0000A0092C4F30252022A05D006
:1029C00059F804CB0021032A08D009E009F10701D6
:1029D00021F00702F2E802C1914605E01FFA8CFCE3
:1029E000042A01D10CF0FF0C4FF00008220728D573
:1029F000702806D0009B83F0100353EA0A0305D029
:102A00000EE040228DF80420012208E05CEA010279
:102A100006D030228DF804208DF805000222904661
:102A2000009B83F0080353EA0A030AD15CEA01021F
:102A300001D1620705D530228DF804204FF001083E
:102A40007F1E582804D034A003900EA802900DE0F9
:102A500036A0F9E753466046009AFDF749FD8446E3
:102A60000398825C0298401E029002705CEA0100AA
:102A7000F0D1029806A9081A00F1200A600702D5D1
:102A800024F4803400E00127574502DDA7EB0A005B
:102A900000E0002000EB0A01009005984144401A34
:102AA0000590E00306D45B462146179A059800F08E
:102AB000B3F90544002706E001A85A46C05D1799FE
:102AC00090476D1C7F1C4745F6DBE0030CD55B4649
:102AD0002146179A059800F09FF9054404E030203C
:102AE0005A46179990476D1C0099481E009000297E
:102AF000F5DC08E0029802995A460078491C0291D8
:102B0000179990476D1CBAF10001AAF1010AF1DC96
:102B100065E10000092801003031323334353637A1
:102B20003839616263646566000000003031323319
:102B300034353637383941424344454600000000B9
:102B400000F058F90544761C307800287FF4ECAD8D
:102B500019B02846BDE8F08F620700D4062709F1B6
:102B6000070222F0070CFCE80223E14603F00048CC
:102B70005FEA080C02D00FF2702C0DE05FEA045CF3
:102B800002D50FF2682C07E05FEAC47C02D00FF296
:102B9000602C01E0AFF2700C4FF0FF3823F00043DF
:102BA000CDF850C065280CD006DC452809D0462851
:102BB0001DD047283DD13DE0662818D067287ED13A
:102BC00038E00021112F01DB112000E0781CCDE955
:102BD000000106A90EA8FFF7DDFCDDE90F010E9A42
:102BE00003910021009207F1010A04914DE04FF09A
:102BF00000400097CDE9011006A90EA8FFF7CAFC16
:102C0000DDE90F0203920E9B11990022DDF80CA062
:102C10000093049211B9791C00EB010AB7EB0A008A
:102C200004D4C0F1FF3007F1010A0490AAEB0700B9
:102C3000019044E0012F00DA01270021112F01DD6E
:102C4000112000E03846CDE9000106A90EA8FFF7E3
:102C5000A1FCDDE90F010E9A03910021049100927D
:102C6000BA4621070CD40399514500DA8A46BAF1D5
:102C7000010F05DD009AAAF10101515C302908D04D
:102C8000B84202DA10F1040F06DA0121CDE9011091
:102C900015E0AAF10101E9E7002805DC04990144E7
:102CA0000491AAEB000102E0411C514500DD8A4677
:102CB0000499401A401C01904FF0004002902007F8
:102CC00004D40198504501DBCDF8048000208DF834
:102CD0004F0002980DF14F07B0F1004F25D02B2087
:102CE0000E9002984FF0020800280CDA4042029041
:102CF0002D200E9007E00A210298FDF7E3FB30310A
:102D0000029007F8011DB8F10001A8F10108F2DCFA
:102D100002980028EFD1791E0E980870307800F0E4
:102D2000200040F0450007F8020D12A8C01B00F17A
:102D300007081498007800B1012000EB0A010198FF
:102D400001EBE07105984144401A401E0590E003F4
:102D500006D45B462146179A059800F05DF80544B5
:102D60001498007818B15A46179990476D1CE003E3
:102D700024D55B462146179A059800F04DF8054486
:102D80001CE00498002807DBDDE90301884203DD2D
:102D90000098405C179901E0179930205A469047F7
:102DA000049805F10105401C04900198401E019013
:102DB00004D12E205A46179990476D1CBAF1000194
:102DC000AAF1010ADDDC05E017F8010B5A46179954
:102DD00090476D1CB8F10001A8F10108F4DC5B46D6
:102DE0002146179A0598ABE62D0000002B00000045
:102DF000200000002DE9F041044600251E4617463C
:102E0000880404D405E039462020B0476D1C641EB8
:102E1000F9D52846BDE8F0812DE9F04104460025AA
:102E20001E469046C80301D5302700E020278804BD
:102E300004D505E041463846B0476D1C641EF9D5FF
:102E40002846BDE8F0810A68531C0B60107070477B
:102E5000FDF734FDFFF72AF9FEF704FDFEF7C0FD8C
:102E6000FEF752FDFEF788FDFEF742FEFFF77AFA05
:102E7000FCE7010202030405060708090A0B0C0D12
:102E80000E0F1010010202030405060708090A0BC1
:102E90000C0D0E0F101000000000000000000102D9
:102EA00003040607080900000000010203040000F3
:102EB0000000000000000000000000000000000012
:102EC00000F8000000000000003330000000001691
:102ED0000E00160E0000000000000000000040C0C0
:102EE0007840C0784000043F04043F0404000070B0
:102EF00088FC08300000001820FF211E0000F008A8
:102F0000F000E018000000211C031E211E0000F04C
:102F10000888700000001E212324192721100000BA
:102F200000160E000000000000000000000000007D
:102F300000E0180402000000000718204000000212
:102F40000418E00000000040201807000000404086
:102F500080F0804040000202010F010202000000E8
:102F600000F0000000000101011F0101010000004C
:102F700000000000000000B0700000000000000031
:102F8000000000000000000101010101010100003A
:102F900000000000000000303000000000000000D1
:102FA000000080601804006018060100000000E0C6
:102FB00010080810E000000F102020100F00001073
:102FC00010F8000000000020203F202000000070CA
:102FD00008080888700000302824222130000030C2
:102FE0000888884830000018202020110E000000BA
:102FF000C02010F8000000070424243F240000F83B
:103000000888880808000019212020110E0000E01F
:10301000108888180000000F112020110E000038C1
:103020000808C83808000000003F000000000070D9
:10303000880808887000001C222121221C0000E062
:1030400010080810E0000000312222110F000000DB
:1030500000C0C00000000000003030000000000090
:1030600000C0C0000000000080B070000000000040
:103070008040201008000001020408102000404099
:1030800040404040400004040404040404000008DC
:103090001020408000000020100804020100007091
:1030A00048080808F0000000003036010000C03079
:1030B000C828E810E0000718272423140B0000009C
:1030C000C038E0000000203C23020227382008F826
:1030D000888888700000203F202020110E00C0301A
:1030E000080808083800071820202010080008F8F1
:1030F00008080810E000203F202020100F0008F8EA
:103100008888E8081000203F20202320180008F8B5
:103110008888E8081000203F200003000000C0302D
:1031200008080838000007182020221E020008F8AE
:1031300008000008F808203F210101213F20000875
:1031400008F8080800000020203F202000000000B0
:103150000808F8080800C08080807F00000008F898
:1031600088C028180800203F20012638200008F8D1
:10317000080000000000203F20202020300008F838
:10318000F800F8F80800203F003F003F200008F852
:1031900030C00008F808203F200007183F00E0106A
:1031A00008080810E0000F10202020100F0008F879
:1031B00008080808F000203F210101010000E0108C
:1031C00008080810E0000F18242438504F0008F8B1
:1031D000888888887000203F2000030C3020007011
:1031E0008808080838000038202121221C0018080F
:1031F00008F8080818000000203F2000000008F828
:1032000008000008F808001F202020201F00087870
:10321000880000C83808000007380E010000F808D0
:1032200000F80008F800033C0700073C03000818FA
:1032300068808068180820302C03032C3020083860
:10324000C800C83808000000203F20000000100817
:103250000808C8380800203826212020180000005F
:1032600000FE020202000000007F40404000000C0F
:1032700030C000000000000000010638C00000025D
:103280000202FE000000004040407F0000000020DD
:1032900010080408102000000000000000000000DA
:1032A000000000000000808080808080808000021C
:1032B0000408000000000000000000000000000002
:1032C0008080808000000019242222223F2008F8FC
:1032D000008080000000003F112020110E0000003F
:1032E000008080800000000E1120202011000000CE
:1032F00000808088F800000E112020103F20000080
:10330000808080800000001F222222221300008083
:1033100080F0888888180020203F202000000000CE
:10332000808080808000006B94949493600008F803
:10333000008080800000203F210000203F2000808E
:103340009898000000000020203F2020000000008E
:1033500000809898000000C08080807F000008F8FE
:10336000000080808000203F24022D3020000008D3
:1033700008F8000000000020203F2020000080808E
:10338000808080808000203F20003F20003F008020
:1033900080008080000000203F2100203F200000AE
:1033A000808080800000001F202020201F0080805F
:1033B00000808000000080FFA12020110E0000008E
:1033C000008080808000000E112020A0FF8080807F
:1033D00080008080800020203F212000010000002C
:1033E0008080808080000033242424241900008001
:1033F00080E0808000000000001F2020000080800E
:10340000000000808000001F202020103F208080CE
:1034100080000080808000010E300806010080805E
:103420000080008080800F300C030C300F00008083
:103430008000808080000020312E0E3120008080AE
:1034400080000080808080818E70180601000080DE
:103450008080808080000021302C222130000000FC
:103460000000807C020200000000003F404000009D
:103470000000FF00000000000000FF00000000024C
:10348000027C800000000040403F000000000080FF
:1034900040408000008000000000000101000000AA
:1034A000000000000000002F0000000007000700DF
:1034B00000147F147F1400242A7F2A12002313088B
:1034C00064620036495522500000000700000000E9
:1034D0001C224100000041221C000014083E081478
:1034E0000008083E0808000000A060000008080866
:1034F0000808000060600000002010080402003E80
:103500005149453E0000427F40000042615149461A
:10351000002141454B31001814127F10002745450A
:103520004539003C4A49493000017109050300361C
:103530004949493600064949291E0000363600002F
:103540000000563600000008142241000014141434
:103550001414000041221408000201510906003E23
:103560004955592E007C1211127C007F4949493679
:10357000003E41414122007F4141221C007F4949D8
:103580004941007F09090901003E4149497A007F0C
:103590000808087F0000417F4100002040413F01B2
:1035A000007F08142241007F40404040007F020C11
:1035B000027F007F0408107F003E4141413E007FB2
:1035C00009090906003E4151215E007F091929467B
:1035D0000046494949310001017F0101003F404057
:1035E000403F001F2040201F003F4038403F006305
:1035F0001408146300070870080700615149454327
:1036000000007F41410000020408102000004141F9
:103610007F000004020102040040404040400000DE
:1036200001020400002054545478007F4844443878
:1036300000384444442000384444487F00385454FF
:10364000541800087E0901020018A4A4A47C007F7D
:10365000080404780000447D4000004080847D0020
:10366000007F102844000000417F4000007C0418C7
:103670000478007C0804047800384444443800FC92
:10368000242424180018242418FC007C08040408AE
:1036900000485454542000043F444020003C404023
:1036A000207C001C2040201C003C4030403C00445A
:1036B00028102844001CA0A0A07C004464544C4462
:1036C0000000087F41000000007F00000000417FF3
:1036D00008000008040810080000000000000000B6
:1036E00000000000000000000000000000000000DA
:1036F00000000000000000000000000000000000CA
:1037000000F0F000000000000000000000770F0053
:103710000000000000000000001C1C000000000071
:1037200000008060301C8C60301C0C000000000029
:103730000000000000000000000000000000000089
:103740000000000000000000F000000000F0000099
:10375000008383FF83838383FB87830000011F0132
:10376000010101011F010100000080C06020F8205C
:10377000E0C00000000003070C18FF71E1810000A9
:103780000000070F12107F100F070000C03010302C
:10379000C00000C03000000007181018CF38C63134
:1037A0001030C000000018070000071810180700AC
:1037B0000000E0F010F0E00000000000C0E0173F63
:1037C000F8C70308F8080800070F181010130F0EA9
:1037D0001910100C00008C4C380000000000000094
:1037E00000000000000000000000000000000000D9
:1037F00000000000000000000000000000008060E9
:10380000100804000000000000FE0100000000009D
:10381000000000000000030C10204000000408100D
:103820006080000000000000000000000001FE00B9
:1038300000000000004020100C0300000000000009
:10384000000000000000C080000000000066662448
:103850003810FF183C2466660000000000000300DA
:1038600000000000000000000000800000000000D8
:10387000001010101010FF101010101000000000A9
:103880000000030000000000000000000000000035
:103890000000000000000000000000000000000028
:1038A00000008C4C38000000000000000000000008
:1038B0000000000000000000001010101010101098
:1038C00010101000000000000000000000000000C8
:1038D00000000000000000000000000000000000E8
:1038E000000000000000000000001C1C1C00000084
:1038F000000000000000000000000000E0380C00A4
:103900000000000080701C03000000000060380E02
:103910000100000000000000000080C06020206066
:10392000C080000000FEFF010000000001FFFE005B
:103930000001070E181010180E070100000040408B
:1039400040C0E000000000000000000000FFFF0099
:103950000000000000001010101F1F1010100000C9
:103960000080402020202060C08000000003030071
:1039700000C060301F07000000181C12111010104A
:10398000101E000000C0C020202060C08000000089
:10399000000101001010182FE7800000000E0E102B
:1039A000101010180F07000000000000000080E059
:1039B000E000000000C0A098848380FFFF8080802A
:1039C000000000000010101F1F1010000000E02079
:1039D000202020202020000000003F1008080818A8
:1039E000F0E0000000070B101010101C0F03000087
:1039F000000080C040202020E0C0000000FCFF212B
:103A00001008080818F0E0000001070C181010104A
:103A1000080F03000000C0602020202020E060008C
:103A2000000001000000E018070000000000000096
:103A3000001F1F00000000000080C0602020202028
:103A400060C080000083CF6C1810303068CF8300D6
:103A500000070F0810101010180F07000000C0C05A
:103A600020202020C0800000001F3F6040404020F8
:103A700010FFFE0000000C1C101010080F030000C7
:103A80000000000000000000000000000000000036
:103A9000001C1C1C0000000000000000001C1C1C7E
:103AA0000000000000000000000000000000000016
:103AB00000000000000C0C000000000000000000EE
:103AC00000D8380000000000000000000000008066
:103AD0004020100000001028448201000000000077
:103AE00000000000000001020408100000000000B7
:103AF00000000000000000000044444444444444EA
:103B000044444400000000000000000000000000E9
:103B100000001020408000000000000000000000B5
:103B20000000018244281000000010080402010077
:103B30000000000000008040402020202060C08065
:103B4000000007060000E01018080F070000000042
:103B5000001C1C1C000000000000C0E02010909021
:103B6000A060800000FEFF00F8FF03FC07807F00DC
:103B70000000070E18111111090C020000000000CE
:103B80008060E00000000000000080784740415F56
:103B9000F0800000101C131000000000111F18100E
:103BA0000020E0E020202060C0C000000000FFFFF7
:103BB000101010182FE7800000101F1F1010101099
:103BC000180F0700000080C04020202060E0800027
:103BD00000FCFF0100000000000003000001070ED0
:103BE00018101010080C03002020E0E020202040D6
:103BF000C08000000000FFFF0000000001FFFE0089
:103C000010101F1F101010080E07010020E0E02008
:103C1000202020206060800000FFFF10101010FCAA
:103C200000000100101F1F101010101010180600C7
:103C300020E0E020202020206060800000FFFF10B6
:103C4000101010FC00000100101F1F1010000000D9
:103C500000000000000080C06020202040800000A4
:103C600000FCFF0100004040C0C340400001070EBF
:103C7000181010100F0F000020E0E02000000000DE
:103C800020E0E02000FFFF101010101010FFFF00D8
:103C9000101F1F1000000000101F1F100000202028
:103CA00020E0E020202000000000000000FFFF00D6
:103CB0000000000000001010101F1F101010000066
:103CC000000000202020E0E0202020000000000074
:103CD0000000FFFF000000000060E08080C07F3F28
:103CE0000000000020E0E0200000A0E060200000D4
:103CF00000FFFF300C3AE18000000000101F1F1091
:103D0000000000131E18100020E0E020200000003A
:103D10000000000000FFFF000000000000000000A5
:103D2000101F1F10101010101018060020E0E000E7
:103D3000000000C0E0E0200000FF0FFFE0807C03F7
:103D4000FFFF0000101F10000F0700101F1F1000C2
:103D50000020E0E08000002020E020200000FF01A3
:103D6000071E78C000FF000010101F101000000395
:103D70000F1F0000000080C060202060C080000095
:103D800000FEFF010000000000FFFE000001070E22
:103D9000181010180C07010020E0E020202020203F
:103DA00040C0800000FFFF2020202030101F0F00A7
:103DB000101F1F101000000000000000000080C055
:103DC00060202060C080000000FEFF0100000000B5
:103DD00000FFFE000001070E1911173C6C6721005F
:103DE00020E0E0202020202060C0800000FFFF10A5
:103DF000101070D0080F0700101F1F1000000001E6
:103E0000071E18100080C0602020202040E0000025
:103E100000070F1C18383070E0E1800000070C0824
:103E200010101010180F07008060202020E0E02004
:103E3000202060800100000000FFFF000000000162
:103E400000000010101F1F10100000000020E0E014
:103E50002000000020E020000000FFFF0000000024
:103E600000FF00000000070F1810101008070000E6
:103E70002060E02000000000A06020000000077E1D
:103E8000E00080780700000000000000071E03002B
:103E90000000000020E020002060E0200020E02062
:103EA0000003FFC0C03C3FF0807C03000000001F07
:103EB0000300001F07000000002060E02000002039
:103EC000E020200000000001877CE886010000005F
:103ED00000101816010000131E1810002060E020CA
:103EE0000000000020A060200000010F3CF8E01856
:103EF0000601000000000010101F1F10100000003D
:103F00000080E06020202020A0E0200000010000D0
:103F1000806018060300000000101C17111010101C
:103F2000101806000000000000FC04040404000057
:103F30000000000000FF0000000000000000000082
:103F4000007F404040400000000030C00000000002
:103F500000000000000000000718E08000000000E2
:103F600000000000000000030C708000000004044A
:103F70000404FC0000000000000000000000FF003E
:103F8000000000000000404040407F0000000000B2
:103F90000000000804020204080000000000000005
:103FA0000000000000000000000000000000000011
:103FB0000000000000000000000000000000000001
:103FC00000000000000000000000000080808080F1
:103FD00080808080808080800000000404080800C9
:103FE00000000000000000000000000000000000D1
:103FF00000000000000000000000000000000000C1
:104000000000000000000000000098988444444430
:10401000FCF80000000F1F19101010080F1F1018D7
:104020000020E0F000000000000000000000FFFFA2
:10403000180804040CF8F00000001F0F08101010FE
:10404000180F030000000000000000000000000046
:1040500000E0F8180404043C3800000000030F0CD2
:1040600010101010080600000000000000002020C2
:10407000E0F0000000E0F81C04040408FFFF00006A
:1040800000030F18101010081F0F08000000000098
:1040900000000000000000000000E0F88884848434
:1040A0008CF8E0000000030F0C1010101008040042
:1040B0000000000080C0602020E0C0000004040474
:1040C000FFFF040404000000000010101F1F101068
:1040D00010000000000000000000000000000000D0
:1040E000000070F88C040CFCF40C0C0000707ECF07
:1040F00085858DCD787800000020E0F0000000007C
:10410000000000000000FFFF08040404FCF80000A9
:1041100000101F1F100000101F1F100000000000E3
:1041200000606000000000000000040404FCFE00C9
:104130000000000000001010101F1F1010100000E1
:10414000000000000000606060000000000000004F
:10415000040404FCFE0000000000C0C08080C07F9A
:104160003F0000000020E0F0000000000000000020
:104170000000FFFF8040E01C0404000000101F1F2F
:10418000100000131E1810000000202020E0F00096
:10419000000000000000000000FFFF000000000021
:1041A00000001010101F1F10101000000000000071
:1041B000000000000000000004FCFC0804FCF808FB
:1041C00004FCFC00101F1F10101F1F10101F1F10D9
:1041D0000000000000000000000000000004FCFCE3
:1041E00008040404FCF8000000101F1F1000001059
:1041F0001F1F100000000000000000000000000071
:1042000000E0F0180C04040C18F0E00000030F0CA0
:10421000101010100C0F0300000000000000000040
:10422000000000000004FCFC080404040CF8F0008A
:104230000080FFFF889010101C0F0300000000009A
:10424000000000000000000000E0F81C0404040866
:10425000F8FC000000030F1810109088FFFF80008A
:10426000000000000000000000000000040404FC46
:10427000FC100804041C18001010101F1F10101050
:10428000000000000000000000000000000000002E
:1042900000003878CCC484840C3C000000001E1858
:1042A000101011191F0F00000000000000C00000D6
:1042B0000000000000040404FFFF040404000000E8
:1042C000000000000F1F1010100C00000000000084
:1042D00000000000000000000004FCFE00000004DC
:1042E000FCFE000000000F1F181010081F0F080030
:1042F00000000000000000000000000000040C7C32
:10430000C4000080740C040000000000031F0C03B4
:10431000000000000000000000000000000000009D
:10432000041CF48004ECFC8400E41C040000011F65
:104330000F00000F0F000000000000000000000050
:10434000000000000000040C3CE4C0241C04040035
:104350000010101C120101131C18100000000000B6
:1043600000000000000000000004043CC40000C481
:104370003C0404000000C080817F0E0100000000AA
:1043800000000000000000000000000000003C04ED
:1043900004C4741C0C0000000000181E131110103F
:1043A000180E000000000000000000F804040000E7
:1043B00000000000001028C70000000000000000FE
:1043C0000000003F40400000000000000000FF002F
:1043D00000000000000000000000FF0000000000DE
:1043E000000000000000FF000000000000000404C6
:1043F000F80000000000000000000000C7281000C6
:1044000000000000000040403F00000000000000ED
:10441000000C02020204081810100C00000000003A
:10442000000000000000000000000000000000008C
:1044300000000000EFBC8C00000000000000000045
:1044400000000000000000000000583800000000DC
:104450000000000000000000E38082000000000077
:104460000000000000000000000000000000182410
:10447000241800000000000000000000E8AEBE00AC
:10448000404042CC0040A09E8282829EA02020001C
:104490000000003F908840432C1028464180800057
:1044A000E7BDAE00001715D55557557D555755D565
:1044B000151700004040407F555555555555557FBF
:1044C00040404000E5B9B400002018C744444444CB
:1044D000FC444444440400000404040704040404A9
:1044E000FF04040404040400E69C8800000000FEAD
:1044F0002222222222222222FE0000008040300FAF
:1045000002020202020242827F000000E697A5003A
:10451000000000FE82828282828282FE0000000011
:10452000000000FF40404040404040FF00000000CD
:10453000E88F9C00040444C44F4444C424242FB492
:104540002404040040442424150C04FE040C152407
:1045500024444000E58D95000000F8494A4C48F895
:10456000484C4A49F800000010101312121212FFB2
:10457000121212121310100000000000FF010101BE
:104580003109090909897101010101FFFF8080805A
:104590008080809681808080808080FFBC4500087C
:1045A000000000203000000074250008EC450008E1
:1045B00030000020A8080000842500080100000049
:1045C000100000000000000000127A0001FF00004F
:1045D00000000000000000000000000000000000DB
:0C45E000000000000000000000000000CF
:04000005080000ED02
:00000001FF
