:020000040800F2
:10000000904E002099010008ED460008672F000877
:10001000E946000861070008BD5F00080000000015
:1000200000000000000000000000000001010008C6
:10003000A10700080000000045010008A15A0008BF
:10004000B3010008B3010008B3010008B3010008C0
:10005000B3010008B3010008A3070008B3010008BA
:10006000B3010008B3010008B3010008B3010008A0
:10007000B3010008B3010008B3010008B301000890
:1000800065070008B3010008B3010008B3010008C8
:10009000B3010008B3010008B3010008B301000870
:1000A000B3010008B3010008B3010008B301000860
:1000B000B3010008B30100083D5B00087D2F000874
:1000C0006D2F0008B3010008B3010008B301000858
:1000D000B3010008B3010008B3010008B301000830
:1000E000B3010008B3010008B3010008DFF80CD029
:1000F00000F024FB00480047F9680008904E0020FB
:10010000224B19680868B0E8F00F80F30988BFF344
:100110006F8F4FF0000080F311884EF00D0E704786
:100120000000000006480068006880F3088862B696
:1001300061B6BFF34F8FBFF36F8F00DF00BF00BF0B
:1001400008ED00E0EFF30980BFF36F8F0F4B1A68E3
:1001500020E9F00F106008B54FF0BF0080F3118860
:10016000BFF34F8FBFF36F8F07F036FA4FF00000E9
:1001700080F31188BDE8084019680868B0E8F00FFE
:1001800080F30988BFF36F8F704700BF70000020B5
:10019000EFF3058070470000064880470648004797
:1001A000FEE7FEE7FEE7FEE7FEE7FEE7FEE7FEE727
:1001B000FEE7FEE7395B0008ED000008202A04DBBB
:1001C000203A21FA02F00021704721FA02F3D040D0
:1001D000C2F12002914008431946704740EA0103EA
:1001E0009B0703D009E008C9121F08C0042AFAD2ED
:1001F00003E011F8013B00F8013B521EF9D27047B1
:10020000D2B201E000F8012B491EFBD27047002258
:10021000F6E710B513460A4604461946FFF7F0FF05
:10022000204610BD10B5002200E0521C835C8C5C9F
:10023000A34201D1002BF8D1D8B2E1B2401A10BDCF
:100240002DE9FE4F804681EA0300C00F0C46009066
:1002500021F0004123F00045B8EB0200A94105D28E
:100260004046214690461C460B46024623F000407D
:10027000104347D0270DC7F30A00C3F30A51029079
:10028000401A019040286BDAC3F3130040F4801B3E
:100290000098924620B10023D2EB030A63EB0B0BCC
:1002A00001985946C0F14002504600F0B0F90646A8
:1002B0000D4650465946019A00F0B8F910EB080077
:1002C0006141002487EA115284EAE7731A4340D05F
:1002D000009A62B3019A012A4FEA075215DC001B0B
:1002E00061EB02014FF0004202EA0752CDE9004201
:1002F000001C41F5801132462B4600F0B8F903B0DE
:10030000BDE8F08F40462146F9E7001B61EB020192
:10031000001C41F5801300185B412018A2F500175E
:1003200047EB030140EAD570B6196D4111E06D0845
:100330004FEA360645EAC0754FEA0752001B61EBEB
:100340000201001C41F5801149084FEA30000019F4
:10035000514132462B4603B0BDE8F04F00F078B96A
:100360000098012240000023D0EB020263EBE0730F
:10037000009821464FEAE074B8EB000061EB0401FD
:10038000E9E783F000435BE781F0004158E72DE99E
:10039000FE4F81EA030404F0004421F00041009480
:1003A0004FF0000B23F0004350EA01045ED052EA04
:1003B00003045BD0C3F30A54C1F30A552C44A4F2DE
:1003C000F3340194A0FB0254C1F3130141F48011F2
:1003D000C3F3130343F4801301FB024400FB034EF9
:1003E000840A970A44EA815447EA8357A4FB0768C2
:1003F00002958D0A05FB07854FEA932C04FB0C54EC
:100400002705029D4FEA065847EA1637B5EB08055F
:100410006EEB070C870E920E47EA811742EA8312B1
:10042000A7FB0201B6EB0B0164EB00042B0D43EAC2
:100430000C335E1844EB1C50DA465146E7FB0201D0
:10044000C5F313044FEA0B3343EA14534FEA043263
:10045000019C43EA0603A4F10C040294009CCDE93C
:1004600000B400F004F903B0BDE8F08F00200146AD
:10047000F9E72DE9F04D81EA030404F0004B21F087
:10048000004514464FF0000A23F0004150EA0502EF
:1004900020D054EA01021DD0C5F30A570246C5F325
:1004A0001303C1F31300C1F30A5640F4801543F45B
:1004B0008013A7EB0608101BD64608F2FD3873EB35
:1004C000050002D308F1010801E092185B41B8F180
:1004D000000F03DA00200146BDE8F08D00204FF444
:1004E0008011064684460EE0171B73EB050705D303
:1004F000121B63EB050306434CEA010C49084FEA63
:10050000300092185B4150EA0107EDD152EA030036
:1005100012D082EA040083EA0501084305D0101BCB
:10052000AB4106D20122002306E000224FF0004337
:1005300002E06FF0010253101AEB06004CEB085179
:1005400010EB0A0041EB0B01BDE8F04D00F080B864
:1005500030B5041E71F1000404DB4FF0004440424A
:1005600064EB0101141E73F1000405DB1C464FF01F
:100570000043524263EB0403994208BF904230BDEE
:1005800030B50B46014600202022012409E021FA63
:1005900002F59D4205D303FA02F5491B04FA02F560
:1005A0002844151EA2F10102F1DC30BD2DE9F05FF7
:1005B0000546002092469B468846064681464024D2
:1005C0001BE02846414647462246FFF7F7FD5346C3
:1005D0005A46C01A914110D311461846224600F0DF
:1005E00016F82D1A67EB01084F462246012000211C
:1005F00000F00DF817EB00094E41201EA4F1010494
:10060000DFDC484631462A464346BDE8F09F202AB3
:1006100004DB203A00FA02F1002070479140C2F159
:10062000200320FA03F3194390407047202A06DB89
:10063000CB17203A41FA02F043EAE07306E041FAB0
:1006400002F3D040C2F1200291400843194670479E
:1006500010B5141E73F1000408DA401C41F10001CA
:1006600092185B411A4301D120F0010010BD2DE921
:10067000F04D92469B4611B1B1FA81F202E0B0FA18
:1006800080F220329046FFF7C2FF04460F4640EA50
:100690000A0041EA0B0153465A46084313D011465B
:1006A00053EA010019D0C8F140025046FFF786FD19
:1006B00005460E46504659464246FFF7A8FF0843F6
:1006C00005D0012004E020463946BDE8F08D002029
:1006D000054346EAE0762C4337430A986305E40A6B
:1006E000A0EB08000022FD0A44EA47540A3002D574
:1006F00000200146E9E7010510196941DDE90845D7
:1007000000196941BDE8F04DA2E7C1F30A52C1F3F7
:10071000130140F2FF3341F480119A4202DA0020C3
:100720000146704740F233439A42A2F2334202DC60
:100730005242FFF743BDFFF76ABF0000064C074D6A
:1007400006E0E06840F0010394E8070098471034A1
:10075000AC42F6D3FFF7CEFC289E0008489E000866
:1007600000BFFEE710B5024800F0D8F910BD000048
:100770002401002030B590F840500124AC40C56BF6
:100780006C60046863604468102C04D10468A26043
:100790000468E16003E00468A1600468E26030BDC1
:1007A000704710B5012000F0B9FB10BD72B600BF54
:1007B000FEE700001CB500220221142006F074FFA1
:1007C0001049086003220021012006F06DFF0E4948
:1007D00008600E48022100234A02CDE900100CA156
:1007E0000E4807F0D1F90E48032100234FF4807220
:1007F000CDE900100BA10E4807F0C6F906F0BEFEC9
:100800001CBD0000640000206C0000205C00002083
:100810004755495F5461736B000000006909000887
:10082000600000205469636B5F5461736B000000CB
:10083000A15E000810B504460D2C2CD2DFE804F0B0
:100840002B070A0D101316191C1F2225280005F06E
:100850003BFB20E004F0E4FF1DE004F0B3FE1AE0EF
:1008600004F062FD17E004F0C9FD14E004F054FC4C
:1008700011E004F081FF0EE004F03EFE0BE004F016
:10088000E5FB08E006F04AF805E005F081F802E033
:1008900003F07AFD00BF00BF10BD10B504460D2C5B
:1008A0002CD2DFE804F02B070A0D101316191C1FB9
:1008B0002225280005F02CFB20E004F0E1FF1DE0DC
:1008C00004F0B0FE1AE004F041FD17E004F0A8FDCA
:1008D00014E004F059FC11E004F060FF0EE004F0B5
:1008E0001DFE0BE004F0C4FB08E006F023F805E071
:1008F00005F062F802E003F04DFD00BF00BF10BD3F
:1009000010B504460D2C2CD2DFE804F02B070A0D9D
:10091000101316191C1F2225280005F0DBFA20E011
:1009200004F084FF1DE004F053FE1AE004F002FD21
:1009300017E004F069FD14E004F0F4FB11E004F0AA
:1009400021FF0EE004F0DEFD0BE004F085FB08E083
:1009500005F0EAFF05E005F029F802E003F080FD6C
:1009600000BF00BF10BD00001E480078FFF7C8FFA1
:1009700037E01D480078012803D01C480078012882
:1009800001D1142401E04FF47A7422461849194821
:10099000006806F0CFFF012802D00020144908802B
:1009A00003F064FD06F0E6FC0E4800781249097871
:1009B000884203D10B480078FFF76FFF09480078A1
:1009C0000D49097888420BD006480078FFF732FFBE
:1009D00009480078FFF794FF07480078014908703C
:1009E00000BFC6E7000000204A000020520000209F
:1009F00068000020640000200100002070B504465B
:100A0000002594F82100022803D00420A0630125CA
:100A100048E02068006820F00E0021680860206827
:100A2000006820F00100216808601F4920688842A2
:100A300001D1012026E01C4914312068884201D1EF
:100A400010201FE0184928312068884201D1801504
:100A500018E015493C312068884201D1801411E02A
:100A6000114950312068884202D14FF4803009E0AA
:100A70000D4964312068884202D14FF4801001E0B2
:100A80004FF08070084908394860012084F821003F
:100A900000BF002084F8200000BF606B10B120462A
:100AA000616B8847284670BD08000240014609B9BD
:100AB000012070470868006820F001000A68106093
:100AC00000200A6810600A6850600A6890600A682E
:100AD000D0600F4A0868801A1422B0FBF2F0800040
:100AE00008640B480838C86391F840200120904002
:100AF000CA6B506000208862C862086348638863DC
:100B000081F8210000BF81F8200000BF00BFD0E7BE
:100B100008000240014691F82100704770B5044674
:100B2000E06B05682068066894F84010042088404F
:100B30002840002846D006F00400002842D0206853
:100B4000006800F0200028B92068006820F0040048
:100B50002168086057492068884201D1042027E0B5
:100B6000544914312068884201D1402020E0514985
:100B700028312068884201D1001519E04D493C31E7
:100B80002068884202D14FF4804011E04949503139
:100B90002068884202D14FF4802009E04549643141
:100BA0002068884202D14FF4800001E04FF080605D
:100BB000404908394860E06A00287AD02046E16A56
:100BC000884776E094F84010022088402840A0B37F
:100BD00006F0020088B32068006800F0200040B9E9
:100BE0002068006820F00A0021680860012084F86D
:100BF000210030492068884201D1022028E02D4997
:100C000014312068884201D1202021E0294928316F
:100C10002068884201D140151AE026493C312068FD
:100C2000884202D14FF4005012E02249503120682E
:100C3000884203D14FF400300AE017E01D496431C7
:100C40002068884202D14FF4001001E04FF000709C
:100C500018490839486000BF002084F8200000BF10
:100C6000A06A30B32046A16A884722E094F8401079
:100C7000082088402840E0B106F00800C8B120688C
:100C8000006820F00E002168086094F840100120F0
:100C90008840E16B48600120A06384F8210000BF18
:100CA000002084F8200000BF206B10B12046216B8B
:100CB000884770BD080002400146002209B90120A2
:100CC0007047164B0868C01A1423B0FBF3F080007D
:100CD000086412480838C863022081F821000868B7
:100CE000026843F6F0708243D1E901031843CB68F0
:100CF00018430B6918434B6918438B691843CB6938
:100D0000184302430868026000208863012081F8CC
:100D10002100002081F8200000BFD1E70800024038
:100D20002DE9F04104460D4616461F464FF00008D7
:100D300000BF94F82000012802D10220BDE8F08114
:100D4000012084F8200000BF94F8210001282CD154
:100D5000022084F821000020A0632068006820F0B1
:100D60000100216808603B46324629462046FFF7CD
:100D700001FDE06A30B12068006840F00E00216893
:100D800008600BE02068006820F00400216808601B
:100D90002068006840F00A00216808602068006848
:100DA00040F001002168086006E000BF002084F8E0
:100DB000200000BF4FF002084046BFE770B5044670
:100DC00000F058FA06462546681C10B10448007821
:100DD000054400BF00F04EFA801BA842FAD370BD54
:100DE0000C0000202DE9F04102460B46002080E077
:100DF0000127874007EA0301002979D0404F4FEAD5
:100E0000900C57F82C4087074FEA177C0F2707FAFA
:100E10000CF73C403B4FBA4201D100270FE03A4F5C
:100E2000BA4201D101270AE0384FBA4201D1022764
:100E300005E0374FBA4201D1032700E004274FEA0B
:100E4000807C4FEA1C7C07FA0CF7A74231D1314F66
:100E50003F688F43DFF8BCC0CCF800700CF104078A
:100E60003F688F430CF1040CCCF80070294F0C370D
:100E70003F688F43DFF89CC00CF10C0CCCF800707D
:100E8000ACF104073F688F43ACF1040CCCF8007060
:100E900087074FEA177C0F2707FA0CF4184F4FEA21
:100EA000900C57F82CC02CEA040C4FEA900847F835
:100EB00028C0FF2901D8174600E0171D3D46FF292D
:100EC00001D8870002E0A0F10807BF003E462F6866
:100ED0004FF00F0C0CFA06FC27EA0C074FF0040C3D
:100EE0000CFA06FC47EA0C072F60D7688F43D760DF
:100EF000401C23FA00F7002F7FF47AAFBDE8F081A1
:100F00000800014000080140000C014000100140B1
:100F100000140140000401407047000010B5044671
:100F200004480068204020B1024804602046FFF7D2
:100F3000F3FF10BD140401402DE9F84703460022D9
:100F400094466EE14FF0010808FA02F4D1F80080EF
:100F500008EA0400A0427DD1DFF8DCA2D1F80480C9
:100F6000A8EB0A09D0453AD014DCB8F1030F50D0F1
:100F700009DCB8F1000F31D0B8F1010F1CD0B8F185
:100F8000020F49D120E0B8F1110F18D0B8F1120FBB
:100F900042D11EE0B9F5881F25D006DCB9F5803FA7
:100FA00020D0B9F5801F37D11AE0B9F5001F18D04D
:100FB000B9F5041F30D117E0D1F80CC02DE0D1F8FD
:100FC0000C8008F1040C28E0D1F80C8008F1080C22
:100FD00023E0D1F80C8008F10C0C1EE000BF00BF2C
:100FE00000BF00BF00BF00BFD1F80880B8F1000FFC
:100FF00002D14FF0040C0BE0D1F80880B8F1010FDA
:1010000003D14FF0080C1C6102E04FF0080C5C614A
:1010100003E04FF0000C00E000BF00BFFF2801D844
:10102000984601E003F104084646FF2802D84FEA3B
:10103000820803E0A2F108084FEA88084746D6F87C
:1010400000804FF00F0909FA07F928EA09080CFA9D
:1010500007F900E088E048EA0908C6F80080D1F8FE
:10106000048008F08058B8F1805F7DD100BFDFF8C0
:10107000CC81D8F8188048F00108DFF8C091C9F891
:101080001880C846D8F8188008F00108CDF800800C
:1010900000BF00BF4FEAB9384FEA920958F829500B
:1010A0004FEA82784FEA18794FF00F0808FA09F8EA
:1010B00025EA0805DFF88881434502D14FF0000892
:1010C00016E0DFF88081434502D14FF001080FE0C0
:1010D000DFF87481434502D14FF0020808E0DFF8E1
:1010E0006C81434502D14FF0030801E04FF0040842
:1010F0004FEA82794FEA197908FA09F848EA0505B2
:10110000DFF84C814FEA920948F82950D1F8048061
:1011100008F48018B8F5801F0AD1DFF83881D8F8B4
:10112000008048EA0008DFF82C91C9F8008009E047
:10113000DFF82081D8F8008028EA0008DFF8149151
:10114000C9F80080D1F8048008F40018B8F5001F31
:1011500010D1DFF8008108F10408D8F8008048EACF
:101160000008DFF8F09000E05AE009F10409C9F83E
:1011700000800DE0DFF8DC8008F10408D8F800807A
:1011800028EA0008DFF8CC9009F10409C9F80080CA
:10119000D1F8048008F40038B8F5003F0ED1DFF82C
:1011A000B480A8F10408D8F8008048EA0008DFF805
:1011B000A490A9F10409C9F800800DE0DFF894803B
:1011C000A8F10408D8F8008028EA0008DFF8849025
:1011D000A9F10409C9F80080D1F8048008F4803826
:1011E000B8F5803F0ED1DFF86C80A8F10808D8F878
:1011F000008048EA0008DFF85C90A9F10809C9F806
:1012000000800DE0DFF84C80A8F10808D8F80080D5
:1012100028EA0008DFF83C90A9F10809C9F8008025
:10122000521CD1F8008028FA02F8B8F1000F7FF4C0
:1012300089AEBDE8F88700000000111000100240E0
:1012400000080140000C0140001001400014014062
:101250000800014008040140024693680B400BB1AE
:10126000012000E0002070470AB1016101E00B0499
:1012700003617047014800687047000004000020C7
:101280007047704710B504460CB9012010BD2420EA
:1012900084F83D002068006820F0010021680860A3
:1012A000204600F05BFC0020206484F83D002063B1
:1012B00084F83E0000BF84F83C0000BF00BFE5E7B3
:1012C0002DE9F84F0446206847692068D0F804806B
:1012D000002594F83E90C7F3002070B1C8F30020B9
:1012E00058B145F001056FF48070216848612068AD
:1012F000006840F4004021680860C7F3402040B116
:10130000C8F3002028B145F002056FF40070216891
:101310004861C7F3802070B3C8F3002058B3CA46B1
:10132000B4F82AB094F83D60206B0090BAF1200F19
:101330000FD1BBF1000F0CD1212E06D0292E04D0E5
:10134000282E06D10098212803D1204602F04EFD18
:1013500011E06FF480602168486145F00405B9F13F
:10136000100F02D0B9F1400F05D12068006840F499
:10137000007021680860C7F3C02040B1C8F30020A6
:1013800028B145F008056FF40060216848612DB16F
:10139000206C28432064204601F04EFFBDE8F88F02
:1013A0002DE9F04705464FF0000928684668D5F852
:1013B0002CA095F83E7095F83D80102F01D0402F5D
:1013C00075D12868D0F818902868446904F00100A5
:1013D00060B9BAF52A0F02D0BAF12A4F01D1012023
:1013E00000E00020012801D1BDE8F08704F00100F1
:1013F00048B1C6F3402030B1284601F0C7FD284669
:1014000002F03AFBB7E0C4F3C00030B1C6F34020AD
:1014100018B1284602F0DBF9ADE0C4F3400030B16A
:10142000C6F3402018B1284602F0E6F9A3E0C9F35C
:10143000800040B32868406800F40060B0F5006F99
:10144000E0D0C4F3C01048B1C6F3802030B1C4F37B
:10145000800018B9284602F04EF98CE0C4F38000F1
:101460000028CFD0C6F340200028CBD0B8F1210F00
:1014700003D1284602F0EFF87DE0402F7BD12846CB
:1014800002F049FB77E02868406800F40060B0F59E
:10149000006F70D0C4F3801050B1C6F3802038B113
:1014A000C4F3800020B9284602F053F863E00BE053
:1014B000C4F3800000285ED0C6F3402000285AD034
:1014C000284601F0AEFF56E0286C10B12868446948
:1014D00004E02868D0F8189028684469C4F34000F4
:1014E00060B1C6F3402048B1286C10B12868D0F82C
:1014F00018904946284602F041FC3CE0C4F3001035
:1015000030B1C6F3402018B1284602F0C3FC32E0E7
:10151000B8F1210F02D0B8F1290F16D1C4F3C010D1
:1015200048B1C6F3802030B1C4F3800018B9284612
:1015300002F001FC1FE0C4F38000E0B1C6F34020DC
:10154000C8B1284602F0EAFB15E0C4F3801048B1A8
:10155000C6F3802030B1C4F3800018B9284602F0E9
:10156000BAFB08E0C4F3800028B1C6F3402010B1F4
:10157000284602F0A3FB00BF36E7000038B504465A
:101580000C492068884213D10020009069460A481F
:10159000006806F08BF900BF009838B14FF080501A
:1015A00006490860BFF34F8FBFF36F8F00BF00BFC6
:1015B00038BD0000005400406C00002004ED00E045
:1015C000014691F83D00704770B504460CB9012002
:1015D00070BD94F83D0028B9002084F83C002046F6
:1015E00000F0E0FA242084F83D002068006820F034
:1015F0000100216808602068006840F4004021680C
:1016000008602068006820F400402168086000F04D
:10161000B1FE05465C496068884206D85B48854251
:1016200001D2012007E0002005E05948854201D29F
:10163000012000E00020012800D1C9E75548B5FB92
:10164000F0F62068406820F03F0030432168486091
:101650004D496068884201D8701C07E04FF49670CD
:1016600070434FF47A71B0FBF1F0401C2168096AB5
:1016700021F03F01084321680862434960688842BD
:1016800014D8681E61684900B0FBF1F0401CC0F33B
:101690000B00042801D204203DE0681E6168490067
:1016A000B0FBF1F0401CC0F30B0034E0A06838B987
:1016B000681E616801EB4101B0FBF1F0401C0AE0DB
:1016C000681E616801EBC10202EB0111B0FBF1F091
:1016D000401C40F48040C0F30B0008B901201AE020
:1016E000A06848B9681E616801EB4101B0FBF1F0E8
:1016F000401CC0F30B000CE0681E616801EBC102E6
:1017000002EB0111B0FBF1F0401CC0F30B0040F400
:10171000804040F400402168C9694CF6FF72914353
:1017200008432168C861D4E90701084321680968B2
:1017300021F0C001084321680860D4E90310084380
:101740002168896848F2FF32914308432168886024
:10175000D4E9050108432168C96821F0FF01084365
:101760002168C8602068006840F0010021680860B6
:1017700000202064202084F83D000020206384F8AD
:101780003E0000BF24E70000A086010080841E0008
:1017900000093D0040420F00704770477047704796
:1017A00038B504460C492068884213D100200090C7
:1017B00069460A48006806F079F800BF009838B119
:1017C0004FF0805006490860BFF34F8FBFF36F8F13
:1017D00000BF00BF38BD0000005400406C00002076
:1017E00004ED00E02DE9FC5F04460F469046994663
:1017F000DDE90CAB0E9EFFF73DFD054694F83D007C
:1018000020287DD1192301224D492046009502F060
:101810003AFC10B10220BDE8FC9F00BF94F83C00E8
:10182000012801D10220F6E7012084F83C0000BF26
:101830002068006800F0010028B92068006840F0C6
:101840000100216808602068006820F400602168B9
:101850000860212084F83D00402084F83E000020EC
:101860002064C4F824A0A4F82AB0608D20853548EF
:10187000E0624B46424639462046CDE9006502F01B
:10188000ADF908B10120C6E731E02A4631462046CD
:1018900002F0FEFC50B1206C042805D120680068DD
:1018A00040F40070216808600120B4E7606A0078A5
:1018B00021680861606A401C6062208D401E20859E
:1018C000608D401E608520684069C0F3800070B163
:1018D000208D60B1606A007821680861606A401CF0
:1018E0006062208D401E2085608D401E6085208DA9
:1018F0000028CAD12A463146204602F091FB00E07A
:101900001CE050B1206C042805D12068006840F428
:1019100000702168086001207DE72068006840F4BD
:10192000007021680860202084F83D00002084F8C1
:101930003E0000BF84F83C0000BF6CE702206AE76D
:10194000020010000000FFFF2DE9FE4F04460E4686
:1019500017469846DDE90C9A00200290FFF78AFCB2
:10196000834694F83D00202875D1784800681921F5
:10197000B0FBF1F04FF47A71B0FBF1F000EBC00175
:1019800001EB0010029000BF0298401E02900298E6
:1019900070B900202063202084F83D00002084F8E6
:1019A0003E00206C40F0200020640220BDE8FE8F45
:1019B00020688069C0F340000028E5D100BF94F89A
:1019C0003C00012801D10220F0E7012084F83C000E
:1019D00000BF2068006800F0010028B92068006896
:1019E00040F00100216808602068006820F4006071
:1019F00021680860212084F83D00402084F83E00E2
:101A000000202064C4F82490A4F82AA0608D2085CA
:101A10004F48E0626664A764C4F84C8000202065EB
:101A2000208D00287ED0606BB0B14A48616B88621F
:101A30004948616B08630020616BC862616B486351
:101A4000238DD4F800C00CF11002616A606BFFF7BF
:101A500067F9054611E076E0202084F83D0000207B
:101A600084F83E00206C40F08000206400BF00201D
:101A700084F83C0000BF012098E7EDBB23204346DB
:101A80003A463146CDE9000B204602F0A7F8B8B13E
:101A9000606BFEF7B3FF05460020616B886220682B
:101AA000006820F48060216808600020208560853F
:101AB0002068006820F0010021680860012075E7B7
:101AC00000BF002001902068406901902068806973
:101AD000019000BF00BF00BF002084F83C0000BFA1
:101AE0002068406840F48070216848602068406841
:101AF00040F40060216801E003E013E0486000204A
:101B000054E7202084F83D00002084F83E00206C3B
:101B100040F01000206400BF002084F83C0000BFAB
:101B2000012043E7202084F83D00002084F83E0097
:101B3000206C40F04000206400BF002084F83C008E
:101B400000BF012032E7022030E700001000002033
:101B50000000FFFFE7300008A130000810B5044680
:101B60000D492068884216D10C48C06920F4001045
:101B70000A49C86140210A48FFF734F98021084822
:101B8000FFF730F9606BFEF791FF1F2000F018F9A6
:101B9000202000F015F910BD005400400010024054
:101BA000000C014010B586B004460020029003905E
:101BB000049005902A49206888424ED100BF2948E8
:101BC000806940F00800274988610846806900F074
:101BD0000800019000BF00BFC020029012200390B7
:101BE0000320059002A92048FFF7A6F900BF1D4871
:101BF000C06940F400101B49C8610846C06900F480
:101C00000010019000BF00BF18481949086010205B
:101C100048600021164881608021C1600021016177
:101C200041618161C161FFF747F808B1FEF7BEFD70
:101C300000BF0F486063446200BF002206211F20DE
:101C400000F0F0F81F2000F0DDF80022062120202F
:101C500000F0E8F8202000F0D5F806B010BD000034
:101C60000054004000100240000C01406C00024093
:101C70002401002070477047034800680349097831
:101C80000844014908607047040000200C0000204F
:101C900010B50848006840F01000064908600320AD
:101CA00000F0FEF80F2000F007F800F05FF80020C9
:101CB00010BD0000002002402DE9F04188B004462C
:101CC0000027B846002600BF2348C06940F0040042
:101CD0002149C8610846C06900F00400019000BFB6
:101CE00000BF02A903A800F01DFB069F1FB900F06A
:101CF00041FB054602E000F03DFB45001748B5FBFF
:101D0000F0F0A0F1010816481649086040F2E731EA
:101D10001448C160C0F804800021016181608161C4
:101D200000F0EAFF064696B90E4801F019F806469B
:101D30006EB91E2000F066F8102C07D20022214652
:101D40001E2000F06FF80848046000E001263046CD
:101D500008B0BDE8F08100000010024040420F00D2
:101D6000000800407C0100200800002008B500BFEA
:101D70001148806940F001000F4988610846806978
:101D800000F00100009000BF00BF00BF0846C0691E
:101D900040F08050C8610846C06900F08050009053
:101DA00000BF00BF00BF0549486820F0E06040F078
:101DB0000070486000BF08BD0010024000000140F4
:101DC00010B501460846002817DB00F01F0301226A
:101DD0009A400B4B440943F8242000BF00BF00BFCA
:101DE000BFF34F8F00BF00BF00BF00BF00BF00BFE9
:101DF000BFF36F8F00BF00BF00BF00BF10BD00006A
:101E000080E100E001460846002809DB00F01F03DE
:101E100001229A4043099B0003F1E023C3F800210B
:101E200000BF70472DE9F05F80460D46164600273B
:101E300004F0D8F8074639462A46334601F0070031
:101E4000C0F1070ABAF1040F02D94FF0040A01E009
:101E5000C0F1070AD14600F1040ABAF1070F02D215
:101E60004FF0000A01E0A0F1030AD4464FF0010A46
:101E70000AFA09FAAAF1010A0AEA020A0AFA0CFAAB
:101E80004FF0010B0BFA0CFBABF1010B0BEA030B50
:101E90004AEA0B042146404604F0ACF8BDE8F09F46
:101EA00000BF00F00702064B19684FF6FF03194008
:101EB000044B0B4343EA0221014B196000BF7047FA
:101EC0000CED00E00000FA050120014908627047AE
:101ED00000000E42012190FAA0F2B2FA82F2034B06
:101EE00003EB8202C2F880107047000000000E422F
:101EF0000748006840F0020005490860054800688E
:101F000040F004000349086000BF00BF30BF7047C5
:101F10000070004010ED00E070B504460D46114819
:101F2000006820F002000F4908600846006820F0B1
:101F30000100204308600C48006840F004000A4992
:101F40000860012D01D130BF04E040BF02F00AFF5C
:101F500002F008FF0448006820F00400024908600D
:101F600070BD00000070004010ED00E02DE9F0476A
:101F700006464FF00008002500270024A146012E48
:101F800031D0022E56D0102E5FD1324844680068FE
:101F900000F0807008B33048C4F38341475C04F418
:101FA000803078B12B484068C0F340402B4911F88D
:101FB000008004F4803040B12948B0FBF8F000FB09
:101FC00007F502E0274807FB00F52248406800F4C7
:101FD0008000B0F5800F01D1A94603E0680003211D
:101FE000B0FBF1F932E01B48046A04F44070B0F52C
:101FF000807F05D104F0020010B14FF4004918E0D1
:1020000004F44070B0F5007F07D11248406A00F038
:10201000020010B149F640490BE004F44070B0F5FD
:10202000407F06D10B48006800F4003008B14FF241
:1020300024490BE000F0AEF906494968C1F381314B
:10204000491C4900B0FBF1F900E000BF00BF484661
:10205000BDE8F08700100240A6800008B6800008A6
:1020600000127A0000093D00F8B50446002600255C
:10207000207800F0010000286BD000274348C06999
:1020800000F0805070B900BF4048C06940F08050F7
:102090003E49C8610846C06900F08050009000BF0A
:1020A00000BF01273A48006800F48070B0B9384892
:1020B000006840F4807036490860FFF7DBF8064698
:1020C00006E0FFF7D7F8801B642801D90320F8BD8C
:1020D0002F48006800F480700028F2D02B48006A76
:1020E00000F440752DB3A08800F44070A84220D0C1
:1020F0002648006A20F44075012026490860002027
:1021000008602248056205F0010090B1FFF7B2F8BF
:10211000064608E0FFF7AEF8801B41F2883188429E
:1021200001D90320D3E71948006A00F00200002813
:10213000F0D01648006A20F44070616808431349E3
:102140000862012F04D10846C06920F08050C861A0
:1021500000BF207800F00200022807D10B48406839
:1021600020F44040A168084308494860207800F006
:102170001000102807D10548406820F48000E1686D
:102180000843024948600020A1E700000010024017
:10219000007000404004424270B504460D460CB940
:1021A000012070BD5A48006800F00700A8420ED216
:1021B0005748006820F00700284355490860084642
:1021C000006800F00700A84201D00120E9E720786C
:1021D00000F0020002281DD1207800F0040004283D
:1021E00005D14C48406840F4E0604A494860207896
:1021F00000F00800082805D14648406840F46050C7
:10220000444948604348406820F0F000A168084312
:1022100040494860207800F0010078B360680128E8
:1022200006D13C48006800F4003090B90120B8E7BE
:102230006068022806D13748006800F0007040B995
:102240000120AEE73348006800F0020008B9012021
:10225000A7E73048406820F00300616808432D4933
:102260004860FFF707F8064609E0FFF703F8801B10
:1022700041F28831884202D9032092E707E02548DD
:10228000406800F00C006168B0EB810FEDD1204890
:10229000006800F00700A8420ED91D48006820F031
:1022A000070028431A4908600846006800F0070044
:1022B000A84201D0012074E7207800F0040004282F
:1022C00007D11448406820F4E060E16808431149F0
:1022D0004860207800F00800082808D10D484068C0
:1022E00020F46050216940EAC1000A49486000F0CA
:1022F00061F808494968C1F30311074A515CC840B5
:102300000649086006480068FFF7D6FC002048E749
:102310000020024000100240B88000081000002099
:10232000080000200F2202600D4A526802F00302EA
:1023300042600B4A526802F0F0028260084A52681A
:1023400002F4E062C260064A526802F46052D208A7
:102350000261044A126802F007020A607047000036
:102360000010024000200240014800687047000051
:102370001000002000B5FFF7F7FF04494968C1F3DA
:102380000221034A515CC84000BD00000010024019
:10239000C880000800B5FFF7E7FF04494968C1F3AA
:1023A000C221034A515CC84000BD00000010024039
:1023B000C880000870B500210022002400230020FE
:1023C000134D696801F00C05F5B1042D02D0082DFC
:1023D00019D101E00F4819E00F4DC1F38346AB5D01
:1023E00001F4803555B10A4D6D68C5F340450B4E7B
:1023F000725D084D5D43B5FBF2F402E0084D03FB4E
:1024000005F4204602E000BF024800BF00BF70BDD7
:102410000010024000127A0094800008A480000896
:1024200000093D00F8B504460CB90120F8BD20783C
:1024300000F00100002878D0F848406800F00C0057
:1024400004280CD0F548406800F00C00082811D191
:10245000F248406800F48030B0F5803F0AD1EF4880
:10246000006800F4003000285FD0606800285CD16C
:102470000120DBE700BF6068B0F5803F06D1E74888
:10248000006840F48030E549086028E0606858B989
:10249000E248006820F48030E0490860084600689F
:1024A00020F4802008601AE06068B0F5A02F0BD1FE
:1024B000DA48006840F48020D8490860084600687F
:1024C00040F4803008600AE0D448006820F480308E
:1024D000D24908600846006820F48020086000BFE8
:1024E000606888B1FEF7C6FE054606E0FEF7C2FE4C
:1024F000401B642801D9032098E7C848006800F40D
:1025000000300028F2D010E0FEF7B4FE054606E0E9
:10251000FEF7B0FE401B642801D9032086E7BF48C0
:10252000006800F400300028F2D1207800F00200AA
:10253000022857D1B948406800F00C0050B1B748A4
:10254000406800F00C00082818D1B448406800F436
:10255000803098B9B148006800F0020020B12069CD
:10256000012801D0012061E7AC48006820F0F800A4
:10257000616940EAC100A949086033E02069E8B117
:102580000120A7490860FEF775FE054606E0FEF744
:1025900071FE401B022801D9032047E79F480068CD
:1025A00000F002000028F2D09C48006820F0F800FB
:1025B000616940EAC1009949086013E00020984928
:1025C0000860FEF757FE054606E0FEF753FE401B87
:1025D000022801D9032029E79048006800F0020092
:1025E0000028F2D1207800F0080008282DD1A06939
:1025F000B8B101208B490860FEF73CFE054606E0B5
:10260000FEF738FE401B022801D903200EE783485D
:10261000406A00F002000028F2D0012002F0A6FB80
:1026200013E000207F490860FEF724FE054606E01F
:10263000FEF720FE401B022801D90320F6E677486A
:10264000406A00F002000028F2D1207800F0040077
:10265000042873D100277148C06900F0805070B918
:1026600000BF6E48C06940F080506C49C8610846A0
:10267000C06900F08050009000BF00BF01276A4889
:10268000006800F48070B0B96748006840F480705A
:1026900065490860FEF7EEFD054606E0FEF7EAFD37
:1026A000401B642801D90320C0E65F48006800F49D
:1026B00080700028F2D000BFE068012806D157489A
:1026C000006A40F001005549086227E0E06858B907
:1026D0005248006A20F00100504908620846006A2A
:1026E00020F00400086219E0E06805280BD14B488F
:1026F000006A40F00400494908620846006A40F058
:10270000010008620AE04548006A20F001004349E0
:1027100008620846006A20F00400086200BFE06812
:10272000A0B1FEF7A7FD054609E0FEF7A3FD401B9B
:1027300041F28831884202D9032077E622E0374807
:10274000006A00F002000028EFD012E0FEF792FDD0
:10275000054608E0FEF78EFD401B41F288318842B5
:1027600001D9032062E62D48006A00F0020000282B
:10277000F0D1012F05D12948C06920F080502749A8
:10278000C86100BFE069C8B32448406800F00C008D
:10279000082860D0E069022848D100202049086656
:1027A000FEF768FD054606E0FEF764FD401B0228C3
:1027B00001D903203AE61948006800F000700028AB
:1027C000F2D1206AB0F5803F07D11448406820F468
:1027D0000030A168084311494860D4E90801084362
:1027E0000E49496821F4741108430C4948600120DE
:1027F0000B490866FEF73EFD054607E03DE0FEF7A3
:1028000039FD401B022801D903200FE60348006868
:1028100000F000700028F2D02FE00000001002400D
:1028200000004242800442420070004000201449EF
:102830000866FEF71FFD054606E0FEF71BFD401B80
:10284000022801D90320F1E50E48006800F000706D
:102850000028F2D111E0E069012800D1E6E509483D
:10286000466806F48031206A814204D106F4701172
:10287000606A814201D00120D8E50020D6E5000041
:102880000000424200100240F8B505460C461646CC
:102890000020009005B10CB90120F8BD0022694666
:1028A000284600F01AF808B10120F6E7287B2070CE
:1028B000E87BE070687B6070A87BA0705EB1E07818
:1028C00002F073FAE070607802F06FFA6070A0783E
:1028D00002F06BFAA0700020DFE72DE9F047804698
:1028E0000C46914600250026AA460027B8F1000FA5
:1028F00000D014B90120BDE8F087D8F80000406886
:10290000C0F3800008B10120F5E7404602F014FB57
:1029100005464FF46160B5FBF0F7B5FBF0F100FB45
:1029200011503C21B0FBF1F060704FF46160B5FBD9
:10293000F0F100FB11503C21B0FBF1F201FB120061
:10294000A070182F39D31820B7FBF0FAB7FBF0F1BD
:1029500000FB11702070404602F0E2FA0646701C3F
:1029600018B1AE4201D9761B01E04FF0FF360AEBF9
:102970004A00C000C0EB4011C1EB0020A5EB0015E0
:102980002946404602F04BFB08B10120B3E7701C1A
:1029900038B12E443146404602F02AFB40B10120B6
:1029A000A9E73146404602F023FB08B10120A2E727
:1029B0005146404602F006FA00E02770B9F1000FD8
:1029C0000BD0207802F0F1F92070607802F0EDF978
:1029D0006070A07802F0E9F9A07000208BE7000099
:1029E00070B5044600250CB9012070BD607C20B98B
:1029F00000202074204600F053F802206074204626
:102A000000F058F918B1042060740120EDE7204669
:102A100002F033FA18B1042060740120E5E7206861
:102A2000406820F0070021684860A06828B11B4872
:102A3000006820F00100194908601848001F00686C
:102A400020F46070A16808431449091F0860606899
:102A5000401C08B1656809E00120FFF787FA0546C8
:102A60001DB9042060740120BFE76D1EC5F303404B
:102A700021688860A8B22168C860204602F01AFA6E
:102A800018B1042060740120AFE70021E173012137
:102A90006173A173012060740020A6E7306C0040D0
:102AA00038B504460B492068884212D1FFF70CFA6A
:102AB00000BF0948C06940F000600749C861084686
:102AC000C06900F00060009000BF00BF0120034912
:102AD000086038BD00280040001002403C0442421B
:102AE0002DE9F04704460D46904600260027B146E2
:102AF00004B115B90120BDE8F08700BF207C012892
:102B000001D10220F7E70120207400BF0220607489
:102B1000B8F1000F06D1E978E17369786173A9789B
:102B2000A1730BE0E87802F035F9E073687802F001
:102B300031F96073A87802F02DF9A073A27B617B54
:102B4000E07B02F013FA2073207B2870204602F00D
:102B5000F3F906464FF46160B6FBF0F9B9F1180FCE
:102B60002FD91820B9FBF0F000EB4000C000C0EBFB
:102B70004011C1EB0020A6EB00163146204602F0C2
:102B80004EFA38B10420607400BF0020207400BFEA
:102B90000120B0E7204602F0C3F90746781C80B157
:102BA000B7420ED20B4807443946204602F020FABD
:102BB00038B10420607400BF0020207400BF0120E1
:102BC00099E70120607400BF0020207400BF00BF9F
:102BD00091E70000805101002DE9F04704460D46C1
:102BE00090460026002704B115B90120BDE8F08702
:102BF00000BF207C012801D10220F7E701202074CA
:102C000000BF02206074B8F1000F0BD128784FF498
:102C1000616148436978C1EB011100EB8100A9783B
:102C2000461812E0287802F0B5F84FF4616100FB15
:102C300001F9687802F0AEF8C0EB001009EB8009EA
:102C4000A87802F0A7F809EB00063146204602F00A
:102C5000E6F938B10420607400BF0020207400BF82
:102C60000120C3E72068406820F005002168486023
:102C7000204602F055F90746781C80B1B7420ED2C3
:102C80000B4807443946204602F0B2F938B1042017
:102C9000607400BF0020207400BF0120A6E701205F
:102CA000607400BF0020207400BF00BF9EE70000DA
:102CB0008051010070B5044600250CB9012070BD9B
:102CC0002068406820F0080021684860FEF7D2FACA
:102CD000054607E0FEF7CEFA401BB0F57A7F01D932
:102CE0000320ECE72068406800F008000028F1D0DD
:102CF0000020E4E77047704710B504460CB9012086
:102D000010BD94F83D0028B9002084F83C0020460E
:102D100000F025F8022084F83D00211D206802F013
:102D200015FF012084F8460000BF84F83E00012111
:102D30003F200155402001554120015500BF00BFF3
:102D4000012084F8420043200155442001554520CC
:102D5000015500BF012084F83D000020D0E77047F6
:102D6000014691F83D00012801D001207047022062
:102D700081F83D000868C06840F001000B68D86029
:102D8000124B086898420BD00868B0F1804F07D00A
:102D90000F4B0868984203D00E4B086898420CD13C
:102DA0000868806800F00702062A0CD008680068EE
:102DB00040F001000B68186005E00868006840F00A
:102DC00001000B6818600020D0E70000002C0140D3
:102DD0000004004000080040704770B504462068B9
:102DE000C5682068066906F00200022819D105F0BE
:102DF0000200022815D1401F2168086101202077B8
:102E00002068806900F0030018B12046FFF7E4FF56
:102E100005E0204600F097F8204600F095F80020E5
:102E2000207706F00400042819D105F004000428D6
:102E300015D1C0432168086102202077206880698D
:102E400000F4407018B12046FFF7C6FF05E02046A9
:102E500000F079F8204600F077F80020207706F09F
:102E60000800082819D105F00800082815D1C0432A
:102E700021680861042020772068C06900F0030001
:102E800018B12046FFF7A8FF05E0204600F05BF8E8
:102E9000204600F059F80020207706F01000102896
:102EA00019D105F01000102815D1C0432168086120
:102EB000082020772068C06900F4407018B12046CF
:102EC000FFF78AFF05E0204600F03DF8204600F0BD
:102ED0003BF80020207706F0010048B105F0010022
:102EE00030B16FF0010021680861204600F02EF833
:102EF00006F08000802809D105F08000802805D1E7
:102F0000C043216808612046FFF7F4FE06F0400048
:102F1000402809D105F04000402805D1C043216870
:102F20000861204600F01EF806F02000202809D194
:102F300005F02000202805D1C04321680861204603
:102F4000FFF7D9FE70BD70477047000010B504460A
:102F500003492068884201D1FEF78EFE10BD0000B3
:102F600000080040704700BFFEE7000010B50248AF
:102F7000FEF7A6F910BD0000D000002010B50248F1
:102F8000FEF70EFA10BD0000D0000020C16AB1F5B6
:102F90002A0F02D10121C16205E0C16AB1F12A4FB5
:102FA00001D10821C1627047F8B5054600200090A4
:102FB0006C6A94F83D60394800681921B0FBF1F063
:102FC0004FF47A71B0FBF1F0C0EBC00000EB800071
:102FD000009000BF009820B9206C40F020002064D1
:102FE00009E00098401E00902068006800F400701E
:102FF000B0F5007FEED000BF606B10B10020616BB8
:103000008862A06B10B10020A16B88622068006804
:1030100020F480602168086000206085606B10B13A
:103020000020616B4863A06B10B10020A16B486366
:103030002068006820F001002168086094F83D00D5
:1030400060280AD1202084F83D00002084F83E004A
:1030500020642046FEF714F91EE006F02800282818
:1030600011D12068006840F00100216808602068E4
:10307000006840F4806021680860002020632820F8
:1030800084F83D0005E0202084F83D00002084F80D
:103090003E002046FEF772FAF8BD00001000002046
:1030A00070B505466C6A606B10B10020616B886278
:1030B000A06B10B10020A16B88622068006820F42A
:1030C00080602168086000206085202084F83D0031
:1030D000002084F83E00206C40F010002064204660
:1030E000FEF74CFA70BD2DE9F04107467C6A94F872
:1030F0003D6094F83E80E56A2068406820F44070A6
:1031000021684860606B10B10020616B8862A06B21
:1031100010B10020A16B886206F02100212806D0A2
:1031200006F02200222826D1B8F1200F23D12068F2
:10313000406820F400602168486000206085292EE6
:1031400008D121202063282084F83D002046FEF786
:1031500092FD09E02A2E07D122202063282084F83E
:103160003D002046FEF786FD2068406840F4407030
:103170002168486054E094F83E00002850D0608DEB
:10318000012805D12068006820F48060216808606B
:103190002068406820F440702168486015F5803F41
:1031A00006D0082D04D0B5F12A4F01D0202D05D12D
:1031B0002068006840F4007021680860206840685A
:1031C00020F48050216848602068406820F4006046
:1031D0002168486000206085206C18B12046FEF709
:1031E000CDF91DE0202084F83D0094F83E004028F1
:1031F00007D1002084F83E0020632046FEF7CFFA76
:103200000EE0002084F83E00082D01D0202D02D1D0
:103210000020206301E0122020632046FEF7BDFA63
:10322000BDE8F08101684969C1F3C01111B1002105
:1032300002681161704700002DE9F041044694F8DE
:103240003D6094F83E70102F01D0402F07D1222E00
:1032500005D12068006820F400602168086006F04D
:103260002800282805D100202063282084F83D006C
:1032700010E02068406800F40060B0F5006F07D0EF
:10328000602E05D0202084F83D00002084F83E0008
:10329000002020632068406800F40060B0F5006FF3
:1032A00040D12068406820F4006021684860606B6D
:1032B00090F82100012814D04848616B4863606B86
:1032C000FDF79CFB00285BD02068006820F001001F
:1032D00021680860202084F83D00606B416B8847BE
:1032E0004EE03E48A16B4863A06BFDF787FB0028CA
:1032F00046D020684069C0F3801030B12068006972
:10330000616A0870606A401C60622068006820F092
:10331000010021680860202084F83D00A06B416B0B
:1033200088472DE094F83D0060281AD1202084F8C9
:103330003D000020206420684069C0F3801030B157
:1033400020680069616A0870606A401C60622068D9
:10335000006820F00100216808602046FDF790FF1A
:103360000EE020684069C0F3801030B12068006929
:10337000616A0870606A401C60622046FEF7FEF8D1
:10338000256C05F0010058B905F00200022807D0AD
:1033900005F00400042803D005F00800082805D132
:1033A0002068406820F4E0602168486094F83D603F
:1033B000206C00F0040004280ED1282E0CD10848FF
:1033C000E06200202063202084F83D00002084F883
:1033D0003E002046FEF7E0F9BDE8F081A92F000885
:1033E0000000FFFF014608684069C0F38020B0B1CB
:1033F0006FF480600A68506100200863202081F823
:103400003D00002081F83E00086C40F00400086494
:1034100000BF002081F83C0000BF01207047002061
:10342000FCE770B50446E56A608D042810D1206879
:10343000406820F480602168486020680069616A03
:103440000870606A401C6062608D401E60857FE08D
:10345000608D03281AD12068406820F480602168BC
:103460004860042D07D0022D05D02068006820F4A4
:1034700080602168086020680069616A0870606A7D
:10348000401C6062608D401E608561E0608D022896
:1034900054D1012D01D0102D06D12068006820F4F0
:1034A00080602168086010E0042D01D0022D06D153
:1034B0002068006840F480602168086005E02068AA
:1034C000006840F400702168086020680069616A43
:1034D0000870606A401C6062608D401E60852068D4
:1034E0000069616A0870606A401C6062608D401EFD
:1034F00060852068406820F4407021684860202082
:1035000084F83D0094F83E00402807D1002084F85C
:103510003E0020632046FEF742F919E0002084F8BF
:103520003E00082D01D0202D02D10020206301E0B3
:10353000122020632046FEF730F909E02068006978
:10354000616A0870606A401C6062608D401E608520
:1035500070BD70B5044694F83D0022287AD1E66A21
:10356000658D032D13D920680069616A0870606A4F
:10357000401C6062608D401E6085608D032868D1AC
:103580002068406820F480602168486061E0E06A5B
:10359000022858D0012D01D0002D54D1204600F032
:1035A0004FFEA0BB2068006820F48060216808609E
:1035B0002068406820F4E060216848602068006965
:1035C000616A0870606A401C6062608D401E6085A0
:1035D000202084F83D0094F83E00402807D10020C8
:1035E00084F83E0020632046FEF7D9F831E0002041
:1035F00084F83E00082E01D0202E02D10020206346
:1036000001E0122020632046FEF7C7F821E0FFE723
:103610002068406820F4E060216848602068006904
:10362000616A0870606A401C6062608D401E60853F
:10363000202084F83D00002084F83E002046FDF75D
:103640009DFF06E006E02068406820F48060216865
:10365000486000BF70BD70B50446E56A94F83D004F
:10366000212847D1608D50B1606A007821680861D7
:10367000606A401C6062608D401E60853AE0082DE3
:1036800016D0202D14D015F5803F11D02068406849
:1036900020F4E0602168486011202063002084F855
:1036A0003E00202084F83D002046FEF777F821E018
:1036B0002068406820F4E060216848602068006865
:1036C00040F400702168086000202063202084F806
:1036D0003D0094F83E00402806D1002084F83E00CA
:1036E0002046FEF75DF805E0002084F83E00204605
:1036F000FEF754F870BD2DE9F041044694F83D50B2
:1037000094F83E70E66A208DB0BB212D3CD1082E86
:1037100016D0202E14D016F5803F11D020684068B6
:1037200020F4E0602168486011202063002084F8C4
:103730003E00202084F83D002046FEF72FF844E0AC
:103740002068406820F4E0602168486020680068D4
:1037500040F400702168086000202063202084F875
:103760003D0094F83E00402807D1002084F83E0038
:103770002046FEF715F828E006E0002084F83E0019
:103780002046FEF70BF820E0212D03D0402F1CD15E
:10379000222D1AD1608D30B92068406820F48060F5
:1037A0002168486011E094F83E00402803D120468B
:1037B00000F0B1F909E0606A007821680861606A88
:1037C000401C6062608D401E6085BDE8F081416CE8
:1037D000C9B202681161416B11B1416B896A21B9AB
:1037E000816B41B1816B896A29B10168496841F4F3
:1037F000006102685160704738B590F83E20C16A98
:10380000036B90F83D40222C73D1046D64B9402ABB
:103810000AD100BF0024009404686469009404681D
:10382000A469009400BF26E1046DC4B90469B4F52D
:10383000404F14D100BF00240094046864690094D0
:103840000468A469009400BF00BF0468246844F4BD
:10385000807405682C60046D641C04650BE1448D64
:103860008CB900BF00240094046864690094046863
:10387000A469009400BF00BF0468246844F4007485
:1038800005682C60E9E0448D012C72D111F5803F70
:1038900030D10468246824F4806405682C600468CE
:1038A000646804F40064B4F5006F10D104682468FF
:1038B00024F4806405682C6000BF00240094046830
:1038C000646900940468A469009400BFC5E000BF67
:1038D000002400940468646900940468A469009456
:1038E00000BF00BF0468246844F4007405682C60BD
:1038F000B3E0B5E0082923D0202921D0122B01D133
:1039000001291DD104290AD0022908D0102906D086
:103910000468246824F4806405682C6005E0046869
:10392000246844F4806405682C6000BF002400947F
:103930000468646900940468A469009400BF8CE082
:103940000468246824F4806405682C6000BF0024A7
:1039500000940468646900940468A469009400BF3A
:1039600000BF0468246844F4007405682C6074E0A7
:10397000FFE7448D022C47D104291BD0022919D01E
:10398000102917D00468246844F4006405682C608A
:1039900000BF002400940468646900940468A4696A
:1039A000009400BF00BF0468246824F480640568A4
:1039B0002C6010E00468246844F4806405682C607E
:1039C00000BF002400940468646900940468A4693A
:1039D000009400BF00BF0468646804F40064B4F598
:1039E000006F3AD111F5803F07D0012905D0082991
:1039F00003D0102901D020292FD10468646844F431
:103A0000805405686C6028E00468246844F480648D
:103A100005682C600468646804F40064B4F5006F01
:103A200010D111F5803F07D0012905D0082903D016
:103A3000102901D0202905D10468646844F4805419
:103A400005686C6000BF00240094046864690094F9
:103A50000468A469009400BF00BF002404650AE064
:103A600000BF002400940468646900940468A46999
:103A7000009400BF00BF38BD90F83E1040290ED121
:103A8000016D29B9416C01F0FE010268116141E04C
:103A9000416CC9B241F00101026811613AE001696B
:103AA000B1F5804F20D190F83D10212905D1416C0E
:103AB00001F0FE010268116105E0416CC9B241F0FC
:103AC000010102681161416B11B1416B896A21B931
:103AD000816BF9B1816B896AE1B10168496841F490
:103AE00000610268516015E0016D41B9416C01F45B
:103AF0004071F02242EAE111026811610AE0016DB1
:103B0000012907D1416C01F44071F12242EAE1112F
:103B100002681161704770B5044694F83D50206DFD
:103B200098B9E06C012807D1A06CC0B22168086187
:103B3000206D801C206550E0A06CC0F30720216838
:103B40000861206D401C206547E0206D012807D1E9
:103B5000A06CC0B221680861206D401C20653CE06B
:103B6000206D022836D1222D09D12068006840F44A
:103B7000807021680860206D401C20652DE0608DFC
:103B800060B1212D0AD1606A007821680861606AFD
:103B9000401C6062608D401E60851EE0608DE0B953
:103BA000212D1AD12068406820F4E0602168486027
:103BB0002068006840F400702168086000202063DD
:103BC000202084F83D00002084F83E002046FDF7C8
:103BD000E7FD02E02046FFF725FB70BD2DE9F84325
:103BE0000446884615469946DDE90867206800685E
:103BF00040F4807021680860334600224FF00111C4
:103C00002046009700F03FFA60B12068006800F499
:103C10008070B0F5807F02D14FF4007020640320E3
:103C2000BDE8F88308F0FE00216808613B46324693
:103C30002149204600F086FA08B10120F0E700BFD4
:103C40000020009020684069009020688069009002
:103C500000BF00BF3A463146204600F019FB50B184
:103C6000206C042805D12068006840F400702168A9
:103C700008600120D4E7B9F1010F03D1E8B221684F
:103C8000086117E0C5F30720216808613A4631460C
:103C9000204600F0FDFA50B1206C042805D12068C0
:103CA000006840F40070216808600120B8E7E8B2BD
:103CB000216808610020B3E702000100418D49B18D
:103CC00001680969426A1170416A491C4162418D6B
:103CD000491E4185704770B5044694F83D50608D8B
:103CE000D8B120680069616A0870606A401C60622F
:103CF000608D401E6085608D78B92A2D0DD12068B9
:103D0000406820F4806021684860222020632820D9
:103D100084F83D002046FDF7ADFF70BD418D49B1EF
:103D2000416A097802681161416A491C4162418D0A
:103D3000491E4185704770B5044694F83D50608D2A
:103D4000D8B1606A007821680861606A401C6062CE
:103D5000608D401E6085608D78B9292D0DD1206859
:103D6000406820F48060216848602120206328207A
:103D700084F83D002046FDF77EFF70BDF8B504468F
:103D80000D46002794F83D0000F0280028281CD19B
:103D90002068406820F4806021684860C5F3800096
:103DA00000B90127C5F3C01010B9A08986B201E09F
:103DB000208B86B200BF002084F83C0000BF324652
:103DC00039462046FDF75DFA0FE000BF0020009065
:103DD00020684069009020688069009000BF00BFA3
:103DE00000BF002084F83C0000BFF8BD70B5044659
:103DF00094F83D50E66A082E01D0202E1FD1282DC0
:103E00001DD12348E0622068406820F4E06021680A
:103E100048606FF48060216848612068006820F481
:103E200080602168086000202063202084F83D0025
:103E3000002084F83E002046FDF7AEFC26E0212D50
:103E400020D11348E06221202063202084F83D0027
:103E5000002084F83E002068406820F4E06021687B
:103E600048606FF48060216848612068006820F431
:103E70008060216808602046FFF7D4F92046FDF7EE
:103E8000FAFE03E06FF480602168486170BD0000B5
:103E90000000FFFF38B5044694F83D5020684068A4
:103EA00020F4E0602168486000BF00200090206896
:103EB000406900902068006840F0010021680860B7
:103EC00000BF00BF2068006820F48060216808609F
:103ED0002068406800F40060B0F5006F42D1222DE8
:103EE00001D02A2D1FD1A06B006840686085608DCD
:103EF00018B1206C40F0040020642068406820F471
:103F0000006021684860A06BFCF704FE012829D0FE
:103F10004148A16B4863A06BFCF770FD10B3A06B28
:103F2000416B88471EE0606B006840686085608D6B
:103F300018B1206C40F0040020642068406820F430
:103F4000006021684860606BFCF7E4FD012809D03F
:103F50003148616B4863606BFCF750FD10B1606BDA
:103F6000416B8847608D18B320684069C0F38000BA
:103F700048B120680069616A0870606A401C60622C
:103F8000608D401E608520684069C0F3801048B194
:103F900020680069616A0870606A401C6062608D18
:103FA000401E6085608D18B1206C40F004002064D4
:103FB000206C18B12046FFF73FF92BE02A2D07D1DE
:103FC00000202063282084F83D002046FDF752FEA3
:103FD00094F83D0028280DD11048E06200202063AD
:103FE000202084F83D00002084F83E002046FDF7A4
:103FF000D3FB0FE0206B222801D0222D0AD1002014
:104000002063202084F83D00002084F83E002046F4
:10401000FDF730FE38BD0000A92F00080000FFFFAB
:1040200070B504460D46164625E02046FFF7DAF93E
:1040300008B1012070BD681CE8B1FDF71BF9801BB9
:10404000A84200D8BDB920684069C0F3800090B98B
:1040500000202063202084F83D00002084F83E00EA
:10406000206C40F02000206400BF002084F83C0059
:1040700000BF0120DEE720684069C0F3800000280F
:10408000D3D00020D6E72DE9F04104460D4617466F
:104090001E46DDF8188038E0701CA8B3FDF7EAF87A
:1040A000A0EB0800B04200D876BBC5F3074001285A
:1040B0000AD120684069A9B20840A9B2884201D15A
:1040C00001200BE0002009E020688069A9B20840C7
:1040D000A9B2884201D1012000E00020B84214D1E9
:1040E00000202063202084F83D00002084F83E005A
:1040F000206C40F02000206400BF002084F83C00C9
:1041000000BF0120BDE8F081FFE7C5F307400128AB
:104110000AD120684069A9B20840A9B2884201D1F9
:1041200001200BE0002009E020688069A9B2084066
:10413000A9B2884201D1012000E00020B842ABD0F2
:104140000020DFE72DE9F04104460D4616461F46E4
:1041500058E020684069C0F38020E8B1206800681A
:1041600040F40070216808606FF480602168486145
:1041700000202063202084F83D00002084F83E00C9
:10418000206C40F00400206400BF002084F83C0054
:1041900000BF0120BDE8F081701C90B3FDF76AF804
:1041A000C01BB04200D866BBC5F3074001280AD146
:1041B00020684069A9B20840A9B2884201D1012013
:1041C0000BE0002009E020688069A9B20840A9B28C
:1041D000884201D1012000E0002090B90020206336
:1041E000202084F83D00002084F83E00206C40F040
:1041F0002000206400BF002084F83C0000BF0120A4
:10420000C8E7FFE7C5F3074001280AD120684069E5
:10421000A9B20840A9B2884201D101200BE00020D8
:1042200009E020688069A9B20840A9B2884201D19A
:10423000012000E0002000288BD00020AAE7000029
:1042400008B5014600200090104800681922B0FB14
:10425000F2F04FF47A72B0FBF2F000EB80000090C5
:1042600000BF0098401E0090009828B9086C40F0EC
:1042700020000864012008BD0868006800F4007090
:10428000B0F5007FEDD00020F5E700001000002021
:1042900070B504460D46164625E02046FFF7A2F805
:1042A00008B1012070BD681CE8B1FCF7E3FF801B7A
:1042B000A84200D8BDB920684069C0F3C01090B9C9
:1042C00000202063202084F83D00002084F83E0078
:1042D000206C40F02000206400BF002084F83C00E7
:1042E00000BF0120DEE720684069C0F3C01000284D
:1042F000D3D00020D6E7000010B5024641EA0223E1
:1043000005480088984204D10020034C20800120F9
:1043100010BD0020FCE700006800002010B5044636
:104320004CB94FF480711648FCF796FF08B900208D
:1043300010BD0120FCE7012C08D1E1021048FCF778
:104340008BFF08B90020F3E70120F1E7022C08D128
:1043500008210C48FCF780FF08B90020E8E701209D
:10436000E6E7032C09D101210548FCF775FF012878
:1043700001D10020DCE70120DAE70120D8E70000C6
:1043800000080140000C014010B500F0B1F900F048
:1043900079FC10BD10B508210020FFF7ADFFA8B1D2
:1043A0001E480078012808D100201C49087001220D
:1043B00051031B48FCF758FF2BE0012017490870F8
:1043C000002241031648FCF74FFF22E0082101209C
:1043D000FFF792FFA8B111480078012808D100200A
:1043E0000E490870012251030D48FCF73DFF10E013
:1043F00001200A490870002241030948FCF734FFF4
:1044000007E008210220FFF777FF10B10A200549D5
:10441000087000F009F800F035FC10BD53000020D2
:10442000001001400100002008B50A48007840B99A
:1044300009482C231A460A2100902A2000F074FB18
:1044400007E006482C231A460A2100902A2000F093
:104450006BFB08BD53000020169C00081E9D000841
:1044600010B5FFF7E1FF00F00DFC10BD10B50948D5
:10447000007801280CD100200649087000F038F9B6
:1044800000F000FC01210846FDF746FD01F010FB9D
:1044900010BD00005400002014480068401C13495F
:1044A0000860084600684EF66021884208D210482D
:1044B0000078012804D100200C4908600C490870DC
:1044C0000A4800684EF6602188420ED308480078FA
:1044D00058B90848007840B90748007828B9002042
:1044E0000249086001200549087070475800002003
:1044F0001E00002052000020550000205400002023
:1045000008B500BF0A48406940F001000849486109
:104510000846406900F00100009000BF00BF002283
:1045200006211020FDF77EFC1020FDF76BFC08BD76
:104530000010024000B585B0002001900290039069
:10454000049000BF3648806940F01000344988610B
:104550000846806900F01000009000BF00BF00BF57
:104560000846806940F0200088610846806900F0B4
:104570002000009000BF00BF00BF0846806940F0E7
:10458000040088610846806900F00400009000BFC4
:1045900000BF00BF0846806940F0080088610846F7
:1045A000806900F00800009000BF00BF01225103A5
:1045B0001C48FCF759FE4FF4005001900120029076
:1045C00003900220049001A91648FCF7B5FC0120D5
:1045D0000190154802900220039001A91348FCF7AE
:1045E000ABFC4FF41060019000200290012003907A
:1045F00001A90E48FCF7A0FC0820019000200290C1
:104600000120039001A90A48FCF796FC002206212C
:104610000846FDF707FC0620FDF7F4FB05B000BDDA
:10462000001002400010014000001110000801407D
:10463000000C014010B50B480B4908600B4848605E
:10464000002109488160C1604FF48041016100216F
:1046500041618161C1610162FCF7B6FF08B1FCF7FD
:10466000A5F810BD00540040D0000020801A0600BC
:104670001CB500200190009019481A4908604FF0BD
:10468000FF304860002117488160FEF7A9F908B1A2
:10469000FCF78CF820208DF8040015208DF805001B
:1046A00000208DF80600012201A90E48FEF794FAB9
:1046B00008B1FCF77BF805208DF8000003208DF889
:1046C000010020208DF8020026208DF80300012231
:1046D00069460448FEF704FA08B1FCF767F81CBD08
:1046E000002800406801002000BFFEE700BFFEE791
:1046F00000200CE0002106E00022064B03EBC01373
:104700005A544A1CD1B28029F6DB421CD0B2082888
:10471000F0DB7047C40100202DE9F04304460D464C
:1047200016461F467F2C01DDBDE8F0833F2D00DDDE
:10473000FAE7A119802902DDC4F18001CEB2E9199E
:10474000402902DDC5F14001CFB2284630E02346C2
:1047500029E04FEAE07C00EB5C7C4FEAEC0CDFF8F0
:104760005C8008EBCC1C1CF803C002464FEAE078E2
:1047700000EB58784FEAE808A0EBC8094FF00108B1
:1047800008FA09F82CEA080C01464FEAE07800EB39
:1047900058784FEAE808DFF8249009EBC81808F8C1
:1047A00003C0591CCBB2A1199942D2DC411CC8B23A
:1047B000E9198142CBDC00BFB6E70000C40100204C
:1047C00010B5AE2000F0AAFAD52000F0A7FA80209C
:1047D00000F0A4FAA82000F0A1FA3F2000F09EFA11
:1047E000D32000F09BFA002000F098FA402000F05F
:1047F00095FAA12000F092FAC82000F08FFADA2092
:1048000000F08CFA122000F089FA812000F086FA7C
:10481000CF2000F083FAD92000F080FAF12000F0D8
:104820007DFADB2000F07AFA302000F077FAA4203D
:1048300000F074FAA62000F071FA8D2000F06EFAF4
:10484000142000F06BFA202000F068FA002000F03D
:1048500065FAAF2000F062FA10BD0FB470B58AB0EF
:1048600005460E46144612A8019002A8019A119915
:1048700001F0A6FB00200190234602AA31462846FB
:1048800000F0E8F90AB070BC5DF814FB1FB53548BC
:104890000078012800D11FBD01203249087032483C
:1048A000FCF7F0FC00200090019002900390C020E3
:1048B000009011200190012002900320039069468E
:1048C0002A48FCF739FB0122C0212848FCF7CCFC20
:1048D0000120FCF773FA002417E080212348FCF73D
:1048E000BBFC012800D112E0002240211F48FCF748
:1048F000BBFC012002F006FE012240211B48FCF710
:10490000B3FC012002F0FEFD641C092CE5DB00BFB6
:10491000002240211548FCF7A7FC012002F0F2FD1F
:10492000002280211148FCF79FFC012002F0EAFDE3
:10493000012240210D48FCF797FC012002F0E2FD26
:10494000002280210948FCF78FFC012002F0DAFDEB
:104950000548FCF739FEFFF733FF002001490870D6
:1049600000BF98E714000020D0000020000C014098
:104970002DE9F04304460D4616461F467F2C01DD07
:10498000BDE8F0833F2D00DDFAE7A119802902DDA3
:10499000C4F18001CEB2E919402902DDC5F1400120
:1049A000CFB2284630E0234629E04FEAE07C00EB16
:1049B0005C7C4FEAEC0CDFF85C8008EBCC1C1CF84C
:1049C00003C002464FEAE07800EB58784FEAE80867
:1049D000A0EBC8094FF0010808FA09F88CEA080CA6
:1049E00001464FEAE07800EB58784FEAE808DFF834
:1049F000249009EBC81808F803C0591CCBB2A119C0
:104A00009942D2DC411CC8B2E9198142CBDC00BF1B
:104A1000B6E70000C4010020F8B506460F4614466C
:104A20001D46082D0CD1A4F12000164901EB001001
:104A30001023082239460090304600F075F820E037
:104A4000062D0ED1A4F1200000EB40000E4901EB31
:104A500040000823062239460090304600F064F8F2
:104A60000FE00C2D0DD1A4F1200000EBC000074990
:104A700001EB800018230C2239460090304600F0EC
:104A800053F8F8BDD0800008C0860008FA880008F6
:104A90002DE9FC47804689461646002700200190F4
:104AA000002538E0705D01A9C855781CC7B2032FF6
:104AB0002FDB002700240BE004EBC401184A02EBB3
:104AC000810001A9FBF7AEFB00B90BE0601CC4B28A
:104AD00004EBC401124A02EB810012A1FBF7A2FB16
:104AE0000028E9D100BF681C032190FBF1F0401EB3
:104AF00008EB001000F0FF0A04EBC400084901EBCA
:104B00008000001D10231A4649460090504600F0D0
:104B10000BF8681CC5B2705D0028C3D1BDE8FC87E6
:104B200056960008000000002DE9F04707460C46A5
:104B300090469946DDF820A07F2F01DDBDE8F08783
:104B40003F2C00DDFAE74B46424621463846FFF748
:104B5000E3FD002570E0002669E0B8197F2800DD3C
:104B600067E0E11704EB517105EBE101072900DD76
:104B7000E4E72046E21704EB527205EBE202344B05
:104B800003EBC212BB19D25C2146E31704EB53734B
:104B9000DB10A4EBC30305FB086C1AF80CC00CFA7D
:104BA00003FC42EA0C02E31704EB537305EBE30347
:104BB000DFF89CC00CEBC31307EB060C03F80C20CA
:104BC000E11704EB517105EBE101491C072900DDF8
:104BD0002BE02046E21704EB527205EBE202521C76
:104BE0001B4B03EBC212BB19D25C2146E31704EB4B
:104BF0005373DB10A4EBC303C3F1080305FB086C7C
:104C00001AF80CC04CFA03FC42EA0C02E31704EB5E
:104C1000537305EBE3035B1CDFF834C00CEBC313E9
:104C200007EB060C03F80C2000BF701CC6B246450B
:104C300093DB00BF681CC5B2A9F10100C11700EBEE
:104C40005171012202EBE101A94284DC00BF75E74A
:104C5000C40100202DE9F0410646884615461F464E
:104C6000002409E02A5D04FB0761C8B23B464146C7
:104C7000FFF7D2FE601CC4B2285D0028F2D1BDE867
:104C8000F081000030B585B04CF2503505E06D1E66
:104C90001DB9FFF7FBFD05B030BD1B48FCF790FCCC
:104CA0002028F4D119A103C9CDE90301002411E0A2
:104CB0006421012203A820441346CDE9012100907C
:104CC000002278211048FCF78DFD10B1FFF7DEFDC2
:104CD000E1E7641C062CEBDB4FF480600D490123F7
:104CE0004022CDE9001078210748FCF72DFE30B9AD
:104CF0004FF0FF310848006802F09EFE01E0FFF728
:104D0000C5FD00BFC7E70000D000002021007F22C2
:104D100000070000C40100206C00002011B583B022
:104D20004CF2503405E0601E84B214B9FFF7AEFDBA
:104D30001FBD0B48FCF744FC2028F4D1642001215E
:104D400003AA0B46CDE900210290002278210448F5
:104D5000FCF748FD08B1FFF799FD00BFE8E7000048
:104D6000D000002020BF00BF7047000008B50849F0
:104D70000968C9084FF47A72B1FBF2F1414300911E
:104D800000BF00BF00994A1E00920029F9D108BD5A
:104D900010000020014600BF080900EB800042001F
:104DA00001F00F001044C0B270470146002203E03A
:104DB000521CA1F10A00C1B20A29F9D2100741EA36
:104DC000106070472DE9F04706468846002700240A
:104DD0000025A146F77B747BB57B00BF40E0012C2A
:104DE0000BD0032C09D0052C07D0072C05D0082C9C
:104DF00003D00A2C01D00C2C0CD11F2D01D26D1C1C
:104E00002CE00C2C02D0641C012527E00124012594
:104E10007F1C23E0042C05D0062C03D0092C01D0E4
:104E20000B2C06D11E2D01D26D1C17E0641C012530
:104E300014E0022C12D11C2D01D26D1C0EE01C2D91
:104E400008D1B8B200F053F808B16D1C06E0641C3C
:104E5000012503E01D2D01D1641C012509F1010983
:104E6000C145BCD3F7737473B573EAB2E1B2384687
:104E700000F07CF83073BDE8F08770B5044600257B
:104E8000FCF7F8F9054607E0FCF7F4F9401BB0F52C
:104E90007A7F01D9032070BD2068406800F02000AF
:104EA0000028F1D02068406840F010002168486078
:104EB0000020F0E770B5044600252068406820F027
:104EC000100021684860FCF7D5F9054607E0FCF7BB
:104ED000D1F9401BB0F57A7F01D9032070BD20685D
:104EE000406800F020000028F1D00020F6E70146DD
:104EF00001F0030008B1002070476420B1FBF0F21C
:104F000000FB121008B10120F6E74FF4C870B1FBA6
:104F1000F0F200FB121008B90120EDE70020EBE7EA
:104F20000146002200230868006A82B20868406ACD
:104F300083B243EA0240704730B5014600220023A5
:104F4000002400200D68AD69AAB20D68ED69ACB20D
:104F50000D68AD69ABB29A4205D00D68ED6963F397
:104F60001F45284601E044EA024030BDF0B5044642
:104F70000B460021002504F5FA61032B1BD2C3EB7D
:104F8000C30000EB03100926B0FBF6F01044001D2F
:104F90004618481E06EB90066427B0FBF7F0361A59
:104FA000481EBF00B0FBF7F030440726B0FBF6F711
:104FB00006FB17051AE0C3EBC30000EB031009263C
:104FC000B0FBF6F01044001D084400EB910064268D
:104FD000B1FBF6F6801B4FF4C876B1FBF6F6304411
:104FE000801E0726B0FBF6F706FB1705E8B2F0BDFA
:104FF00070B504460D4600262046FFF73EFF08B177
:1050000001260AE0280C21680862A8B221684862DB
:105010002046FFF74FFF00B10126304670BD70B546
:1050200004460D4600262046FFF727FF08B101265B
:105030000AE0280C21688861A8B22168C86120466E
:10504000FFF738FF00B10126304670BD10B5FFF7FD
:105050004FFBFFF717FE10BD10B500F011F910233C
:105060001A4630211120FFF783FCFFF70BFE10BD1D
:1050700010B508210020FFF73FF9E0B12348807800
:10508000002803DC1F202149887004E01F48807835
:10509000401E1E49887000221C491D48FDF720FD56
:1050A00000F0EEF810231A4630211120FFF760FCC3
:1050B000FFF7E8FD29E008210120FFF71DF9E0B125
:1050C000124880781F2803DD01201049887004E011
:1050D0000E488078401C0D49887000220B490C480E
:1050E000FDF7FEFC00F0CCF810231A463021112009
:1050F000FFF73EFCFFF7C6FD07E008210220FFF79F
:10510000FBF810B106200349087010BD42000020D2
:10511000680100200100002010B5FFF7E9FAFFF751
:10512000B1FD10BD10B5FFF7E3FA00F0A9F815487E
:105130000078012806D002280BD0032810D00428BC
:105140001CD114E010231A4600210846FFF710FC7A
:1051500014E010231A4619460020FFF709FC0DE061
:1051600010231A4621210020FFF702FC06E010233D
:105170001A4630210020FFF7FBFB00BF00BFFFF7FE
:1051800081FD10BD4600002010B500F079F808211F
:105190000020FFF7B1F858B137480078401E364973
:1051A000087008460078002834DC0520087031E0DB
:1051B00008210120FFF7A0F858B12F480078401CC3
:1051C0002D49087008460078052823DB0120087067
:1051D00020E008210220FFF78FF8D8B12648007898
:1051E000012806D0022808D003280AD0042810D1AC
:1051F0000BE00220214908700BE007201F490870CE
:1052000007E008201D49087003E009201B490870C9
:1052100000BF00BF18480078012806D002280DD032
:10522000032814D0042824D11AE010231A460021A0
:105230000846FFF79DFBFFF725FD1AE010231A46ED
:1052400019460020FFF794FBFFF71CFD11E0102327
:105250001A4621210020FFF78BFBFFF713FD08E022
:1052600010231A4630210020FFF782FBFFF70AFDCA
:1052700000BF00BF10BD000046000020010000205C
:1052800008B500221D491E48FDF727FB00221D49D5
:105290001B48FDF7F9FA1C4820231022002100903A
:1052A0000846FFF741FC19A210210020FFF7F0FB90
:1052B00017A220210020FFF7EBFB16A230210020CF
:1052C000FFF7E6FB0F48C07813A3082210210090D7
:1052D0001120FFF7C2FA0B48407811A308222021C1
:1052E00000901120FFF7B9FA064880780CA3082235
:1052F000302100901120FFF7B0FA08BD3F000020D8
:1053000068010020420000206E980008E5B9B40052
:10531000E69C8800E697A500323025303264000014
:10532000253032640000000010B5FFF7E1F9FFF707
:10533000A9FC10BD10B500F0DFF910231A461121A9
:105340001220FFF715FBFFF79DFC10BD10B50821DB
:105350000020FEF7D1FFF0B125480078182803DBC4
:1053600000202349087004E021480078401C2049AF
:10537000087000201E49887000221E48FDF72CFC92
:1053800000F0BAF910231A4611211220FFF7F0FAA3
:10539000FFF778FC2BE008210120FEF7ADFFF0B10C
:1053A00013480078182803DB00201149087004E036
:1053B0000F480078401C0E49087000200C49887086
:1053C00000220C48FDF708FC00F096F910231A465D
:1053D00011211220FFF7CCFAFFF754FC07E0082157
:1053E0000220FEF789FF10B103200349087010BDA9
:1053F00037000020680100200100002010B5FFF7F1
:1054000077F9FFF73FFC10BD10B500F075F91023D8
:105410001A4621211220FFF7ABFAFFF733FC10BD2B
:1054200010B508210020FEF767FF40B32F484078F1
:105430003C280DDB00202D49487008460078401EAE
:10544000087008460078182807DB0020087004E080
:1054500026484078401C2549487000202349887020
:1054600000222348FDF7B8FB00F046F910231A4646
:1054700021211220FFF77CFAFFF704FC35E0082118
:105480000120FEF739FF40B3184840783C280DDB77
:1054900000201649487008460078401C08700846ED
:1054A0000078182807DB0020087004E00F484078D7
:1054B000401C0E49487000200C49887000220C489E
:1054C000FDF78AFB00F018F910231A46212112205B
:1054D000FFF74EFAFFF7D6FB07E008210220FEF7A0
:1054E0000BFF10B103200349087010BD37000020E6
:1054F000680100200100002010B5FFF7F9F8FFF760
:10550000C1FB10BD10B5FFF7BBFE10231A462021CA
:105510001120FFF72DFAFFF7B5FB10BD10B50821DC
:105520000020FEF7E9FEE0B123484078002803DCC4
:105530000C202149487004E01F484078401E1E4955
:10554000487000221C491D48FDF7CAFAFFF798FE73
:1055500010231A4620211120FFF70AFAFFF792FBC9
:1055600029E008210120FEF7C7FEE0B1124840788B
:105570000C2803DD01201049487004E00E484078F3
:10558000401C0D49487000220B490C48FDF7A8FA51
:10559000FFF776FE10231A4620211120FFF7E8F9C5
:1055A000FFF770FB07E008210220FEF7A5FE10B10F
:1055B00006200349087010BD420000206801002049
:1055C0000100002010B5FFF793F8FFF75BFB10BD5B
:1055D00010B5FFF78DF800F08FF81148007801281A
:1055E00004D0022809D0032815D10DE010231A4653
:1055F00000210846FFF7BCF90DE010231A461121DF
:105600000020FFF7B5F906E010231A4621210020FB
:10561000FFF7AEF900BF00BFFFF734FB10BD00007D
:105620003E00002010B500F067F808210020FEF7CA
:1056300063FE58B12E480078401E2D490870084678
:10564000007800282EDC042008702BE008210120BF
:10565000FEF752FE58B126480078401C24490870D5
:105660000846007804281DDB012008701AE0082194
:105670000220FEF741FEA8B11D480078012804D0A1
:10568000022806D003280CD107E00220194908702F
:1056900007E004201749087003E005201549087049
:1056A00000BF00BF12480078012804D002280BD0A8
:1056B00003281BD111E010231A4600210846FFF7EA
:1056C00057F9FFF7DFFA11E010231A4611210020E5
:1056D000FFF74EF9FFF7D6FA08E010231A4621210A
:1056E0000020FFF745F9FFF7CDFA00BF00BF10BD5E
:1056F0003E0000200100002008B50022164917488E
:10570000FDF7EBF8002216491448FDF7BDF81548DF
:1057100020231022002100900846FFF705FA12A26C
:1057200011210020FFF7B4F910A221210020FFF77A
:10573000AFF9094800780EA3082211210090122029
:10574000FFF78BF80448407809A308222121009034
:105750001220FFF782F808BD370000206801002002
:105760003A0000206E980008E697B600E5888600AB
:10577000253032640000000010B5FEF7B9FFFFF7D6
:1057800081FA10BD10B5FFF77BFD102320221946CA
:105790001120FFF7EDF8FFF775FA10BD10B50821DD
:1057A0000020FEF7A9FD98B11A48C078401E19499B
:1057B000C87000221848FDF793F9FFF761FD102328
:1057C000202219461120FFF7D3F8FFF75BFA20E0FB
:1057D00008210120FEF790FD98B10E48C078401CCA
:1057E0000C49C87000220C48FDF77AF9FFF748FD14
:1057F0001023202219461120FFF7BAF8FFF742FACA
:1058000007E008210220FEF777FD10B106200349CA
:10581000087010BD42000020680100200100002037
:1058200010B5FEF765FFFFF72DFA10BD10B5FEF7B6
:105830005FFF00F08FF811480078012804D002289B
:1058400009D0032815D10DE010231A46002108467F
:10585000FFF78EF80DE01023202211210220FFF720
:1058600087F806E01023202221210020FFF780F88E
:1058700000BF00BFFFF706FA10BD00003600002091
:1058800010B500F067F808210020FEF735FD58B18B
:105890002E480078401E2D490870084600780028E0
:1058A0002EDC032008702BE008210120FEF724FDE8
:1058B00058B126480078401C2449087008460078F2
:1058C00004281DDB012008701AE008210220FEF7E1
:1058D00013FDA8B11D480078012802D11C490870A9
:1058E0000EE01A480078022803D1032018490870F6
:1058F00006E016480078032802D1062014490870F3
:1059000012480078012804D002280BD003281BD1AC
:1059100011E010231A4600210846FFF729F8FFF787
:10592000B1F911E01023202211210220FFF720F805
:10593000FFF7A8F908E01023202221210020FFF71B
:1059400017F8FFF79FF900BF00BF10BD3600002019
:105950000100002008B5094810231A4600210090D4
:105960000846FFF7E1F806A211210220FFF790F8A0
:1059700005A221210020FFF78BF808BD6E980008D2
:10598000E697B6E997B40000E697A5E69C9F00006D
:1059900010B5FEF7ADFE00200249088002490880DC
:1059A00010BD0000500000204E00002010B500F097
:1059B0005FF8FFF767F910BD10B5FEF799FE0821F3
:1059C0000020FEF799FC58B112480078012803D155
:1059D00000201049087018E001200E49087014E0FA
:1059E00008210120FEF788FC38B100200949087021
:1059F000094908800949088007E008210220FEF7CC
:105A00007BFC10B10A200649087000F031F8FFF75E
:105A100039F910BD520000204E0000205000002037
:105A2000010000200F480078012819D10E48008895
:105A3000401C0D49088008460088B0F57A7F0FDBCE
:105A40000020088009480088401C08490880084652
:105A500000883C2804DB00200349088003490880B3
:105A60007047000052000020500000204E0000202F
:105A70001CB5064800880649098806A30C22CDE912
:105A8000001014211C20FEF7E8FE1CBD5000002071
:105A90004E000020253032643A2530336400000087
:105AA00010B502F0C7F8012801D001F0E3FD10BDE8
:105AB00000B593B0282109A8FAF7A9FB142104A87E
:105AC000FAF7A5FB002000900190029003900520BA
:105AD00009904FF480300A9000200B9001200C9028
