:020000040800F2
:10000000C82F002099010008BD5A0008D7400008F9
:10001000B95A0008DD0D0008217600080000000034
:1000200000000000000000000000000001010008C6
:10003000F10F00080000000045010008DD70000815
:10004000B3010008B3010008B3010008B3010008C0
:10005000B3010008B301000819120008B301000839
:10006000B30100082F120008B3010008B301000813
:10007000B3010008B3010008B3010008B301000890
:10008000B50F0008B3010008B3010008B301000870
:10009000B3010008B3010008B301000839120008D9
:1000A000B3010008B3010008B3010008B301000860
:1000B00079710008B301000889710008ED4000085B
:1000C000DD400008B3010008B3010008B3010008D7
:1000D000B3010008B3010008B3010008B301000830
:1000E00023120008B3010008B3010008DFF80CD0A8
:1000F00000F0B2FC0048004781820008C82F0020B1
:10010000224B19680868B0E8F00F80F30988BFF344
:100110006F8F4FF0000080F311884EF00D0E704786
:100120000000000006480068006880F3088862B696
:1001300061B6BFF34F8FBFF36F8F00DF00BF00BF0B
:1001400008ED00E0EFF30980BFF36F8F0F4B1A68E3
:1001500020E9F00F106008B54FF0BF0080F3118860
:10016000BFF34F8FBFF36F8F09F01AFA4FF0000003
:1001700080F31188BDE8084019680868B0E8F00FFE
:1001800080F30988BFF36F8F704700BF78000020AD
:10019000EFF3058070470000064880470648004797
:1001A000FEE7FEE7FEE7FEE7FEE7FEE7FEE7FEE727
:1001B000FEE7FEE775710008ED000008202A04DB69
:1001C000203A21FA02F00021704721FA02F3D040D0
:1001D000C2F12002914008431946704740EA0103EA
:1001E0009B0703D009E008C9121F08C0042AFAD2ED
:1001F00003E011F8013B00F8013B521EF9D27047B1
:10020000D2B201E000F8012B491EFBD27047002258
:10021000F6E710B513460A4604461946FFF7F0FF05
:10022000204610BD30B505462A460B4612F8010B94
:1002300013F8014B08B1A042F8D01CB1002802D03D
:100240006D1CF1E7284630BD421C10F8011B002947
:10025000FBD1801A704710B5002200E0521C835C6D
:100260008C5CA34201D1002BF8D1D8B2E1B2401A84
:1002700010BD00000FB400B58DB010A909900B900F
:1002800000914FF0FF300A9000200C900548069036
:10029000054807906A4609A80F9900F039FB0DB090
:1002A0005DF814FB2D0900084B0900082DE9FF5FDC
:1002B0001D464FF0FF3BD5E9014691465F464FF0A2
:1002C0000008A9697F1C01988847296A82468847E7
:1002D0000028F6D1BAF1FF3F0CD024F4C064002E00
:1002E00019DD600614D5BAF12B0F09D0BAF12D0F24
:1002F0000ED103E0584604B0BDE8F09F44F480649A
:10030000A9697F1C01988847761E8246002E02DD6F
:10031000BAF1300F03D0B9F1000F26D032E0A9694D
:10032000761E44F400747F1C019888478246002E94
:1003300005DDBAF1780F06D0BAF1580F03D0B9F144
:10034000000F10D01EE0B9F1000F02D0B9F1100F6C
:1003500018D1A969761E24F400747F1C019888477F
:100360008246102002E0082000E00A20814609E0D1
:1003700008FB0908A969761E44F400747F1C0198E3
:1003800088478246002E05DD4946504600F0ACFA0B
:100390000028EDDAE96901988847A00502D46FF0DA
:1003A0000100A8E7E00725D1600613D5600502D556
:1003B000C8F1000000E0404629680A1D2A6009686B
:1003C000220501D5087015E0220701D5088011E04B
:1003D00008600FE02868011D29600068210502D52A
:1003E00080F8008006E0210702D5A0F8008001E037
:1003F000C0F8008038467EE72DE9FF5FD2E901A70B
:100400004FF00008916999461446DDF838B0464629
:1004100001988847054659EA0B0005D009E0A16913
:10042000761C019888470546216A28468847002897
:10043000F5D1681C03D05FEACA7005D015E04FF013
:10044000FF3004B0BDE8F09F2068011D2160D0F8A6
:1004500000800AE05FEACA7001D108F8015BA16977
:10046000761C7F1E019888470546002F1ADD681C00
:1004700018D0B9F1000F0DD0E81705EBD06042118C
:1004800020F01F0059F822102A1A01209040014242
:10049000E0D107E0BBF1000FDCD1216A2846884794
:1004A0000028D7D0E16901988847BBF1000F07D138
:1004B000002E05DD5FEACA7002D1002188F8001025
:1004C000A068B84203DDBBF1000F03D017B16FF095
:1004D0000100B6E73046B4E72DE9FE4F804681EAD9
:1004E0000300C00F0C46009021F0004123F00045AE
:1004F000B8EB0200A94105D24046214690461C4671
:100500000B46024623F00040104347D0270DC7F3A7
:100510000A00C3F30A510290401A019040286BDA96
:10052000C3F3130040F4801B0098924620B10023CF
:10053000D2EB030A63EB0B0B01985946C0F1400262
:10054000504600F0B0F906460D4650465946019A0D
:1005500000F0B8F910EB08006141002487EA11525D
:1005600084EAE7731A4340D0009A62B3019A012AE1
:100570004FEA075215DC001B61EB02014FF000420D
:1005800002EA0752CDE90042001C41F580113246D3
:100590002B4600F0FAF903B0BDE8F08F4046214643
:1005A000F9E7001B61EB0201001C41F58013001804
:1005B0005B412018A2F5001747EB030140EAD57014
:1005C000B6196D4111E06D084FEA360645EAC0756F
:1005D0004FEA0752001B61EB0201001C41F580113C
:1005E00049084FEA30000019514132462B4603B00A
:1005F000BDE8F04F00F0BAB9009801224000002396
:10060000D0EB020263EBE073009821464FEAE074FE
:10061000B8EB000061EB0401E9E783F000435BE71E
:1006200081F0004158E72DE9FE4F81EA030404F010
:10063000004421F0004100944FF0000B23F00043F0
:1006400050EA01045ED052EA03045BD0C3F30A54BB
:10065000C1F30A552C44A4F2F3340194A0FB0254D4
:10066000C1F3130141F48011C3F3130343F4801366
:1006700001FB024400FB034E840A970A44EA8154BA
:1006800047EA8357A4FB076802958D0A05FB078597
:100690004FEA932C04FB0C542705029D4FEA0658A1
:1006A00047EA1637B5EB08056EEB070C870E920E7E
:1006B00047EA811742EA8312A7FB0201B6EB0B015E
:1006C00064EB00042B0D43EA0C335E1844EB1C5022
:1006D000DA465146E7FB0201C5F313044FEA0B3338
:1006E00043EA14534FEA0432019C43EA0603A4F19F
:1006F0000C040294009CCDE900B400F046F903B06C
:10070000BDE8F08F00200146F9E72DE9F04D81EAC0
:10071000030404F0004B21F0004514464FF0000A9A
:1007200023F0004150EA050220D054EA01021DD016
:10073000C5F30A570246C5F31303C1F31300C1F30F
:100740000A5640F4801543F48013A7EB0608101BEB
:10075000D64608F2FD3873EB050002D308F1010814
:1007600001E092185B41B8F1000F03DA0020014666
:10077000BDE8F08D00204FF48011064684460EE05F
:10078000171B73EB050705D3121B63EB0503064329
:100790004CEA010C49084FEA300092185B4150EADC
:1007A0000107EDD152EA030012D082EA040083EA85
:1007B0000501084305D0101BAB4106D201220023DE
:1007C00006E000224FF0004302E06FF001025310F8
:1007D0001AEB06004CEB085110EB0A0041EB0B0141
:1007E000BDE8F04D00F0C2B830B5041E71F1000450
:1007F00004DB4FF00044404264EB0101141E73F12E
:10080000000405DB1C464FF00043524263EB040337
:10081000994208BF904230BD30B50B4601460020DA
:100820002022012409E021FA02F59D4205D303FAB2
:1008300002F5491B04FA02F52844151EA2F1010233
:10084000F1DC30BD2DE9F05F0546002092469B4665
:1008500088460646814640241BE0284641464746D6
:100860002246FFF7ABFC53465A46C01A914110D3BB
:1008700011461846224600F016F82D1A67EB0108BB
:100880004F4622460120002100F00DF817EB000929
:100890004E41201EA4F10104DFDC484631462A46C1
:1008A0004346BDE8F09F202A04DB203A00FA02F11B
:1008B000002070479140C2F1200320FA03F319434E
:1008C00090407047202A06DBCB17203A41FA02F00D
:1008D00043EAE07306E041FA02F3D040C2F120029D
:1008E00091400843194670473A2800D2303820F02A
:1008F0002002412A01D3A2F13700884201D34FF0F0
:10090000FF30704702681144137801601846704741
:10091000D1600449516104491162002111611146FD
:1009200000F0B2B8050900087D0A0008426842B12B
:10093000016811F8013B23B1521EC0E900121846AC
:1009400070470121C160881E704742685AB1C36870
:10095000016843B983688B4205D0491E521CC0E927
:100960000012002070474FF0FF30704710B5141E82
:1009700073F1000408DA401C41F1000192185B4158
:100980001A4301D120F0010010BD2DE9F04D92462F
:100990009B4611B1B1FA81F202E0B0FA80F2203246
:1009A0009046FFF780FF04460F4640EA0A0041EAFE
:1009B0000B0153465A46084313D0114653EA01002F
:1009C00019D0C8F140025046FFF7F8FB05460E4625
:1009D000504659464246FFF766FF084305D00120BE
:1009E00004E020463946BDE8F08D0020054346EA84
:1009F000E0762C4337430A986305E40AA0EB08002D
:100A00000022FD0A44EA47540A3002D5002001467C
:100A1000E9E7010510196941DDE908450019694157
:100A2000BDE8F04DA2E7C1F30A52C1F3130140F251
:100A3000FF3341F480119A4202DA002001467047E8
:100A400040F233439A42A2F2334202DC5242FFF7B1
:100A5000B5BBFFF728BF0000064C074D06E0E06875
:100A600040F0010394E8070098471034AC42F6D3F5
:100A7000FFF740FB64C6000884C60008C0B24FF40C
:100A8000F05100F097B900002DE9F34F8BB04FF013
:100A9000000801F10C000C464FF0010B46460DF129
:100AA000080A01906269012101989047051E2DD026
:100AB000252D2CD0216A8847C0B162690121019897
:100AC0009047216A88470028F7D1411E6269019842
:100AD000904700E0761CA1690B988847216A8847F7
:100AE0000028F7D1E1690B988847DBE7A1690B98EB
:100AF00088470746A84201D1761CD3E7E1690B98E5
:100B000088477F1C02D1B8F1000F6FD046E1002763
:100B100062693D463946019890472A2804D16269A6
:100B20000121019890470125DFF884926269012133
:100B300001989047A0F130010A290AD24F45E5DC1F
:100B400007EB870100EB4107303FDFD445F010058C
:100B5000ECE7E90601D46FF000476C280AD04C2876
:100B600014D0682815D06A280DD074281CD07A2893
:100B70001AD01DE062690121019890476C2802D0CB
:100B800045F0040514E045F002050DE045F02005B0
:100B90000AE06269012101989047682802D045F077
:100BA000080505E045F40065626901210198904758
:100BB000C4E9015765283DD019DC58287AD00CDCEF
:100BC000452837D004DC252826D0412831D131E012
:100BD00046282FD047282CD12CE05B2877D06128DD
:100BE00028D063287CD0642823D15AE0D0E06F2835
:100BF00048D008DC66281DD067281BD0692821D082
:100C00006E2816D127E0702845D0732868D0752843
:100C100047D078280DD14DE0A1690B98884705464B
:100C200025283FF469AFE1690B9888476D1C3FF4B4
:100C30006AAFB3E023466A466FF001000B99AFF349
:100C400000809EE045F040006060A80723464FF01A
:100C5000000236D43EE0E8077FF447AF2068011D6C
:100C600021600068290501D506701BE7290701D519
:100C7000068017E7A90703D5F117C0E9006111E75E
:100C800006600FE745F040006060A80723464FF07C
:100C9000080216D41EE040F60E0125EA010060604D
:100CA00016E045F040006060A80723464FF00A02B6
:100CB00007D40FE045F040006060A80708D5234640
:100CC00010226FF001000B99AFF3008059E007E0AC
:100CD000234610226FF001000B99FFF7E7FA50E06E
:100CE0004FF000094F464B46632802D05B2806D0E0
:100CF00040E0E80601D40120A06001273AE06269E3
:100D00000121019890475E2805D14FF001096269E1
:100D1000494601989047216939B900210A4653464E
:100D200043F82120491C0829FADBB0B3216969B9CD
:100D3000C11700EBD16253110AEB830122F01F02AD
:100D4000821A01200B68904003430B606269012105
:100D5000019890475D28E8D1B9F1000F09D0002033
:100D6000514651F82020D24341F82020401C082849
:100D7000F7DB02AB224600976FF001000B99FFF7FB
:100D80003BFB00280CDA401C08D1BBF1000F05D05A
:100D90004FF0FF300DB0BDE8F08FFFE74046F9E7B8
:100DA000E90701D108F1010806444FF0000B79E68C
:100DB000CCCCCC0C7F2801D9002208E0064A02EBFB
:100DC0005002C007127800D1120902F00F02012070
:100DD00090400840704700005CC4000800BFFEE778
:100DE00010B504F06DFE05F03FF910BD704700002E
:100DF00008B504F065FE58A20021084605F03AF84F
:100E000057A21421002005F035F857A22821002010
:100E100005F030F8564810231A46002100905A2059
:100E200005F074F8534810231A460021009046201C
:100E300005F06CF850485149097800EB411000F179
:100E40000F020021232005F015F84D48007800EB33
:100E5000C00101EB00104B49084400F10F022821AA
:100E6000232005F007F80823474A1421232005F022
:100E7000E3F8464810231A4614210090342005F068
:100E800045F810231A4600215A2004F063FF40A2BF
:100E900000215A2004F0EEFF3FA214215A2004F052
:100EA000E9FF3FA228215A2004F0E4FF022100209C
:100EB00004F0DAFA58B13C480078401E3A4908700C
:100EC0000846007800281BDC0320087018E0022187
:100ED000012004F0C9FA58B133480078401C324967
:100EE00008700846007804280ADB0120087007E033
:100EF0000221084604F0B8FA10B10D202B49087001
:100F000029480078012804D002280CD003281ED1DB
:100F100013E00020264908701023202200215A20C7
:100F200004F018FF13E0012021490870102320224B
:100F300014215A2004F00EFF09E002201C49087019
:100F40001023202228215A2004F004FF00BF00BFF4
:100F500005F08AF808BD0000E59F8EE5B882000024
:100F6000E6B8A9E5BAA60000E5A4A9E6B094000099
:100F70008EBC00086EBC0008B0C3000872000020E0
:100F80007300002068C20008A40A002046C20008BE
:100F9000E8B4B5E998B30000E58C97E4BAAC00007A
:100FA000E981B5E4B9890000760000200100002045
:100FB0007400002010B5024800F0BAFB10BD00001C
:100FC0004C01002030B590F840500124AC40C56B76
:100FD0006C60046863604468102C04D10468A260EB
:100FE0000468E16003E00468A1600468E26030BD69
:100FF0007047000070B507A42046FFF725F985B2B9
:10100000094B0A4A2946204600F0A8F805F0A2F844
:1010100070BD000041542B434950534E5450544925
:101020004D453F0D0A000000700000207C060020A6
:1010300070B52AA42046FFF707F985B22B4B2C4A3E
:101040002946204600F08AF82AA42046FFF7FCF83B
:1010500085B2264B264A2946204600F07FF830A468
:101060002046FFF7F1F885B2204B214A2946204659
:1010700000F074F82EA42046FFF7E6F885B21B4B6B
:101080001B4A2946204600F069F82D482D49097869
:1010900000EB4110C4692046FFF7D6F885B2134B28
:1010A000134A2946204600F059F805F0F1F826A425
:1010B0002046FFF7C9F885B20C4B0D4A2946204659
:1010C00000F04CF821A42046FFF7BEF885B2074B8C
:1010D000074A2946204600F041F870BD41542B4391
:1010E00049504D55583D300D0A0000007000002059
:1010F0007C06002041542B43495053544152543DE7
:1011000022544350222C226170692E73656E6976D9
:10111000657273652E636F6D222C38300D0A0000E6
:1011200041542B4349504D4F44453D310D0A000079
:1011300041542B43495053454E440D0A00000000D2
:10114000B0C30008740000202B2B2B0041542B430C
:101150004950434C4F53450D0A0000002DE9F84318
:1011600005460E46144698464FF480612046FFF728
:101170004EF86423324629461F4802F04DFF1FA156
:101180002846FFF74FF820B91DA12846FFF74AF877
:1011900050B14FF4FA6043464FF48062214600900C
:1011A000154802F028FE22E0002700BF4FF47A70B5
:1011B00043464FF48062214600900F4802F01BFE28
:1011C000781C87B20A2F00DB0FE00EA12046FFF744
:1011D00029F850B90CA12046FFF724F828B90CA132
:1011E0002046FFF71FF80028E0D000BF00BF6420B2
:1011F00000F0EEFBBDE8F883EC0100202B2B2B0068
:10120000474554004F4B00004552524F52000000DA
:10121000726561647900000010B5012000F0BAFC2D
:1012200010BD10B54FF4006000F0B4FC10BD10B557
:10123000082000F0AFFC10BD10B54FF4807000F036
:10124000A9FC10BD72B600BFFEE700001CB500226D
:1012500002211E2008F00CFA1B490860032200211D
:10126000012008F005FA19490860194801231A46B7
:101270001421009017A008F00DFF194908601948C3
:10128000022300224EF66021009017A008F002FF12
:1012900018490860184802210023CA01CDE900104E
:1012A00016A1194808F0A0FC08F0CAFC044600206A
:1012B00003462246012100900E48006808F044FFD2
:1012C00008F01AF91CBD0000580000206000002042
:1012D000F95400084B65795F54696D657200000030
:1012E00064000020F95700084C6F775F54696D6502
:1012F0007200000068000020540000204755495F3C
:101300005461736B000000006914000810B50446B6
:101310000F2C33D2DFE804F032080B0E1114171A29
:101320001D202326292C2F0006F006F826E005F0C4
:1013300087FD23E005F056FC20E005F005FB1DE0ED
:1013400005F06CFB1AE005F0F7F917E005F024FD55
:1013500014E005F0E1FB11E005F088F90EE006F07D
:10136000A5FF0BE005F024FE08E004F0B7F905E066
:1013700006F0CAF902E0FFF733FD00BF00BF10BD61
:1013800010B504460F2C33D2DFE804F032080B0E00
:101390001114171A1D202326292C2F0005F0F0FF09
:1013A00026E005F07DFD23E005F04CFC20E005F093
:1013B000DDFA1DE005F044FB1AE005F0F5F917E051
:1013C00005F0FCFC14E005F0B9FB11E005F060F954
:1013D0000EE006F077FF0BE005F00CFE08E004F0ED
:1013E00083F905E006F0BAF902E0FFF701FD00BF5E
:1013F00000BF10BD10B504460F2C33D2DFE804F057
:1014000032080B0E1114171A1D202326292C2F0029
:1014100005F098FF26E005F019FD23E005F0E8FB54
:1014200020E005F097FA1DE005F0FEFA1AE005F05D
:1014300089F917E005F0B6FC14E005F073FB11E044
:1014400005F01AF90EE006F037FF0BE005F0C6FDD7
:1014500008E004F0AFF905E006F064F902E0FFF7F8
:10146000C5FC00BF00BF10BD04F02AFB53A2102131
:10147000202004F0FFFC082354A22421282004F09B
:10148000DBFD04F0F1FD06F0CDF8002512E04FF48D
:101490007A7007F0CDFFFFF7ADFD4FA15048FEF782
:1014A000C1FE28B94FA14E48FEF7BCFE00B103E0D3
:1014B000681CC5B20F2DEADB00BF06F007FA04F086
:1014C000FFFA04F0D1FD01204A4908704A4908702A
:1014D00048480078FFF78EFF6EE048480078012802
:1014E00003D1142007F0A4FF43E045480078012809
:1014F00001D1142401E04FF47A7422464149424854
:10150000006808F047FA012833D000203D490880E0
:101510003B48007868BB374800780D2829D03B4805
:101520000068401C3949086008460068B0F5616FE2
:101530001FD306F077F8002612E04FF47A7007F018
:1015400077FFFFF757FD24A12548FEF76BFE28B96A
:1015500024A12348FEF766FE00B103E0701CC6B26A
:101560000F2EEADB00BF06F0B1F900202749086022
:1015700000BF04F025F907F0D3FD07F0B3FD1D48C7
:1015800000781D490978884203D11A480078FFF78E
:10159000F7FE184800781849097888420BD015489A
:1015A0000078FFF7B3FE14480078FFF723FF1248D6
:1015B00000781049087000BF8FE70000E6ADA3E592
:1015C0009CA8E8BF9EE68EA50000000057692D4646
:1015D000692E2E2E00000000313937300000000047
:1015E0007C0600202B434950534E545054494D45DE
:1015F0003A00000000000020010000204800002008
:10160000500000205C000020580000206C000020EA
:1016100070B50446002594F82100022803D0042068
:10162000A063012548E02068006820F00E002168D2
:1016300008602068006820F00100216808601F49E8
:101640002068884201D1012026E01C49143120681D
:10165000884201D110201FE01849283120688842B3
:1016600001D1801518E015493C312068884201D12C
:10167000801411E0114950312068884202D14FF4A2
:10168000803009E00D4964312068884202D14FF46E
:10169000801001E04FF0807008490839486001204F
:1016A00084F8210000BF002084F8200000BF606B98
:1016B00010B12046616B8847284670BD0800024083
:1016C000014609B9012070470868006820F0010050
:1016D0000A68106000200A6810600A6850600A6892
:1016E00090600A68D0600F4A0868801A1422B0FB24
:1016F000F2F0800008640B480838C86391F8402075
:1017000001209040CA6B506000208862C862086364
:101710004863886381F8210000BF81F8200000BF82
:1017200000BFD0E708000240014691F82100704751
:1017300070B50446E06B05682068066894F84010B0
:10174000042088402840002846D006F004000028E5
:1017500042D02068006800F0200028B920680068A6
:1017600020F004002168086057492068884201D1B0
:10177000042027E0544914312068884201D14020D8
:1017800020E0514928312068884201D1001519E034
:101790004D493C312068884202D14FF4804011E02D
:1017A000494950312068884202D14FF4802009E035
:1017B000454964312068884202D14FF4800001E03D
:1017C0004FF08060404908394860E06A00287AD0CC
:1017D0002046E16A884776E094F84010022088406D
:1017E0002840A0B306F0020088B32068006800F02B
:1017F000200040B92068006820F00A0021680860D5
:10180000012084F8210030492068884201D102205B
:1018100028E02D4914312068884201D1202021E0A0
:10182000294928312068884201D140151AE026490B
:101830003C312068884202D14FF4005012E0224926
:1018400050312068884203D14FF400300AE017E09D
:101850001D4964312068884202D14FF4001001E034
:101860004FF0007018490839486000BF002084F824
:10187000200000BFA06A30B32046A16A884722E05A
:1018800094F84010082088402840E0B106F0080095
:10189000C8B12068006820F00E002168086094F844
:1018A000401001208840E16B48600120A06384F86B
:1018B000210000BF002084F8200000BF206B10B181
:1018C0002046216B884770BD080002400146002277
:1018D00009B901207047164B0868C01A1423B0FBE1
:1018E000F3F08000086412480838C863022081F8C9
:1018F00021000868026843F6F0708243D1E90103D1
:101900001843CB6818430B6918434B6918438B691C
:101910001843CB69184302430868026000208863BB
:10192000012081F82100002081F8200000BFD1E7CC
:10193000080002402DE9F04104460D4616461F46B8
:101940004FF0000800BF94F82000012802D10220C7
:10195000BDE8F081012084F8200000BF94F8210048
:1019600001282CD1022084F821000020A0632068E7
:10197000006820F00100216808603B463246294695
:101980002046FFF71FFBE06A30B12068006840F096
:101990000E00216808600BE02068006820F0040059
:1019A000216808602068006840F00A00216808602B
:1019B0002068006840F001002168086006E000BF70
:1019C000002084F8200000BF4FF002084046BFE727
:1019D00070B5044600F08AFA06462546681C10B128
:1019E00004480078054400BF00F080FA801BA8423C
:1019F000FAD370BD0C0000202DE9F04102460B46E1
:101A0000002080E00127874007EA0301002979D000
:101A1000404F4FEA900C57F82C4087074FEA177C4D
:101A20000F2707FA0CF73C403B4FBA4201D1002781
:101A30000FE03A4FBA4201D101270AE0384FBA42CB
:101A400001D1022705E0374FBA4201D1032700E058
:101A500004274FEA807C4FEA1C7C07FA0CF7A74268
:101A600031D1314F3F688F43DFF8BCC0CCF80070F4
:101A70000CF104073F688F430CF1040CCCF80070A4
:101A8000294F0C373F688F43DFF89CC00CF10C0CDA
:101A9000CCF80070ACF104073F688F43ACF1040C44
:101AA000CCF8007087074FEA177C0F2707FA0CF471
:101AB000184F4FEA900C57F82CC02CEA040C4FEA50
:101AC000900847F828C0FF2901D8174600E0171DE5
:101AD0003D46FF2901D8870002E0A0F10807BF00BA
:101AE0003E462F684FF00F0C0CFA06FC27EA0C0755
:101AF0004FF0040C0CFA06FC47EA0C072F60D7687D
:101B00008F43D760401C23FA00F7002F7FF47AAF91
:101B1000BDE8F0810800014000080140000C0140D0
:101B20000010014000140140000401407CB504464F
:101B3000B4F5807F06D0B4F5006F03D0082C01D037
:101B4000012C20D110480078E8B901200E49087016
:101B50000020019008F07AF80546002001AB2A46E3
:101B6000062100900948006808F0CEFA00BF0198ED
:101B700038B14FF0805006490860BFF34F8FBFF374
:101B80006F8F00BF00BF7CBD1E00002064000020DE
:101B900004ED00E010B5044604480068204020B180
:101BA000024804602046FFF7C1FF10BD1404014045
:101BB0002DE9F8470346002294466EE14FF00108F4
:101BC00008FA02F4D1F8008008EA0400A0427DD1AE
:101BD000DFF8DCA2D1F80480A8EB0A09D0453AD09E
:101BE00014DCB8F1030F50D009DCB8F1000F31D08C
:101BF000B8F1010F1CD0B8F1020F49D120E0B8F1C3
:101C0000110F18D0B8F1120F42D11EE0B9F5881F9C
:101C100025D006DCB9F5803F20D0B9F5801F37D13B
:101C20001AE0B9F5001F18D0B9F5041F30D117E03C
:101C3000D1F80CC02DE0D1F80C8008F1040C28E09C
:101C4000D1F80C8008F1080C23E0D1F80C8008F1E1
:101C50000C0C1EE000BF00BF00BF00BF00BF00BFF4
:101C6000D1F80880B8F1000F02D14FF0040C0BE05E
:101C7000D1F80880B8F1010F03D14FF0080C1C61B6
:101C800002E04FF0080C5C6103E04FF0000C00E054
:101C900000BF00BFFF2801D8984601E003F1040807
:101CA0004646FF2802D84FEA820803E0A2F108085E
:101CB0004FEA88084746D6F800804FF00F0909FA26
:101CC00007F928EA09080CFA07F900E088E048EA71
:101CD0000908C6F80080D1F8048008F08058B8F1EF
:101CE000805F7DD100BFDFF8CC81D8F8188048F044
:101CF0000108DFF8C091C9F81880C846D8F81880E4
:101D000008F00108CDF8008000BF00BF4FEAB938E5
:101D10004FEA920958F829504FEA82784FEA187929
:101D20004FF00F0808FA09F825EA0805DFF888815E
:101D3000434502D14FF0000816E0DFF880814345AB
:101D400002D14FF001080FE0DFF87481434502D162
:101D50004FF0020808E0DFF86C81434502D14FF0F4
:101D6000030801E04FF004084FEA82794FEA19793D
:101D700008FA09F848EA0505DFF84C814FEA9209AC
:101D800048F82950D1F8048008F48018B8F5801F6D
:101D90000AD1DFF83881D8F8008048EA0008DFF877
:101DA0002C91C9F8008009E0DFF82081D8F8008084
:101DB00028EA0008DFF81491C9F80080D1F80480FF
:101DC00008F40018B8F5001F10D1DFF8008108F101
:101DD0000408D8F8008048EA0008DFF8F09000E036
:101DE0005AE009F10409C9F800800DE0DFF8DC8051
:101DF00008F10408D8F8008028EA0008DFF8CC9041
:101E000009F10409C9F80080D1F8048008F4003809
:101E1000B8F5003F0ED1DFF8B480A8F10408D8F877
:101E2000008048EA0008DFF8A490A9F10409C9F885
:101E300000800DE0DFF89480A8F10408D8F8008055
:101E400028EA0008DFF88490A9F10409C9F80080A5
:101E5000D1F8048008F48038B8F5803F0ED1DFF85F
:101E60006C80A8F10808D8F8008048EA0008DFF87C
:101E70005C90A9F10809C9F800800DE0DFF84C80FA
:101E8000A8F10808D8F8008028EA0008DFF83C909C
:101E9000A9F10809C9F80080521CD1F8008028FA7D
:101EA00002F8B8F1000F7FF489AEBDE8F8870000B2
:101EB000000011100010024000080140000C014019
:101EC00000100140001401400800014008040140D6
:101ED000024693680B400BB1012000E000207047E0
:101EE0000AB1016101E00B04036170470148006819
:101EF00070470000040000207047704710B504468A
:101F00000CB9012010BD242084F83D002068006831
:101F100020F0010021680860204600F05BFC0020F2
:101F2000206484F83D00206384F83E0000BF84F8FC
:101F30003C0000BF00BFE5E72DE9F84F04462068EC
:101F400047692068D0F80480002594F83E90C7F3D4
:101F5000002070B1C8F3002058B145F001056FF4BE
:101F60008070216848612068006840F40040216862
:101F70000860C7F3402040B1C8F3002028B145F005
:101F800002056FF4007021684861C7F3802070B3C8
:101F9000C8F3002058B3CA46B4F82AB094F83D609C
:101FA000206B0090BAF1200F0FD1BBF1000F0CD1C4
:101FB000212E06D0292E04D0282E06D100982128C3
:101FC00003D1204602F0CAFF11E06FF4806021685F
:101FD000486145F00405B9F1100F02D0B9F1400F86
:101FE00005D12068006840F4007021680860C7F3DC
:101FF000C02040B1C8F3002028B145F008056FF4B7
:102000000060216848612DB1206C2843206420467F
:1020100002F0CAF9BDE8F88F2DE9F04705464FF008
:10202000000928684668D5F82CA095F83E7095F808
:102030003D80102F01D0402F75D12868D0F818901E
:102040002868446904F0010060B9BAF52A0F02D08B
:10205000BAF12A4F01D1012000E00020012801D16E
:10206000BDE8F08704F0010048B1C6F3402030B16C
:10207000284602F043F8284602F0B6FDB7E0C4F364
:10208000C00030B1C6F3402018B1284602F057FC1A
:10209000ADE0C4F3400030B1C6F3402018B128468B
:1020A00002F062FCA3E0C9F3800040B328684068F6
:1020B00000F40060B0F5006FE0D0C4F3C01048B188
:1020C000C6F3802030B1C4F3800018B9284602F06E
:1020D000CAFB8CE0C4F380000028CFD0C6F34020B8
:1020E0000028CBD0B8F1210F03D1284602F06BFBBA
:1020F0007DE0402F7BD1284602F0C5FD77E02868BF
:10210000406800F40060B0F5006F70D0C4F3801038
:1021100050B1C6F3802038B1C4F3800020B92846FE
:1021200002F0CFFA63E00BE0C4F3800000285ED039
:10213000C6F3402000285AD0284602F02AFA56E07A
:10214000286C10B12868446904E02868D0F8189019
:1021500028684469C4F3400060B1C6F3402048B128
:10216000286C10B12868D0F818904946284602F02B
:10217000BDFE3CE0C4F3001030B1C6F3402018B1FE
:10218000284602F03FFF32E0B8F1210F02D0B8F14B
:10219000290F16D1C4F3C01048B1C6F3802030B166
:1021A000C4F3800018B9284602F07DFE1FE0C4F396
:1021B0008000E0B1C6F34020C8B1284602F066FEB8
:1021C00015E0C4F3801048B1C6F3802030B1C4F3E9
:1021D000800018B9284602F036FE08E0C4F38000FB
:1021E00028B1C6F3402010B1284602F01FFE00BF00
:1021F00036E7000038B504460C492068884213D100
:102200000020009069460A48006807F080FB00BF84
:10221000009838B14FF0805006490860BFF34F8FE7
:10222000BFF36F8F00BF00BF38BD000000540040F7
:102230006000002004ED00E0014691F83D00704789
:1022400070B504460CB9012070BD94F83D0028B962
:10225000002084F83C00204600F0E0FA242084F8B6
:102260003D002068006820F00100216808602068B7
:10227000006840F40040216808602068006820F48D
:1022800000402168086000F0B1FE05465C496068C6
:10229000884206D85B48854201D2012007E0002031
:1022A00005E05948854201D2012000E000200128C4
:1022B00000D1C9E75548B5FBF0F62068406820F02A
:1022C0003F003043216848604D496068884201D82A
:1022D000701C07E04FF4967070434FF47A71B0FBB6
:1022E000F1F0401C2168096A21F03F010843216890
:1022F000086243496068884214D8681E61684900D2
:10230000B0FBF1F0401CC0F30B00042801D2042004
:102310003DE0681E61684900B0FBF1F0401CC0F36D
:102320000B0034E0A06838B9681E616801EB410118
:10233000B0FBF1F0401C0AE0681E616801EBC102CD
:1023400002EB0111B0FBF1F0401C40F48040C0F3FF
:102350000B0008B901201AE0A06848B9681E61683E
:1023600001EB4101B0FBF1F0401CC0F30B000CE0AD
:10237000681E616801EBC10202EB0111B0FBF1F0D4
:10238000401CC0F30B0040F4804040F40040216842
:10239000C9694CF6FF72914308432168C861D4E9CA
:1023A000070108432168096821F0C001084321683A
:1023B0000860D4E9031008432168896848F2FF32B5
:1023C0009143084321688860D4E9050108432168E6
:1023D000C96821F0FF0108432168C86020680068CF
:1023E00040F001002168086000202064202084F86B
:1023F0003D000020206384F83E0000BF24E7000079
:10240000A086010080841E0000093D0040420F00AC
:10241000704770477047704738B504460C492068CC
:10242000884213D10020009069460A48006807F0EE
:102430006EFA00BF009838B14FF08050064908602E
:10244000BFF34F8FBFF36F8F00BF00BF38BD0000D9
:10245000005400406000002004ED00E02DE9FC5F26
:1024600004460F4690469946DDE90CAB0E9EFFF7F9
:102470003DFD054694F83D0020287DD11923012219
:102480004D492046009502F0B6FE10B10220BDE88D
:10249000FC9F00BF94F83C00012801D10220F6E720
:1024A000012084F83C0000BF2068006800F00100B3
:1024B00028B92068006840F00100216808602068A1
:1024C000006820F4006021680860212084F83D0045
:1024D000402084F83E0000202064C4F824A0A4F822
:1024E0002AB0608D20853548E0624B464246394629
:1024F0002046CDE9006502F029FC08B10120C6E7BD
:1025000031E02A463146204602F07AFF50B1206C75
:10251000042805D12068006840F400702168086034
:102520000120B4E7606A007821680861606A401C95
:102530006062208D401E2085608D401E6085206871
:102540004069C0F3800070B1208D60B1606A00788E
:1025500021680861606A401C6062208D401E2085F1
:10256000608D401E6085208D0028CAD12A463146E4
:10257000204602F00DFE00E01CE050B1206C042863
:1025800005D12068006840F40070216808600120CF
:102590007DE72068006840F4007021680860202012
:1025A00084F83D00002084F83E0000BF84F83C0021
:1025B00000BF6CE702206AE7020010000000FFFF86
:1025C0002DE9FE4F04460E4617469846DDE90C9A63
:1025D00000200290FFF78AFC834694F83D002028F3
:1025E00075D1784800681921B0FBF1F04FF47A7189
:1025F000B0FBF1F000EBC00101EB0010029000BF56
:102600000298401E0290029870B90020206320209A
:1026100084F83D00002084F83E00206C40F020004B
:1026200020640220BDE8FE8F20688069C0F340006E
:102630000028E5D100BF94F83C00012801D1022018
:10264000F0E7012084F83C0000BF2068006800F03B
:10265000010028B92068006840F001002168086086
:102660002068006820F4006021680860212084F858
:102670003D00402084F83E0000202064C4F82490EF
:10268000A4F82AA0608D20854F48E0626664A764A4
:10269000C4F84C8000202065208D00287ED0606B1F
:1026A000B0B14A48616B88624948616B0863002099
:1026B000616BC862616B4863238DD4F800C00CF174
:1026C0001002616A606BFFF735F9054611E076E0AC
:1026D000202084F83D00002084F83E00206C40F06B
:1026E0008000206400BF002084F83C0000BF01206F
:1026F00098E7EDBB232043463A463146CDE9000B2F
:10270000204602F023FBB8B1606BFEF781FF05465F
:102710000020616B88622068006820F48060216876
:1027200008600020208560852068006820F0010096
:1027300021680860012075E700BF00200190206833
:102740004069019020688069019000BF00BF00BF10
:10275000002084F83C0000BF2068406840F480708E
:10276000216848602068406840F40060216801E00A
:1027700003E013E04860002054E7202084F83D0087
:10278000002084F83E00206C40F01000206400BF60
:10279000002084F83C0000BF012043E7202084F89B
:1027A0003D00002084F83E00206C40F04000206492
:1027B00000BF002084F83C0000BF012032E7022067
:1027C00030E70000100000200000FFFF5742000823
:1027D0001142000810B504460D492068884216D100
:1027E0000C48C06920F400100A49C86140210A4819
:1027F000FFF702F980210848FFF7FEF8606BFEF74B
:102800005FFF1F2000F018F9202000F015F910BD1F
:102810000054004000100240000C014010B586B08A
:102820000446002002900390049005902A492068F5
:1028300088424ED100BF2948806940F008002749EE
:1028400088610846806900F00800019000BF00BF61
:10285000C0200290122003900320059002A9204876
:10286000FFF7A6F900BF1D48C06940F400101B49DE
:10287000C8610846C06900F40010019000BF00BFA5
:1028800018481949086010204860002116488160E6
:102890008021C1600021016141618161C161FFF757
:1028A00015F808B1FEF7CEFC00BF0F486063446224
:1028B00000BF002207211F2000F0F0F81F2000F0C9
:1028C000DDF800220721202000F0E8F8202000F0A9
:1028D000D5F806B010BD00000054004000100240C2
:1028E000000C01406C0002404C0100207047704712
:1028F00003480068034909780844014908607047A3
:10290000040000200C00002010B50848006840F0CA
:10291000100006490860032000F0FEF80F2000F0C8
:1029200007F800F05FF8002010BD00000020024012
:102930002DE9F04188B004460027B846002600BFC4
:102940002348C06940F004002149C8610846C069B5
:1029500000F00400019000BF00BF02A903A800F02E
:102960001DFB069F1FB900F041FB054602E000F089
:102970003DFB45001748B5FBF0F0A0F101081648F3
:102980001649086040F2E7311448C160C0F804807D
:10299000002101618160816101F02CF8064696B941
:1029A0000E4801F07BF806466EB91E2000F066F86E
:1029B000102C07D2002221461E2000F06FF8084894
:1029C000046000E00126304608B0BDE8F081000058
:1029D0000010024040420F00000800403402002076
:1029E0000800002008B500BF1148806940F00100D0
:1029F0000F4988610846806900F00100009000BF1F
:102A000000BF00BF0846C06940F08050C86108465A
:102A1000C06900F08050009000BF00BF00BF0549B2
:102A2000486820F0E06040F00070486000BF08BDDA
:102A3000001002400000014010B501460846002881
:102A400017DB00F01F0301229A400B4B440943F8A7
:102A5000242000BF00BF00BFBFF34F8F00BF00BFE7
:102A600000BF00BF00BF00BFBFF36F8F00BF00BF3C
:102A700000BF00BF10BD000080E100E00146084635
:102A8000002809DB00F01F0301229A4043099B0044
:102A900003F1E023C3F8002100BF70472DE9F05F88
:102AA00080460D461646002704F03CFF074639468F
:102AB0002A46334601F00700C0F1070ABAF1040FB5
:102AC00002D94FF0040A01E0C0F1070AD14600F133
:102AD000040ABAF1070F02D24FF0000A01E0A0F198
:102AE000030AD4464FF0010A0AFA09FAAAF1010AC8
:102AF0000AEA020A0AFA0CFA4FF0010B0BFA0CFB75
:102B0000ABF1010B0BEA030B4AEA0B0421464046EA
:102B100004F010FFBDE8F09F00BF00F00702064B75
:102B200019684FF6FF031940044B0B4343EA022197
:102B3000014B196000BF70470CED00E00000FA0582
:102B4000012001490862704700000E42012190FAFD
:102B5000A0F2B2FA82F2034B03EB8202C2F88010B9
:102B60007047000000000E420748006840F0020075
:102B7000054908600548006840F004000349086002
:102B800000BF00BF30BF70470070004010ED00E094
:102B900070B504460D461148006820F002000F4948
:102BA00008600846006820F00100204308600C48D7
:102BB000006840F004000A490860012D01D130BFCF
:102BC00004E040BF03F0C2FA03F0C0FA0448006812
:102BD00020F004000249086070BD00000070004051
:102BE00010ED00E02DE9F04706464FF00008002503
:102BF00000270024A146012E31D0022E56D0102EDF
:102C00005FD132484468006800F0807008B33048F3
:102C1000C4F38341475C04F4803078B12B484068AA
:102C2000C0F340402B4911F8008004F4803040B1DB
:102C30002948B0FBF8F000FB07F502E0274807FB46
:102C400000F52248406800F48000B0F5800F01D103
:102C5000A94603E068000321B0FBF1F932E01B480C
:102C6000046A04F44070B0F5807F05D104F00200DE
:102C700010B14FF4004918E004F44070B0F5007F43
:102C800007D11248406A00F0020010B149F64049ED
:102C90000BE004F44070B0F5407F06D10B480068AB
:102CA00000F4003008B14FF224490BE000F0AEF917
:102CB00006494968C1F38131491C4900B0FBF1F96B
:102CC00000E000BF00BF4846BDE8F08700100240AA
:102CD000B2A10008C2A1000800127A0000093D005C
:102CE000F8B5044600260025207800F001000028F1
:102CF0006BD000274348C06900F0805070B900BF16
:102D00004048C06940F080503E49C8610846C069EB
:102D100000F08050009000BF00BF01273A480068D3
:102D200000F48070B0B93848006840F480703649CB
:102D30000860FFF7DBF8064606E0FFF7D7F8801BD0
:102D4000642801D90320F8BD2F48006800F4807082
:102D50000028F2D02B48006A00F440752DB3A088FB
:102D600000F44070A84220D02648006A20F4407544
:102D7000012026490860002008602248056205F00D
:102D8000010090B1FFF7B2F8064608E0FFF7AEF891
:102D9000801B41F28831884201D90320D3E71948CA
:102DA000006A00F002000028F0D01648006A20F403
:102DB00040706168084313490862012F04D1084636
:102DC000C06920F08050C86100BF207800F0020088
:102DD000022807D10B48406820F44040A16808430E
:102DE00008494860207800F01000102807D10548F5
:102DF000406820F48000E1680843024948600020F0
:102E0000A1E7000000100240007000404004424270
:102E100070B504460D460CB9012070BD5A480068D3
:102E200000F00700A8420ED25748006820F00700C3
:102E30002843554908600846006800F00700A8428A
:102E400001D00120E9E7207800F0020002281DD11E
:102E5000207800F00400042805D14C48406840F474
:102E6000E0604A494860207800F00800082805D151
:102E70004648406840F460504449486043484068D0
:102E800020F0F000A168084340494860207800F035
:102E9000010078B36068012806D13C48006800F45E
:102EA000003090B90120B8E76068022806D13748A1
:102EB000006800F0007040B90120AEE733480068B8
:102EC00000F0020008B90120A7E73048406820F070
:102ED0000300616808432D494860FFF707F806467C
:102EE00009E0FFF703F8801B41F28831884202D9DC
:102EF000032092E707E02548406800F00C00616875
:102F0000B0EB810FEDD12048006800F00700A84227
:102F10000ED91D48006820F0070028431A490860B0
:102F20000846006800F00700A84201D0012074E7BD
:102F3000207800F00400042807D11448406820F4E9
:102F4000E060E168084311494860207800F008001B
:102F5000082808D10D48406820F46050216940EAF3
:102F6000C1000A49486000F061F808494968C1F3A6
:102F70000311074A515CC8400649086006480068CA
:102F8000FFF7D6FC002048E7002002400010024076
:102F9000C4A1000810000020080000200F220260D9
:102FA0000D4A526802F0030242600B4A526802F076
:102FB000F0028260084A526802F4E062C260064A87
:102FC000526802F46052D2080261044A126802F0A8
:102FD00007020A6070470000001002400020024013
:102FE00001480068704700001000002000B5FFF79E
:102FF000F7FF04494968C1F30221034A515CC84004
:1030000000BD000000100240D4A1000800B5FFF789
:10301000E7FF04494968C1F3C221034A515CC84033
:1030200000BD000000100240D4A1000870B50021CE
:103030000022002400230020134D696801F00C05D4
:10304000F5B1042D02D0082D19D101E00F4819E087
:103050000F4DC1F38346AB5D01F4803555B10A4D88
:103060006D68C5F340450B4E725D084D5D43B5FB81
:10307000F2F402E0084D03FB05F4204602E000BF35
:10308000024800BF00BF70BD0010024000127A006D
:10309000A0A10008B0A1000800093D00F8B5044651
:1030A0000CB90120F8BD207800F00100002878D08C
:1030B000F848406800F00C0004280CD0F54840683F
:1030C00000F00C00082811D1F248406800F480306C
:1030D000B0F5803F0AD1EF48006800F400300028C6
:1030E0005FD0606800285CD10120DBE700BF60682A
:1030F000B0F5803F06D1E748006840F48030E549EC
:10310000086028E0606858B9E248006820F4803020
:10311000E04908600846006820F4802008601AE052
:103120006068B0F5A02F0BD1DA48006840F4802029
:10313000D84908600846006840F4803008600AE01A
:10314000D448006820F48030D249086008460068FE
:1031500020F48020086000BF606888B1FEF7C6FEDA
:10316000054606E0FEF7C2FE401B642801D9032095
:1031700098E7C848006800F400300028F2D010E05A
:10318000FEF7B4FE054606E0FEF7B0FE401B6428DD
:1031900001D9032086E7BF48006800F4003000280A
:1031A000F2D1207800F00200022857D1B9484068D7
:1031B00000F00C0050B1B748406800F00C0008283F
:1031C00018D1B448406800F4803098B9B14800681C
:1031D00000F0020020B12069012801D0012061E740
:1031E000AC48006820F0F800616940EAC100A949D4
:1031F000086033E02069E8B10120A7490860FEF7C4
:1032000075FE054606E0FEF771FE401B022801D957
:10321000032047E79F48006800F002000028F2D032
:103220009C48006820F0F800616940EAC1009949B3
:10323000086013E0002098490860FEF757FE054635
:1032400006E0FEF753FE401B022801D9032029E7C0
:103250009048006800F002000028F2D1207800F0C9
:10326000080008282DD1A069B8B101208B49086059
:10327000FEF73CFE054606E0FEF738FE401B02283E
:1032800001D903200EE78348406A00F002000028BD
:10329000F2D0012003F07AF813E000207F490860A3
:1032A000FEF724FE054606E0FEF720FE401B02283E
:1032B00001D90320F6E67748406A00F002000028B2
:1032C000F2D1207800F00400042873D1002771485F
:1032D000C06900F0805070B900BF6E48C06940F00E
:1032E00080506C49C8610846C06900F08050009069
:1032F00000BF00BF01276A48006800F48070B0B9C1
:103300006748006840F4807065490860FEF7EEFD8C
:10331000054606E0FEF7EAFD401B642801D90320BC
:10332000C0E65F48006800F480700028F2D000BF5B
:10333000E068012806D15748006A40F0010055496D
:10334000086227E0E06858B95248006A20F001009E
:10335000504908620846006A20F00400086219E03B
:10336000E06805280BD14B48006A40F00400494949
:1033700008620846006A40F0010008620AE0454819
:10338000006A20F00100434908620846006A20F004
:103390000400086200BFE068A0B1FEF7A7FD054683
:1033A00009E0FEF7A3FD401B41F28831884202D9B3
:1033B000032077E622E03748006A00F00200002888
:1033C000EFD012E0FEF792FD054608E0FEF78EFD15
:1033D000401B41F28831884201D9032062E62D4822
:1033E000006A00F002000028F0D1012F05D1294821
:1033F000C06920F080502749C86100BFE069C8B3A8
:103400002448406800F00C00082860D0E0690228D9
:1034100048D1002020490866FEF768FD054606E011
:10342000FEF764FD401B022801D903203AE6194843
:10343000006800F000700028F2D1206AB0F5803FEB
:1034400007D11448406820F40030A16808431149AE
:103450004860D4E9080108430E49496821F4741111
:1034600008430C49486001200B490866FEF73EFD01
:10347000054607E03DE0FEF739FD401B022801D973
:1034800003200FE60348006800F000700028F2D027
:103490002FE000000010024000004242800442423F
:1034A00000700040002014490866FEF71FFD054625
:1034B00006E0FEF71BFD401B022801D90320F1E5C1
:1034C0000E48006800F000700028F2D111E0E069B9
:1034D000012800D1E6E50948466806F48031206AF3
:1034E000814204D106F47011606A814201D001204A
:1034F000D8E50020D6E5000000004242001002405E
:10350000F8B505460C4616460020009005B10CB9EA
:103510000120F8BD00226946284600F01AF808B1DB
:103520000120F6E7287B2070E87BE070687B607004
:10353000A87BA0705EB1E07802F047FFE070607891
:1035400002F043FF6070A07802F03FFFA0700020FF
:10355000DFE72DE9F04780460C469146002500261E
:10356000AA460027B8F1000F00D014B90120BDE829
:10357000F087D8F800004068C0F3800008B101204F
:10358000F5E7404602F0E8FF05464FF46160B5FB01
:10359000F0F7B5FBF0F100FB11503C21B0FBF1F06E
:1035A00060704FF46160B5FBF0F100FB11503C21FD
:1035B000B0FBF1F201FB1200A070182F39D31820D4
:1035C000B7FBF0FAB7FBF0F100FB1170207040463A
:1035D00002F0B6FF0646701C18B1AE4201D9761B48
:1035E00001E04FF0FF360AEB4A00C000C0EB40118B
:1035F000C1EB0020A5EB00152946404603F01FF85B
:1036000008B10120B3E7701C38B12E443146404662
:1036100002F0FEFF40B10120A9E73146404602F02A
:10362000F7FF08B10120A2E75146404602F0DAFE5A
:1036300000E02770B9F1000F0BD0207802F0C5FE32
:103640002070607802F0C1FE6070A07802F0BDFECC
:10365000A07000208BE7000070B5044600250CB96F
:10366000012070BD607C20B900202074204600F04D
:1036700053F802206074204600F058F918B1042075
:1036800060740120EDE7204602F007FF18B1042026
:1036900060740120E5E72068406820F00700216899
:1036A0004860A06828B11B48006820F00100194953
:1036B00008601848001F006820F46070A168084383
:1036C0001449091F08606068401C08B1656809E07A
:1036D0000120FFF787FA05461DB904206074012018
:1036E000BFE76D1EC5F3034021688860A8B221685A
:1036F000C860204602F0EEFE18B10420607401207C
:10370000AFE70021E17301216173A17301206074AF
:103710000020A6E7306C004038B504460B4920680D
:10372000884212D1FFF70CFA00BF0948C06940F087
:1037300000600749C8610846C06900F00060009059
:1037400000BF00BF01200349086038BD00280040C9
:10375000001002403C0442422DE9F04704460D4669
:10376000904600260027B14604B115B90120BDE8F6
:10377000F08700BF207C012801D10220F7E701205B
:10378000207400BF02206074B8F1000F06D1E97800
:10379000E17369786173A978A1730BE0E87802F0AE
:1037A00009FEE073687802F005FE6073A87802F005
:1037B00001FEA073A27B617BE07B02F0E7FE207339
:1037C000207B2870204602F0C7FE06464FF4616059
:1037D000B6FBF0F9B9F1180F2FD91820B9FBF0F0AA
:1037E00000EB4000C000C0EB4011C1EB0020A6EB95
:1037F00000163146204602F022FF38B104206074E2
:1038000000BF0020207400BF0120B0E7204602F076
:1038100097FE0746781C80B1B7420ED20B4807448A
:103820003946204602F0F4FE38B10420607400BF2F
:103830000020207400BF012099E70120607400BFC0
:103840000020207400BF00BF91E7000080510100FC
:103850002DE9F04704460D4690460026002704B1A6
:1038600015B90120BDE8F08700BF207C012801D1F7
:103870000220F7E70120207400BF02206074B8F135
:10388000000F0BD128784FF4616148436978C1EB90
:10389000011100EB8100A978461812E0287802F0A7
:1038A00089FD4FF4616100FB01F9687802F082FD47
:1038B000C0EB001009EB8009A87802F07BFD09EB52
:1038C00000063146204602F0BAFE38B1042060748A
:1038D00000BF0020207400BF0120C3E720684068BB
:1038E00020F0050021684860204602F029FE0746C6
:1038F000781C80B1B7420ED20B48074439462046A7
:1039000002F086FE38B10420607400BF00202074ED
:1039100000BF0120A6E70120607400BF00202074D2
:1039200000BF00BF9EE700008051010070B5044653
:1039300000250CB9012070BD2068406820F0080007
:1039400021684860FEF7D2FA054607E0FEF7CEFA96
:10395000401BB0F57A7F01D90320ECE7206840686E
:1039600000F008000028F1D00020E4E7704770471D
:1039700030B502460B4600BF92F83C00012801D149
:10398000022030BD012082F83C0000BF022082F8F6
:103990003D00106844681068816824F0700418685D
:1039A000044310684460104D1068A8420BD01068A2
:1039B000B0F1804F07D00D4D1068A84203D00C4DD8
:1039C0001068A84205D121F08001586801431068B1
:1039D0008160012082F83D0000BF002082F83C0099
:1039E00000BF00BFCDE70000002C014000040040F4
:1039F0000008004010B504460CB9012010BD94F831
:103A00003D0028B9002084F83C00204600F026F84C
:103A1000022084F83D00211D206803F0BDFB012039
:103A200084F8460000BF84F83E0001213F20015584
:103A3000402001554120015500BF00BF012084F8FE
:103A4000420043200155442001554520015500BF47
:103A5000012084F83D000020D0E7000038B504467E
:103A60002068B0F1804F15D100BF0B48C06940F00D
:103A700001000949C8610846C06900F001000090D2
:103A800000BF00BF002206211C20FFF707F81C2002
:103A9000FEF7F4FF38BD000000100240014691F827
:103AA0003D00012801D001207047022081F83D002F
:103AB0000868C06840F001000B68D860124B0868C5
:103AC00098420BD00868B0F1804F07D00F4B0868C0
:103AD000984203D00E4B086898420CD10868806861
:103AE00000F00702062A0CD00868006840F00100C8
:103AF0000B68186005E00868006840F001000B687A
:103B000018600020D0E70000002C014000040040B5
:103B10000008004001460868C06820F001000A68FB
:103B2000D06000BF0868006A41F21112104050B91D
:103B30000868006A9210104028B90868006820F0F0
:103B400001000A68106000BF012081F83D000020DC
:103B500070472DE9F04104460D46002700BF94F858
:103B60003C00012802D10220BDE8F081012084F848
:103B70003C0000BF022084F83D002068866826F0E3
:103B8000770626F47F46206886602868502833D060
:103B90000CDC202850D004DC00284BD0102851D158
:103BA00049E0302849D040284CD139E060282DD058
:103BB000702807D0B0F5805F03D0B0F5005F41D129
:103BC0000DE041E0D5E902136A68206803F026FBA6
:103BD0002068866846F077062068866034E0D5E97C
:103BE00002136A68206803F019FB2068806840F4BB
:103BF00080402168886027E0EA686968206803F0EF
:103C000021FB5021206803F014FB1DE0EA6869687D
:103C1000206803F02AFB6021206803F00AFB13E010
:103C2000EA686968206803F00DFB4021206803F012
:103C300000FB09E000BF00BF00BF2968206803F057
:103C4000F8FA01E0012700BF00BF012084F83D0021
:103C500000BF002084F83C0000BF384684E770476E
:103C600070B504462068C5682068066906F0020041
:103C7000022819D105F00200022815D1401F216841
:103C80000861012020772068806900F0030018B1E6
:103C90002046FFF7E4FF05E0204600F097F82046B5
:103CA00000F095F80020207706F00400042819D1D0
:103CB00005F00400042815D1C043216808610220E2
:103CC00020772068806900F4407018B12046FFF723
:103CD000C6FF05E0204600F079F8204600F077F8AE
:103CE0000020207706F00800082819D105F0080008
:103CF000082815D1C0432168086104202077206876
:103D0000C06900F0030018B12046FFF7A8FF05E0E6
:103D1000204600F05BF8204600F059F8002020779C
:103D200006F01000102819D105F01000102815D148
:103D3000C04321680861082020772068C06900F42A
:103D4000407018B12046FFF78AFF05E0204600F0DA
:103D50003DF8204600F03BF80020207706F00100F7
:103D600048B105F0010030B16FF001002168086131
:103D7000204600F02DF806F08000802809D105F0DB
:103D80008000802805D1C043216808612046FFF7E4
:103D9000EDFD06F04000402809D105F04000402824
:103DA00005D1C04321680861204600F023F806F0E1
:103DB0002000202809D105F02000202805D1C0438B
:103DC000216808612046FFF7D2FD70BD704770473B
:103DD00010B504462068B0F1804F01D103F040F9DE
:103DE00003492068884201D1FEF782FD10BD000022
:103DF0000008004070472DE9F84F04460F469046F2
:103E00001D46DDF828A094F84200202878D117B18B
:103E1000B8F1000F02D10120BDE8F88F00206064E6
:103E2000222084F842000120206300206063FEF716
:103E30005DF88346A4F82C80A4F82E80A068B0F525
:103E4000805F04D1206910B90026B94602E03E46E1
:103E50004FF000090020288053E02068006800F03F
:103E60001000102813D100BF0020009020680068C7
:103E7000009020684068009000BF00BF288830B1E3
:103E800002206063202084F842000020C4E72068FC
:103E9000006800F02000202821D146B92068406841
:103EA000C0F30800A9F8000009F1020911E0A068B8
:103EB000B0F5805F03D0A06828B9206918B92068E0
:103EC0004068307004E02068406800F07F00307087
:103ED000761C2888401C2880E08D401EE0850AF171
:103EE000010070B1FEF702F8A0EB0B00504502D8BC
:103EF000BAF1000F05D1202084F8420003208BE79F
:103F00000BE0E08D0028A8D1A08DE18D401A28801B
:103F1000202084F8420000207EE702207CE710B5D4
:103F200004460CB9012010BDA06900B100E000BF3B
:103F300094F8410028B9002084F84000204600F0A1
:103F400029F8242084F841002068C06820F400503B
:103F50002168C860204603F09FFA2068006920F4B9
:103F60009040216808612068406920F02A0021689B
:103F700048612068C06840F400502168C860002093
:103F80006064202084F8410084F8420000206063CF
:103F900000BFC8E710B586B0044600200290039029
:103FA000049005901949206888422DD100BF184817
:103FB000C06940F400301649C8610846C06900F481
:103FC0000030019000BF00BF00BF0846806940F08C
:103FD000040088610846806900F00400019000BF79
:103FE00000BF04200290022003900320059002A944
:103FF0000848FDF7DDFD08200290002003900490A2
:1040000002A90448FDF7D4FD06B010BD00440040ED
:1040100000100240000801402DE9F84F04460E460A
:10402000174699464FF0000A94F84100202850D1D5
:1040300006B117B90120BDE8F88F00206064212087
:1040400084F84100FDF752FF8246A784E784A06808
:10405000B0F5805F04D1206910B90025B04602E0B8
:1040600035464FF000081EE05346002280212046CE
:10407000CDF8009003F08EFA20B1202084F84100A2
:104080000320D8E745B9B8F80000C0F3080021685C
:10409000486008F1020803E02878216848606D1C38
:1040A000E08C401EE084E08C0028DDD153460022E5
:1040B00040212046CDF8009003F06CFA20B120207A
:1040C00084F841000320B6E7202084F84100002056
:1040D000B1E70220AFE700BFFEE7000010B50248DD
:1040E000FDF72AFF10BD0000F800002010B50248BF
:1040F000FDF792FF10BD0000F8000020C16AB1F585
:104100002A0F02D10121C16205E0C16AB1F12A4F33
:1041100001D10821C1627047F8B505460020009022
:104120006C6A94F83D60394800681921B0FBF1F0E1
:104130004FF47A71B0FBF1F0C0EBC00000EB8000EF
:10414000009000BF009820B9206C40F0200020644F
:1041500009E00098401E00902068006800F400709C
:10416000B0F5007FEED000BF606B10B10020616B36
:104170008862A06B10B10020A16B88622068006883
:1041800020F480602168086000206085606B10B1B9
:104190000020616B4863A06B10B10020A16B4863E5
:1041A0002068006820F001002168086094F83D0054
:1041B00060280AD1202084F83D00002084F83E00C9
:1041C00020642046FDF798FE1EE006F0280028280F
:1041D00011D12068006840F0010021680860206863
:1041E000006840F480602168086000202063282077
:1041F00084F83D0005E0202084F83D00002084F88C
:104200003E002046FDF7F6FFF8BD0000100000203C
:1042100070B505466C6A606B10B10020616B8862F6
:10422000A06B10B10020A16B88622068006820F4A8
:1042300080602168086000206085202084F83D00AF
:10424000002084F83E00206C40F0100020642046DE
:10425000FDF7D0FF70BD2DE9F04107467C6A94F868
:104260003D6094F83E80E56A2068406820F4407024
:1042700021684860606B10B10020616B8862A06BA0
:1042800010B10020A16B886206F02100212806D021
:1042900006F02200222826D1B8F1200F23D1206871
:1042A000406820F400602168486000206085292E65
:1042B00008D121202063282084F83D002046FEF705
:1042C00016FB09E02A2E07D122202063282084F83B
:1042D0003D002046FEF70AFB2068406840F440702D
:1042E0002168486054E094F83E00002850D0608D6A
:1042F000012805D12068006820F4806021680860EA
:104300002068406820F440702168486015F5803FBF
:1043100006D0082D04D0B5F12A4F01D0202D05D1AB
:104320002068006840F400702168086020684068D8
:1043300020F48050216848602068406820F40060C4
:104340002168486000206085206C18B12046FDF788
:1043500051FF1DE0202084F83D0094F83E004028E5
:1043600007D1002084F83E0020632046FEF753F872
:104370000EE0002084F83E00082D01D0202D02D14F
:104380000020206301E0122020632046FEF741F860
:10439000BDE8F08101684969C1F3C01111B1002184
:1043A00002681161704700002DE9F041044694F85D
:1043B0003D6094F83E70102F01D0402F07D1222E7F
:1043C00005D12068006820F400602168086006F0CC
:1043D0002800282805D100202063282084F83D00EB
:1043E00010E02068406800F40060B0F5006F07D06E
:1043F000602E05D0202084F83D00002084F83E0087
:10440000002020632068406800F40060B0F5006F71
:1044100040D12068406820F4006021684860606BEB
:1044200090F82100012814D04848616B4863606B04
:10443000FDF7EEF800285BD02068006820F001004E
:1044400021680860202084F83D00606B416B88473C
:104450004EE03E48A16B4863A06BFDF7D9F80028F9
:1044600046D020684069C0F3801030B120680069F0
:10447000616A0870606A401C60622068006820F011
:10448000010021680860202084F83D00A06B416B8A
:1044900088472DE094F83D0060281AD1202084F848
:1044A0003D000020206420684069C0F3801030B1D6
:1044B00020680069616A0870606A401C6062206858
:1044C000006820F00100216808602046FDF714FD17
:1044D0000EE020684069C0F3801030B120680069A8
:1044E000616A0870606A401C60622046FDF782FEC7
:1044F000256C05F0010058B905F00200022807D02C
:1045000005F00400042803D005F00800082805D1B0
:104510002068406820F4E0602168486094F83D60BD
:10452000206C00F0040004280ED1282E0CD108487D
:10453000E06200202063202084F83D00002084F801
:104540003E002046FDF764FFBDE8F08119410008F8
:104550000000FFFF014608684069C0F38020B0B149
:104560006FF480600A68506100200863202081F8A1
:104570003D00002081F83E00086C40F00400086413
:1045800000BF002081F83C0000BF012070470020E0
:10459000FCE770B50446E56A608D042810D12068F8
:1045A000406820F480602168486020680069616A82
:1045B0000870606A401C6062608D401E60857FE00C
:1045C000608D03281AD12068406820F4806021683B
:1045D0004860042D07D0022D05D02068006820F423
:1045E00080602168086020680069616A0870606AFC
:1045F000401C6062608D401E608561E0608D022815
:1046000054D1012D01D0102D06D12068006820F46E
:1046100080602168086010E0042D01D0022D06D1D1
:104620002068006840F480602168086005E0206828
:10463000006840F400702168086020680069616AC1
:104640000870606A401C6062608D401E6085206852
:104650000069616A0870606A401C6062608D401E7B
:1046600060852068406820F4407021684860202000
:1046700084F83D0094F83E00402807D1002084F8DB
:104680003E0020632046FDF7C6FE19E0002084F8B6
:104690003E00082D01D0202D02D10020206301E032
:1046A000122020632046FDF7B4FE09E0206800696F
:1046B000616A0870606A401C6062608D401E60859F
:1046C00070BD70B5044694F83D0022287AD1E66AA0
:1046D000658D032D13D920680069616A0870606ACE
:1046E000401C6062608D401E6085608D032868D12B
:1046F0002068406820F480602168486061E0E06ADA
:10470000022858D0012D01D0002D54D1204600F0B0
:104710004FFEA0BB2068006820F48060216808601C
:104720002068406820F4E0602168486020680069E3
:10473000616A0870606A401C6062608D401E60851E
:10474000202084F83D0094F83E00402807D1002046
:1047500084F83E0020632046FDF75DFE31E0002036
:1047600084F83E00082E01D0202E02D100202063C4
:1047700001E0122020632046FDF74BFE21E0FFE719
:104780002068406820F4E060216848602068006983
:10479000616A0870606A401C6062608D401E6085BE
:1047A000202084F83D00002084F83E002046FDF7DC
:1047B00021FD06E006E02068406820F48060216862
:1047C000486000BF70BD70B50446E56A94F83D00CE
:1047D000212847D1608D50B1606A00782168086156
:1047E000606A401C6062608D401E60853AE0082D62
:1047F00016D0202D14D015F5803F11D020684068C8
:1048000020F4E0602168486011202063002084F8D3
:104810003E00202084F83D002046FDF7FBFD21E00E
:104820002068406820F4E0602168486020680068E3
:1048300040F400702168086000202063202084F884
:104840003D0094F83E00402806D1002084F83E0048
:104850002046FDF7E1FD05E0002084F83E002046FB
:10486000FDF7D8FD70BD2DE9F041044694F83D50A8
:1048700094F83E70E66A208DB0BB212D3CD1082E05
:1048800016D0202E14D016F5803F11D02068406835
:1048900020F4E0602168486011202063002084F843
:1048A0003E00202084F83D002046FDF7B3FD44E0A3
:1048B0002068406820F4E060216848602068006853
:1048C00040F400702168086000202063202084F8F4
:1048D0003D0094F83E00402807D1002084F83E00B7
:1048E0002046FDF799FD28E006E0002084F83E0010
:1048F0002046FDF78FFD20E0212D03D0402F1CD155
:10490000222D1AD1608D30B92068406820F4806073
:104910002168486011E094F83E00402803D1204609
:1049200000F0B1F909E0606A007821680861606A06
:10493000401C6062608D401E6085BDE8F081416C66
:10494000C9B202681161416B11B1416B896A21B929
:10495000816B41B1816B896A29B10168496841F471
:10496000006102685160704738B590F83E20C16A16
:10497000036B90F83D40222C73D1046D64B9402A3A
:104980000AD100BF0024009404686469009404689C
:10499000A469009400BF26E1046DC4B90469B4F5AC
:1049A000404F14D100BF002400940468646900944F
:1049B0000468A469009400BF00BF0468246844F43C
:1049C000807405682C60046D641C04650BE1448DE3
:1049D0008CB900BF002400940468646900940468E2
:1049E000A469009400BF00BF0468246844F4007404
:1049F00005682C60E9E0448D012C72D111F5803FEF
:104A000030D10468246824F4806405682C6004684C
:104A1000646804F40064B4F5006F10D1046824687D
:104A200024F4806405682C6000BF002400940468AE
:104A3000646900940468A469009400BFC5E000BFE5
:104A4000002400940468646900940468A4690094D4
:104A500000BF00BF0468246844F4007405682C603B
:104A6000B3E0B5E0082923D0202921D0122B01D1B1
:104A700001291DD104290AD0022908D0102906D005
:104A80000468246824F4806405682C6005E00468E8
:104A9000246844F4806405682C6000BF00240094FE
:104AA0000468646900940468A469009400BF8CE001
:104AB0000468246824F4806405682C6000BF002426
:104AC00000940468646900940468A469009400BFB9
:104AD00000BF0468246844F4007405682C6074E026
:104AE000FFE7448D022C47D104291BD0022919D09D
:104AF000102917D00468246844F4006405682C6009
:104B000000BF002400940468646900940468A469E8
:104B1000009400BF00BF0468246824F48064056822
:104B20002C6010E00468246844F4806405682C60FC
:104B300000BF002400940468646900940468A469B8
:104B4000009400BF00BF0468646804F40064B4F516
:104B5000006F3AD111F5803F07D0012905D008290F
:104B600003D0102901D020292FD10468646844F4AF
:104B7000805405686C6028E00468246844F480640C
:104B800005682C600468646804F40064B4F5006F80
:104B900010D111F5803F07D0012905D0082903D095
:104BA000102901D0202905D10468646844F4805498
:104BB00005686C6000BF0024009404686469009478
:104BC0000468A469009400BF00BF002404650AE0E3
:104BD00000BF002400940468646900940468A46918
:104BE000009400BF00BF38BD90F83E1040290ED1A0
:104BF000016D29B9416C01F0FE010268116141E0CB
:104C0000416CC9B241F00101026811613AE00169E9
:104C1000B1F5804F20D190F83D10212905D1416C8C
:104C200001F0FE010268116105E0416CC9B241F07A
:104C3000010102681161416B11B1416B896A21B9AF
:104C4000816BF9B1816B896AE1B10168496841F40E
:104C500000610268516015E0016D41B9416C01F4D9
:104C60004071F02242EAE111026811610AE0016D2F
:104C7000012907D1416C01F44071F12242EAE111AE
:104C800002681161704770B5044694F83D50206D7C
:104C900098B9E06C012807D1A06CC0B22168086106
:104CA000206D801C206550E0A06CC0F307202168B7
:104CB0000861206D401C206547E0206D012807D168
:104CC000A06CC0B221680861206D401C20653CE0EA
:104CD000206D022836D1222D09D12068006840F4C9
:104CE000807021680860206D401C20652DE0608D7B
:104CF00060B1212D0AD1606A007821680861606A7C
:104D0000401C6062608D401E60851EE0608DE0B9D1
:104D1000212D1AD12068406820F4E06021684860A5
:104D20002068006840F4007021680860002020635B
:104D3000202084F83D00002084F83E002046FDF746
:104D40006BFB02E02046FFF725FB70BD2DE9F84321
:104D50000446884615469946DDE9086720680068DC
:104D600040F4807021680860334600224FF0011142
:104D70002046009700F03FFA60B12068006800F418
:104D80008070B0F5807F02D14FF400702064032062
:104D9000BDE8F88308F0FE00216808613B46324612
:104DA0002149204600F086FA08B10120F0E700BF53
:104DB0000020009020684069009020688069009081
:104DC00000BF00BF3A463146204600F019FB50B103
:104DD000206C042805D12068006840F40070216828
:104DE00008600120D4E7B9F1010F03D1E8B22168CE
:104DF000086117E0C5F30720216808613A4631468B
:104E0000204600F0FDFA50B1206C042805D120683E
:104E1000006840F40070216808600120B8E7E8B23B
:104E2000216808610020B3E702000100418D49B10B
:104E300001680969426A1170416A491C4162418DE9
:104E4000491E4185704770B5044694F83D50608D09
:104E5000D8B120680069616A0870606A401C6062AD
:104E6000608D401E6085608D78B92A2D0DD1206837
:104E7000406820F480602168486022202063282058
:104E800084F83D002046FDF731FD70BD418D49B1EC
:104E9000416A097802681161416A491C4162418D89
:104EA000491E4185704770B5044694F83D50608DA9
:104EB000D8B1606A007821680861606A401C60624D
:104EC000608D401E6085608D78B9292D0DD12068D8
:104ED000406820F4806021684860212020632820F9
:104EE00084F83D002046FDF702FD70BDF8B504468C
:104EF0000D46002794F83D0000F0280028281CD11A
:104F00002068406820F4806021684860C5F3800014
:104F100000B90127C5F3C01010B9A08986B201E01D
:104F2000208B86B200BF002084F83C0000BF3246D0
:104F300039462046FCF7E1FF0FE000BF002000905B
:104F400020684069009020688069009000BF00BF21
:104F500000BF002084F83C0000BFF8BD70B50446D7
:104F600094F83D50E66A082E01D0202E1FD1282D3E
:104F70001DD12348E0622068406820F4E060216889
:104F800048606FF48060216848612068006820F400
:104F900080602168086000202063202084F83D00A4
:104FA000002084F83E002046FDF732FA26E0212D4D
:104FB00020D11348E06221202063202084F83D00A6
:104FC000002084F83E002068406820F4E0602168FA
:104FD00048606FF48060216848612068006820F4B0
:104FE0008060216808602046FFF7D4F92046FDF76D
:104FF0007EFC03E06FF480602168486170BD0000B2
:105000000000FFFF38B5044694F83D502068406822
:1050100020F4E0602168486000BF00200090206814
:10502000406900902068006840F001002168086035
:1050300000BF00BF2068006820F48060216808601D
:105040002068406800F40060B0F5006F42D1222D66
:1050500001D02A2D1FD1A06B006840686085608D4B
:1050600018B1206C40F0040020642068406820F4EF
:10507000006021684860A06BFCF756FB012829D02E
:105080004148A16B4863A06BFCF7C2FA10B3A06B58
:10509000416B88471EE0606B006840686085608DEA
:1050A00018B1206C40F0040020642068406820F4AF
:1050B000006021684860606BFCF736FB012809D06E
:1050C0003148616B4863606BFCF7A2FA10B1606B0A
:1050D000416B8847608D18B320684069C0F3800039
:1050E00048B120680069616A0870606A401C6062AB
:1050F000608D401E608520684069C0F3801048B113
:1051000020680069616A0870606A401C6062608D96
:10511000401E6085608D18B1206C40F00400206452
:10512000206C18B12046FFF73FF92BE02A2D07D15C
:1051300000202063282084F83D002046FDF7D6FBA0
:1051400094F83D0028280DD11048E062002020632B
:10515000202084F83D00002084F83E002046FDF722
:1051600057F90FE0206B222801D0222D0AD1002010
:105170002063202084F83D00002084F83E00204673
:10518000FDF7B4FB38BD0000194100080000FFFF27
:1051900070B504460D46164625E02046FFF7DAF9BD
:1051A00008B1012070BD681CE8B1FCF79FFE801BB0
:1051B000A84200D8BDB920684069C0F3800090B90A
:1051C00000202063202084F83D00002084F83E0069
:1051D000206C40F02000206400BF002084F83C00D8
:1051E00000BF0120DEE720684069C0F3800000288E
:1051F000D3D00020D6E72DE9F04104460D461746EE
:105200001E46DDF8188038E0701CA8B3FCF76EFE6F
:10521000A0EB0800B04200D876BBC5F307400128D8
:105220000AD120684069A9B20840A9B2884201D1D8
:1052300001200BE0002009E020688069A9B2084045
:10524000A9B2884201D1012000E00020B84214D167
:1052500000202063202084F83D00002084F83E00D8
:10526000206C40F02000206400BF002084F83C0047
:1052700000BF0120BDE8F081FFE7C5F3074001282A
:105280000AD120684069A9B20840A9B2884201D178
:1052900001200BE0002009E020688069A9B20840E5
:1052A000A9B2884201D1012000E00020B842ABD071
:1052B0000020DFE72DE9F04104460D4616461F4663
:1052C00058E020684069C0F38020E8B12068006899
:1052D00040F40070216808606FF4806021684861C4
:1052E00000202063202084F83D00002084F83E0048
:1052F000206C40F00400206400BF002084F83C00D3
:1053000000BF0120BDE8F081701C90B3FCF7EEFDFA
:10531000C01BB04200D866BBC5F3074001280AD1C4
:1053200020684069A9B20840A9B2884201D1012091
:105330000BE0002009E020688069A9B20840A9B20A
:10534000884201D1012000E0002090B900202063B4
:10535000202084F83D00002084F83E00206C40F0BE
:105360002000206400BF002084F83C0000BF012022
:10537000C8E7FFE7C5F3074001280AD12068406964
:10538000A9B20840A9B2884201D101200BE0002057
:1053900009E020688069A9B20840A9B2884201D119
:1053A000012000E0002000288BD00020AAE70000A8
:1053B00008B5014600200090104800681922B0FB93
:1053C000F2F04FF47A72B0FBF2F000EB8000009044
:1053D00000BF0098401E0090009828B9086C40F06B
:1053E00020000864012008BD0868006800F400700F
:1053F000B0F5007FEDD00020F5E7000010000020A0
:1054000070B504460D46164625E02046FFF7A2F883
:1054100008B1012070BD681CE8B1FCF767FD801B76
:10542000A84200D8BDB920684069C0F3C01090B947
:1054300000202063202084F83D00002084F83E00F6
:10544000206C40F02000206400BF002084F83C0065
:1054500000BF0120DEE720684069C0F3C0100028CB
:10546000D3D00020D6E7000010B5024641EA02235F
:1054700005480088984204D10020034C2080012078
:1054800010BD0020FCE700005C00002010B50446C1
:105490004CB94FF480711648FCF71AFD08B900208A
:1054A00010BD0120FCE7012C08D1E1021048FCF7F7
:1054B0000FFD08B90020F3E70120F1E7022C08D125
:1054C00008210C48FCF704FD08B90020E8E701209A
:1054D000E6E7032C09D101210548FCF7F9FC012876
:1054E00001D10020DCE70120DAE70120D8E7000045
:1054F00000080140000C01402DE9FC410546012651
:1055000000200DE06E4931F81010002906DD6C49CD
:1055100031F81010491E6A4A22F81010411CC8B216
:105520000428EFDB0024B9E06648005D66490855B1
:10553000E0B2FFF7ABFF634908550846005D78B954
:105540006148005D01280BD104F07AFB074600207A
:1055500003463A46022100905C48006804F0F4FDDE
:10556000002001905A48005D06286FD2DFE800F065
:1055700003132B444C665348005D58B9022000EBDE
:10558000042080B2019001205149085564204C4903
:1055900021F814005AE04B48005D012807D1022091
:1055A0004B4908551420464921F814000AE04448A4
:1055B00030F8140030B90420454908550A20404904
:1055C00021F8140042E03F48005D40B9102040EA55
:1055D000042080B2019003203D4908550BE0384873
:1055E00030F8140038B9082040EA042080B2019055
:1055F00000203749085529E03248005D012802D1D2
:1056000000203349085521E02E48005D012808D1CB
:10561000202040EA042080B2019000202C49085547
:105620000BE0274830F8140038B9402040EA042045
:1056300080B2019005202649085507E02148005D09
:10564000012802D100202249085500BF00BF032CC9
:1056500009D0BDF80400C0B2102804D1022000EB2C
:10566000042080B20190BDF80400C0B2022806D028
:10567000032C0BD1BDF80400C0B2102806D10023C2
:105680001A4601A91348006804F068F81048005D44
:1056900010B90C48005D00B90026641C042CFFF60C
:1056A00043AF012E09D100200B4908700346024682
:1056B00003210090284604F047FDBDE8FC8100006E
:1056C0002C00002020000020240000206800002082
:1056D00028000020580000201E00002010B500F017
:1056E000EFF900F0C1FC10BD10B502210020FFF75A
:1056F000BBFEA8B11E480078012808D100201C4933
:105700000870012251031B48FCF7EAFB2BE0012043
:1057100017490870002241031648FCF7E1FB22E01C
:1057200002210120FFF7A0FEA8B11148007801284E
:1057300008D100200E490870012251030D48FCF7E2
:10574000CFFB10E001200A490870002241030948FC
:10575000FCF7C6FB07E002210846FFF785FE10B103
:105760000A200549087000F009F800F07DFC10BD22
:1057700051000020001001400100002008B50A4837
:10578000007840B909482C231A460A2100902A20A3
:1057900000F0BCFB07E006482C231A460A210090C3
:1057A0002A2000F0B3FB08BD5100002036C00008DD
:1057B0003EC1000810B5FFF7E1FF00F055FC10BD39
:1057C00010B50B480078012810D100200849087056
:1057D00000F076F900F048FC01210846FDF7D8F901
:1057E00001F084FC03480078FBF704FE10BD0000C4
:1057F00052000020000000200449097829B904491A
:10580000097811B90121034A117070475000002036
:10581000530000205200002008B500BF0A4840692C
:1058200040F00100084948610846406900F0010065
:10583000009000BF00BF002207211020FDF72EF9C5
:105840001020FDF71BF908BD0010024000B585B01F
:105850000020019002900390049000BF42488069AC
:1058600040F01000404988610846806900F010004F
:10587000009000BF00BF00BF0846806940F02000D4
:1058800088610846806900F02000009000BF00BFDA
:1058900000BF0846806940F00400886108468069BE
:1058A00000F00400009000BF00BF00BF0846806900
:1058B00040F0080088610846806900F00800009008
:1058C00000BF00BF012251032848FCF709FB4FF439
:1058D000005001900120029003900220049001A941
:1058E0002248FCF765F9012001902148029002202E
:1058F000039001A91F48FCF75BF94FF41060019079
:105900001D4802900120039001A91A48FCF750F9A4
:1059100008200190184802900120039001A917481F
:10592000FCF746F900220F210620FDF7B7F8062004
:10593000FDF7A4F8002205210920FDF7AFF80920A2
:10594000FDF79CF8002205211720FDF7A7F8172086
:10595000FDF794F8002205212820FDF79FF8282064
:10596000FDF78CF805B000BD0010024000100140AA
:10597000000011100008014000002110000C01403F
:1059800010B50B480B4908600B48486000210948D6
:105990008160C1604FF480410161002141618161FA
:1059A000C1610162FCF74CFC08B1FBF74BFC10BD78
:1059B00000540040F8000020801A06001CB50020AA
:1059C000019000901148124908604FF0FF30486084
:1059D00000210F488160FDF73FFE08B1FBF732FC64
:1059E00020208DF8040015208DF8050000208DF88A
:1059F000060005208DF8000003208DF8010020200E
:105A00008DF8020026208DF803001CBD0028004000
:105A10009001002000B587B000200390049005900D
:105A20000690019002904FF0804014490860472092
:105A300048600021114881604FF47A71C1600021F3
:105A400001618161FDF7D6FF08B1FBF7FBFB4FF465
:105A50008050039003A90948FEF77BF808B1FBF7D3
:105A6000F1FB00200190029001A90448FDF780FF9E
:105A700008B1FBF7E7FB07B000BD0000A401002060
:105A800010B50B480B4908604FF4E1304860002125
:105A900008488160C16001610C2141610021816180
:105AA000C161FEF73CFA08B1FBF7CCFB10BD00006A
:105AB00000440040EC01002000BFFEE700BFFEE70D
:105AC00000200CE0002106E00022064B03EBC0138F
:105AD0005A544A1CD1B28029F6DB421CD0B20828A5
