:020000040800F2
:10000000384E0020990100088D240008BD2000080A
:100010008924000861070008C93D000800000000AD
:1000200000000000000000000000000001010008C6
:10003000650700080000000045010008B13700080E
:10004000B3010008B3010008B3010008B3010008C0
:10005000B3010008B301000867070008B3010008F6
:10006000B3010008B3010008B3010008B3010008A0
:10007000B3010008B3010008B3010008B301000890
:10008000B3010008B3010008B3010008B301000880
:10009000B3010008B3010008B3010008B301000870
:1000A000B3010008B3010008B3010008B301000860
:1000B000B3010008B30100084D380008B30100087F
:1000C000B3010008B3010008B3010008B301000840
:1000D000B3010008B3010008B3010008B301000830
:1000E000B3010008B3010008B3010008DFF80CD029
:1000F00000F024FB0048004705470008384E002068
:10010000224B19680868B0E8F00F80F30988BFF344
:100110006F8F4FF0000080F311884EF00D0E704786
:100120000000000006480068006880F3088862B696
:1001300061B6BFF34F8FBFF36F8F00DF00BF00BF0B
:1001400008ED00E0EFF30980BFF36F8F0F4B1A68E3
:1001500020E9F00F106008B54FF0BF0080F3118860
:10016000BFF34F8FBFF36F8F05F01AF94FF0000008
:1001700080F31188BDE8084019680868B0E8F00FFE
:1001800080F30988BFF36F8F704700BF6C000020B9
:10019000EFF3058070470000064880470648004797
:1001A000FEE7FEE7FEE7FEE7FEE7FEE7FEE7FEE727
:1001B000FEE7FEE749380008ED000008202A04DBCE
:1001C000203A21FA02F00021704721FA02F3D040D0
:1001D000C2F12002914008431946704740EA0103EA
:1001E0009B0703D009E008C9121F08C0042AFAD2ED
:1001F00003E011F8013B00F8013B521EF9D27047B1
:10020000D2B201E000F8012B491EFBD27047002258
:10021000F6E710B513460A4604461946FFF7F0FF05
:10022000204610BD10B5002200E0521C835C8C5C9F
:10023000A34201D1002BF8D1D8B2E1B2401A10BDCF
:100240002DE9FE4F804681EA0300C00F0C46009066
:1002500021F0004123F00045B8EB0200A94105D28E
:100260004046214690461C460B46024623F000407D
:10027000104347D0270DC7F30A00C3F30A51029079
:10028000401A019040286BDAC3F3130040F4801B3E
:100290000098924620B10023D2EB030A63EB0B0BCC
:1002A00001985946C0F14002504600F0B0F90646A8
:1002B0000D4650465946019A00F0B8F910EB080077
:1002C0006141002487EA115284EAE7731A4340D05F
:1002D000009A62B3019A012A4FEA075215DC001B0B
:1002E00061EB02014FF0004202EA0752CDE9004201
:1002F000001C41F5801132462B4600F0B8F903B0DE
:10030000BDE8F08F40462146F9E7001B61EB020192
:10031000001C41F5801300185B412018A2F500175E
:1003200047EB030140EAD570B6196D4111E06D0845
:100330004FEA360645EAC0754FEA0752001B61EBEB
:100340000201001C41F5801149084FEA30000019F4
:10035000514132462B4603B0BDE8F04F00F078B96A
:100360000098012240000023D0EB020263EBE0730F
:10037000009821464FEAE074B8EB000061EB0401FD
:10038000E9E783F000435BE781F0004158E72DE99E
:10039000FE4F81EA030404F0004421F00041009480
:1003A0004FF0000B23F0004350EA01045ED052EA04
:1003B00003045BD0C3F30A54C1F30A552C44A4F2DE
:1003C000F3340194A0FB0254C1F3130141F48011F2
:1003D000C3F3130343F4801301FB024400FB034EF9
:1003E000840A970A44EA815447EA8357A4FB0768C2
:1003F00002958D0A05FB07854FEA932C04FB0C54EC
:100400002705029D4FEA065847EA1637B5EB08055F
:100410006EEB070C870E920E47EA811742EA8312B1
:10042000A7FB0201B6EB0B0164EB00042B0D43EAC2
:100430000C335E1844EB1C50DA465146E7FB0201D0
:10044000C5F313044FEA0B3343EA14534FEA043263
:10045000019C43EA0603A4F10C040294009CCDE93C
:1004600000B400F004F903B0BDE8F08F00200146AD
:10047000F9E72DE9F04D81EA030404F0004B21F087
:10048000004514464FF0000A23F0004150EA0502EF
:1004900020D054EA01021DD0C5F30A570246C5F325
:1004A0001303C1F31300C1F30A5640F4801543F45B
:1004B0008013A7EB0608101BD64608F2FD3873EB35
:1004C000050002D308F1010801E092185B41B8F180
:1004D000000F03DA00200146BDE8F08D00204FF444
:1004E0008011064684460EE0171B73EB050705D303
:1004F000121B63EB050306434CEA010C49084FEA63
:10050000300092185B4150EA0107EDD152EA030036
:1005100012D082EA040083EA0501084305D0101BCB
:10052000AB4106D20122002306E000224FF0004337
:1005300002E06FF0010253101AEB06004CEB085179
:1005400010EB0A0041EB0B01BDE8F04D00F080B864
:1005500030B5041E71F1000404DB4FF0004440424A
:1005600064EB0101141E73F1000405DB1C464FF01F
:100570000043524263EB0403994208BF904230BDEE
:1005800030B50B46014600202022012409E021FA63
:1005900002F59D4205D303FA02F5491B04FA02F560
:1005A0002844151EA2F10102F1DC30BD2DE9F05FF7
:1005B0000546002092469B468846064681464024D2
:1005C0001BE02846414647462246FFF7F7FD5346C3
:1005D0005A46C01A914110D311461846224600F0DF
:1005E00016F82D1A67EB01084F462246012000211C
:1005F00000F00DF817EB00094E41201EA4F1010494
:10060000DFDC484631462A464346BDE8F09F202AB3
:1006100004DB203A00FA02F1002070479140C2F159
:10062000200320FA03F3194390407047202A06DB89
:10063000CB17203A41FA02F043EAE07306E041FAB0
:1006400002F3D040C2F1200291400843194670479E
:1006500010B5141E73F1000408DA401C41F10001CA
:1006600092185B411A4301D120F0010010BD2DE921
:10067000F04D92469B4611B1B1FA81F202E0B0FA18
:1006800080F220329046FFF7C2FF04460F4640EA50
:100690000A0041EA0B0153465A46084313D011465B
:1006A00053EA010019D0C8F140025046FFF786FD19
:1006B00005460E46504659464246FFF7A8FF0843F6
:1006C00005D0012004E020463946BDE8F08D002029
:1006D000054346EAE0762C4337430A986305E40A6B
:1006E000A0EB08000022FD0A44EA47540A3002D574
:1006F00000200146E9E7010510196941DDE90845D7
:1007000000196941BDE8F04DA2E7C1F30A52C1F3F7
:10071000130140F2FF3341F480119A4202DA0020C3
:100720000146704740F233439A42A2F2334202DC60
:100730005242FFF743BDFFF76ABF0000064C074D6A
:1007400006E0E06840F0010394E8070098471034A1
:10075000AC42F6D3FFF7CEFC787A0008987A00080E
:1007600000BFFEE7704710B5012000F021F910BD71
:1007700072B600BFFEE700001CB500220221142063
:1007800004F076FE0C4908600C48022100234A025E
:10079000CDE900100AA10D4805F01EF80C48032110
:1007A00000234FF48072CDE900100AA10C4805F037
:1007B00013F804F0C7FD1CBD640000205C0000209D
:1007C0004755495F5461736B000000001909000828
:1007D000600000205469636B5F5461736B0000001C
:1007E000B13B000810B504460D2C2CD2DFE804F014
:1007F0002B070A0D101316191C1F2225280003F0C1
:10080000EBF920E002F094FE1DE002F063FD1AE037
:1008100002F012FC17E002F079FC14E002F004FB95
:1008200011E002F031FE0EE002F0EEFC0BE002F00F
:1008300095FA08E003F076FF05E002F031FF02E0F0
:1008400001F084FC00BF00BF10BD10B504460D2CA4
:100850002CD2DFE804F02B070A0D101316191C1F09
:100860002225280003F0DCF920E002F091FE1DE0D3
:1008700002F060FD1AE002F0F1FB17E002F058FC14
:1008800014E002F009FB11E002F010FE0EE002F0AD
:10089000CDFC0BE002F074FA08E003F04FFF05E036
:1008A00002F012FF02E001F057FC00BF00BF10BDD4
:1008B00010B504460D2C2CD2DFE804F02B070A0DEE
:1008C000101316191C1F2225280003F08BF920E0B5
:1008D00002F034FE1DE002F003FD1AE002F0B2FB6C
:1008E00017E002F019FC14E002F0A4FA11E002F0A3
:1008F000D1FD0EE002F08EFC0BE002F035FA08E0CC
:1009000003F016FF05E002F0D9FE02E001F08AFCD8
:1009100000BF00BF10BD00001E480078FFF7C8FFF1
:1009200037E01D480078012803D01C4800780128D2
:1009300001D1142401E04FF47A7422461849194871
:10094000006804F097FE012802D0002014490880B6
:1009500001F06EFC04F012FC0E4800781249097890
:10096000884203D10B480078FFF76FFF09480078F1
:100970000D49097888420BD006480078FFF732FF0E
:1009800009480078FFF794FF07480078014908708C
:1009900000BFC6E7000000204800002050000020F3
:1009A0006800002064000020010000207047000063
:1009B00010B5044604480068204020B10248046095
:1009C0002046FFF7F3FF10BD140401402DE9F8475E
:1009D0000346002294466EE14FF0010808FA02F443
:1009E000D1F8008008EA0400A0427DD1DFF8DCA243
:1009F000D1F80480A8EB0A09D0453AD014DCB8F14C
:100A0000030F50D009DCB8F1000F31D0B8F1010F5D
:100A10001CD0B8F1020F49D120E0B8F1110F18D065
:100A2000B8F1120F42D11EE0B9F5881F25D006DCBF
:100A3000B9F5803F20D0B9F5801F37D11AE0B9F55C
:100A4000001F18D0B9F5041F30D117E0D1F80CC041
:100A50002DE0D1F80C8008F1040C28E0D1F80C80CE
:100A600008F1080C23E0D1F80C8008F10C0C1EE012
:100A700000BF00BF00BF00BF00BF00BFD1F80880AB
:100A8000B8F1000F02D14FF0040C0BE0D1F8088050
:100A9000B8F1010F03D14FF0080C1C6102E04FF0D8
:100AA000080C5C6103E04FF0000C00E000BF00BFE9
:100AB000FF2801D8984601E003F104084646FF28C4
:100AC00002D84FEA820803E0A2F108084FEA88083A
:100AD0004746D6F800804FF00F0909FA07F928EACF
:100AE00009080CFA07F900E088E048EA0908C6F8A6
:100AF0000080D1F8048008F08058B8F1805F7DD183
:100B000000BFDFF8CC81D8F8188048F00108DFF882
:100B1000C091C9F81880C846D8F8188008F00108B4
:100B2000CDF8008000BF00BF4FEAB9384FEA920904
:100B300058F829504FEA82784FEA18794FF00F0899
:100B400008FA09F825EA0805DFF88881434502D14B
:100B50004FF0000816E0DFF88081434502D14FF0E6
:100B600001080FE0DFF87481434502D14FF002081D
:100B700008E0DFF86C81434502D14FF0030801E043
:100B80004FF004084FEA82794FEA197908FA09F818
:100B900048EA0505DFF84C814FEA920948F82950E8
:100BA000D1F8048008F48018B8F5801F0AD1DFF866
:100BB0003881D8F8008048EA0008DFF82C91C9F89D
:100BC000008009E0DFF82081D8F8008028EA0008DA
:100BD000DFF81491C9F80080D1F8048008F40018F7
:100BE000B8F5001F10D1DFF8008108F10408D8F82B
:100BF000008048EA0008DFF8F09000E05AE009F1D0
:100C00000409C9F800800DE0DFF8DC8008F1040871
:100C1000D8F8008028EA0008DFF8CC9009F1040930
:100C2000C9F80080D1F8048008F40038B8F5003F16
:100C30000ED1DFF8B480A8F10408D8F8008048EAA3
:100C40000008DFF8A490A9F10409C9F800800DE0BC
:100C5000DFF89480A8F10408D8F8008028EA00089A
:100C6000DFF88490A9F10409C9F80080D1F8048064
:100C700008F48038B8F5803F0ED1DFF86C80A8F119
:100C80000808D8F8008048EA0008DFF85C90A9F16D
:100C90000809C9F800800DE0DFF84C80A8F10808C9
:100CA000D8F8008028EA0008DFF83C90A9F108098C
:100CB000C9F80080521CD1F8008028FA02F8B8F177
:100CC000000F7FF489AEBDE8F88700000000111026
:100CD0000010024000080140000C014000100140DB
:100CE00000140140080001400804014002469368D6
:100CF0000B400BB1012000E0002070470AB10161F8
:100D000001E00B0403617047014800687047000070
:100D10000400002003480068034909780844014999
:100D200008607047040000200C00002010B508483F
:100D3000006840F0100006490860032000F0DCF86D
:100D40000F2000F007F800F05FF8002010BD000051
:100D5000002002402DE9F04188B004460027B84643
:100D6000002600BF2348C06940F004002149C86143
:100D70000846C06900F00400019000BF00BF02A94E
:100D800003A800F0FBFA069F1FB900F01FFB054601
:100D900002E000F01BFB45001748B5FBF0F0A0F1A6
:100DA000010816481649086040F2E7311448C1604E
:100DB000C0F80480002101618160816100F0C8FFFA
:100DC000064696B90E4800F0F7FF06466EB91E209B
:100DD00000F044F8102C07D2002221461E2000F01B
:100DE0004DF80848046000E00126304608B0BDE830
:100DF000F08100000010024040420F000008004057
:100E0000280100200800002008B500BF11488069B3
:100E100040F001000F4988610846806900F0010038
:100E2000009000BF00BF00BF0846C06940F080507E
:100E3000C8610846C06900F08050009000BF00BF44
:100E400000BF0549486820F0E06040F0007048604D
:100E500000BF08BD001002400000014001460846E6
:100E6000002809DB00F01F0301229A4043099B0080
:100E700003F1E023C3F8002100BF70472DE9F05FC4
:100E800080460D461646002702F0B2FF0746394657
:100E90002A46334601F00700C0F1070ABAF1040FF1
:100EA00002D94FF0040A01E0C0F1070AD14600F16F
:100EB000040ABAF1070F02D24FF0000A01E0A0F1D4
:100EC000030AD4464FF0010A0AFA09FAAAF1010A04
:100ED0000AEA020A0AFA0CFA4FF0010B0BFA0CFBB1
:100EE000ABF1010B0BEA030B4AEA0B042146404627
:100EF00002F086FFBDE8F09F00BF00F00702064B3E
:100F000019684FF6FF031940044B0B4343EA0221D3
:100F1000014B196000BF70470CED00E00000FA05BE
:100F2000012001490862704700000E42012190FA39
:100F3000A0F2B2FA82F2034B03EB8202C2F88010F5
:100F40007047000000000E420748006840F00200B1
:100F5000054908600548006840F00400034908603E
:100F600000BF00BF30BF70470070004010ED00E0D0
:100F700070B504460D461148006820F002000F4984
:100F800008600846006820F00100204308600C4813
:100F9000006840F004000A490860012D01D130BF0B
:100FA00004E040BF01F067FD01F065FD0448006802
:100FB00020F004000249086070BD0000007000408D
:100FC00010ED00E02DE9F04706464FF0000800253F
:100FD00000270024A146012E31D0022E56D0102E1B
:100FE0005FD132484468006800F0807008B3304830
:100FF000C4F38341475C04F4803078B12B484068E7
:10100000C0F340402B4911F8008004F4803040B117
:101010002948B0FBF8F000FB07F502E0274807FB82
:1010200000F52248406800F48000B0F5800F01D13F
:10103000A94603E068000321B0FBF1F932E01B4848
:10104000046A04F44070B0F5807F05D104F002001A
:1010500010B14FF4004918E004F44070B0F5007F7F
:1010600007D11248406A00F0020010B149F6404929
:101070000BE004F44070B0F5407F06D10B480068E7
:1010800000F4003008B14FF224490BE000F0AEF953
:1010900006494968C1F38131491C4900B0FBF1F9A7
:1010A00000E000BF00BF4846BDE8F08700100240E6
:1010B000F65C0008065D000800127A0000093D0099
:1010C000F8B5044600260025207800F0010000282D
:1010D0006BD000274348C06900F0805070B900BF52
:1010E0004048C06940F080503E49C8610846C06928
:1010F00000F08050009000BF00BF01273A48006810
:1011000000F48070B0B93848006840F48070364907
:101110000860FFF7F9FD064606E0FFF7F5FD801BC6
:10112000642801D90320F8BD2F48006800F48070BE
:101130000028F2D02B48006A00F440752DB3A08837
:1011400000F44070A84220D02648006A20F4407580
:10115000012026490860002008602248056205F049
:10116000010090B1FFF7D0FD064608E0FFF7CCFD87
:10117000801B41F28831884201D90320D3E7194806
:10118000006A00F002000028F0D01648006A20F43F
:1011900040706168084313490862012F04D1084672
:1011A000C06920F08050C86100BF207800F00200C4
:1011B000022807D10B48406820F44040A16808434A
:1011C00008494860207800F01000102807D1054831
:1011D000406820F48000E16808430249486000202C
:1011E000A1E70000001002400070004040044242AD
:1011F00070B504460D460CB9012070BD5A48006810
:1012000000F00700A8420ED25748006820F00700FF
:101210002843554908600846006800F00700A842C6
:1012200001D00120E9E7207800F0020002281DD15A
:10123000207800F00400042805D14C48406840F4B0
:10124000E0604A494860207800F00800082805D18D
:101250004648406840F4605044494860434840680C
:1012600020F0F000A168084340494860207800F071
:10127000010078B36068012806D13C48006800F49A
:10128000003090B90120B8E76068022806D13748DD
:10129000006800F0007040B90120AEE733480068F4
:1012A00000F0020008B90120A7E73048406820F0AC
:1012B0000300616808432D494860FFF725FD064695
:1012C00009E0FFF721FD801B41F28831884202D9F5
:1012D000032092E707E02548406800F00C006168B1
:1012E000B0EB810FEDD12048006800F00700A84264
:1012F0000ED91D48006820F0070028431A490860ED
:101300000846006800F00700A84201D0012074E7F9
:10131000207800F00400042807D11448406820F425
:10132000E060E168084311494860207800F0080057
:10133000082808D10D48406820F46050216940EA2F
:10134000C1000A49486000F061F808494968C1F3E2
:101350000311074A515CC840064908600648006806
:10136000FFF7F8FC002048E7002002400010024090
:10137000085D000810000020080000200F22026015
:101380000D4A526802F0030242600B4A526802F0B2
:10139000F0028260084A526802F4E062C260064AC3
:1013A000526802F46052D2080261044A126802F0E4
:1013B00007020A607047000000100240002002404F
:1013C00001480068704700001000002000B5FFF7DA
:1013D000F7FF04494968C1F30221034A515CC84040
:1013E00000BD000000100240185D000800B5FFF7C6
:1013F000E7FF04494968C1F3C221034A515CC84070
:1014000000BD000000100240185D000870B500210A
:101410000022002400230020134D696801F00C0510
:10142000F5B1042D02D0082D19D101E00F4819E0C3
:101430000F4DC1F38346AB5D01F4803555B10A4DC4
:101440006D68C5F340450B4E725D084D5D43B5FBBD
:10145000F2F402E0084D03FB05F4204602E000BF71
:10146000024800BF00BF70BD0010024000127A00A9
:10147000E45C0008F45C000800093D00F8B504468F
:101480000CB90120F8BD207800F00100002878D0C8
:10149000F848406800F00C0004280CD0F54840687B
:1014A00000F00C00082811D1F248406800F48030A8
:1014B000B0F5803F0AD1EF48006800F40030002802
:1014C0005FD0606800285CD10120DBE700BF606866
:1014D000B0F5803F06D1E748006840F48030E54928
:1014E000086028E0606858B9E248006820F480305D
:1014F000E04908600846006820F4802008601AE08F
:101500006068B0F5A02F0BD1DA48006840F4802065
:10151000D84908600846006840F4803008600AE056
:10152000D448006820F48030D2490860084600683A
:1015300020F48020086000BF606888B1FFF7E4FBFA
:10154000054606E0FFF7E0FB401B642801D90320B5
:1015500098E7C848006800F400300028F2D010E096
:10156000FFF7D2FB054606E0FFF7CEFB401B6428E1
:1015700001D9032086E7BF48006800F40030002846
:10158000F2D1207800F00200022857D1B948406813
:1015900000F00C0050B1B748406800F00C0008287B
:1015A00018D1B448406800F4803098B9B148006858
:1015B00000F0020020B12069012801D0012061E77C
:1015C000AC48006820F0F800616940EAC100A94910
:1015D000086033E02069E8B10120A7490860FFF7FF
:1015E00093FB054606E0FFF78FFB401B022801D95D
:1015F000032047E79F48006800F002000028F2D06F
:101600009C48006820F0F800616940EAC1009949EF
:10161000086013E0002098490860FFF775FB054655
:1016200006E0FFF771FB401B022801D9032029E7E0
:101630009048006800F002000028F2D1207800F005
:10164000080008282DD1A069B8B101208B49086095
:10165000FFF75AFB054606E0FFF756FB401B022842
:1016600001D903200EE78348406A00F002000028F9
:10167000F2D0012001F002FA13E000207F49086057
:10168000FFF742FB054606E0FFF73EFB401B022842
:1016900001D90320F6E67748406A00F002000028EE
:1016A000F2D1207800F00400042873D1002771489B
:1016B000C06900F0805070B900BF6E48C06940F04A
:1016C00080506C49C8610846C06900F080500090A5
:1016D00000BF00BF01276A48006800F48070B0B9FD
:1016E0006748006840F4807065490860FFF70CFBAC
:1016F000054606E0FFF708FB401B642801D90320DC
:10170000C0E65F48006800F480700028F2D000BF97
:10171000E068012806D15748006A40F001005549A9
:10172000086227E0E06858B95248006A20F00100DA
:10173000504908620846006A20F00400086219E077
:10174000E06805280BD14B48006A40F00400494985
:1017500008620846006A40F0010008620AE0454855
:10176000006A20F00100434908620846006A20F040
:101770000400086200BFE068A0B1FFF7C5FA0546A3
:1017800009E0FFF7C1FA401B41F28831884202D9D3
:10179000032077E622E03748006A00F002000028C4
:1017A000EFD012E0FFF7B0FA054608E0FFF7ACFA19
:1017B000401B41F28831884201D9032062E62D485E
:1017C000006A00F002000028F0D1012F05D129485D
:1017D000C06920F080502749C86100BFE069C8B3E4
:1017E0002448406800F00C00082860D0E069022816
:1017F00048D1002020490866FFF786FA054606E032
:10180000FFF782FA401B022801D903203AE6194863
:10181000006800F000700028F2D1206AB0F5803F27
:1018200007D11448406820F40030A16808431149EA
:101830004860D4E9080108430E49496821F474114D
:1018400008430C49486001200B490866FFF75CFA21
:10185000054607E03DE0FFF757FA401B022801D993
:1018600003200FE60348006800F000700028F2D063
:101870002FE000000010024000004242800442427B
:1018800000700040002014490866FFF73DFA054645
:1018900006E0FFF739FA401B022801D90320F1E5E1
:1018A0000E48006800F000700028F2D111E0E069F5
:1018B000012800D1E6E50948466806F48031206A2F
:1018C000814204D106F47011606A814201D0012086
:1018D000D8E50020D6E5000000004242001002409A
:1018E000F8B505460C4616460020009005B10CB927
:1018F0000120F8BD00226946284600F01AF808B118
:101900000120F6E7287B2070E87BE070687B607040
:10191000A87BA0705EB1E07801F0CFF8E07060784D
:1019200001F0CBF86070A07801F0C7F8A07000203B
:10193000DFE72DE9F04780460C469146002500265A
:10194000AA460027B8F1000F00D014B90120BDE865
:10195000F087D8F800004068C0F3800008B101208B
:10196000F5E7404601F070F905464FF46160B5FBBC
:10197000F0F7B5FBF0F100FB11503C21B0FBF1F0AA
:1019800060704FF46160B5FBF0F100FB11503C2139
:10199000B0FBF1F201FB1200A070182F39D3182010
:1019A000B7FBF0FAB7FBF0F100FB11702070404676
:1019B00001F03EF90646701C18B1AE4201D9761B03
:1019C00001E04FF0FF360AEB4A00C000C0EB4011C7
:1019D000C1EB0020A5EB00152946404601F0A7F910
:1019E00008B10120B3E7701C38B12E44314640469F
:1019F00001F086F940B10120A9E73146404601F0E7
:101A00007FF908B10120A2E75146404601F062F893
:101A100000E02770B9F1000F0BD0207801F04DF8ED
:101A20002070607801F049F86070A07801F045F806
:101A3000A07000208BE7000070B5044600250CB9AB
:101A4000012070BD607C20B900202074204600F089
:101A500053F802206074204600F058F918B10420B1
:101A600060740120EDE7204601F08FF818B10420E2
:101A700060740120E5E72068406820F007002168D5
:101A80004860A06828B11B48006820F0010019498F
:101A900008601848001F006820F46070A1680843BF
:101AA0001449091F08606068401C08B1656809E0B6
:101AB0000120FFF787FA05461DB904206074012054
:101AC000BFE76D1EC5F3034021688860A8B2216896
:101AD000C860204601F076F818B104206074012037
:101AE000AFE70021E17301216173A17301206074EC
:101AF0000020A6E7306C004038B504460B4920684A
:101B0000884212D1FFF70CFA00BF0948C06940F0C3
:101B100000600749C8610846C06900F00060009095
:101B200000BF00BF01200349086038BD0028004005
:101B3000001002403C0442422DE9F04704460D46A5
:101B4000904600260027B14604B115B90120BDE832
:101B5000F08700BF207C012801D10220F7E7012097
:101B6000207400BF02206074B8F1000F06D1E9783C
:101B7000E17369786173A978A1730BE0E87800F0EC
:101B800091FFE073687800F08DFF6073A87800F033
:101B900089FFA073A27B617BE07B01F06FF820736B
:101BA000207B2870204601F04FF806464FF4616014
:101BB000B6FBF0F9B9F1180F2FD91820B9FBF0F0E6
:101BC00000EB4000C000C0EB4011C1EB0020A6EBD1
:101BD00000163146204601F0AAF838B1042060749E
:101BE00000BF0020207400BF0120B0E7204601F0B4
:101BF0001FF80746781C80B1B7420ED20B48074445
:101C00003946204601F07CF838B10420607400BFEA
:101C10000020207400BF012099E70120607400BFFC
:101C20000020207400BF00BF91E700008051010038
:101C30002DE9F04704460D4690460026002704B1E2
:101C400015B90120BDE8F08700BF207C012801D133
:101C50000220F7E70120207400BF02206074B8F171
:101C6000000F0BD128784FF4616148436978C1EBCC
:101C7000011100EB8100A978461812E0287800F0E5
:101C800011FF4FF4616100FB01F9687800F00AFF71
:101C9000C0EB001009EB8009A87800F003FF09EB06
:101CA00000063146204601F042F838B10420607445
:101CB00000BF0020207400BF0120C3E720684068F7
:101CC00020F0050021684860204600F0B1FF07467B
:101CD000781C80B1B7420ED20B48074439462046E3
:101CE00001F00EF838B10420607400BF00202074A9
:101CF00000BF0120A6E70120607400BF002020740F
:101D000000BF00BF9EE700008051010070B504468F
:101D100000250CB9012070BD2068406820F0080043
:101D200021684860FEF7F0FF054607E0FEF7ECFF8C
:101D3000401BB0F57A7F01D90320ECE720684068AA
:101D400000F008000028F1D00020E4E77047704759
:101D500010B504460CB9012010BD94F83D0028B917
:101D6000002084F83C00204600F025F8022084F88A
:101D70003D00211D206801F071FD012084F846001E
:101D800000BF84F83E0001213F200155402001554D
:101D90004120015500BF00BF012084F842004320CC
:101DA0000155442001554520015500BF012084F80C
:101DB0003D000020D0E77047014691F83D00012822
:101DC00001D001207047022081F83D000868C068FA
:101DD00040F001000B68D860124B086898420BD0A5
:101DE0000868B0F1804F07D00F4B0868984203D0C5
:101DF0000E4B086898420CD10868806800F0070212
:101E0000062A0CD00868006840F001000B681860D2
:101E100005E00868006840F001000B6818600020C9
:101E2000D0E70000002C0140000400400008004002
:101E3000704770B504462068C5682068066906F0DA
:101E40000200022819D105F00200022815D1401F16
:101E500021680861012020772068806900F0030074
:101E600018B12046FFF7E4FF05E0204600F097F8A0
:101E7000204600F095F80020207706F004000428A2
:101E800019D105F00400042815D1C0432168086168
:101E9000022020772068806900F4407018B1204645
:101EA000FFF7C6FF05E0204600F079F8204600F075
:101EB00077F80020207706F00800082819D105F0EF
:101EC0000800082815D1C043216808610420207744
:101ED0002068C06900F0030018B12046FFF7A8FF92
:101EE00005E0204600F05BF8204600F059F800209D
:101EF000207706F01000102819D105F010001028E6
:101F000015D1C04321680861082020772068C06986
:101F100000F4407018B12046FFF78AFF05E0204624
:101F200000F03DF8204600F03BF80020207706F056
:101F3000010048B105F0010030B16FF001002168E7
:101F40000861204600F02EF806F08000802809D1B4
:101F500005F08000802805D1C04321680861204633
:101F6000FFF7F4FE06F04000402809D105F04000DC
:101F7000402805D1C04321680861204600F01EF8C2
:101F800006F02000202809D105F02000202805D1E6
:101F9000C043216808612046FFF7D9FE70BD704735
:101FA0007047000010B5044603492068884201D1FB
:101FB000FEF7B0FE10BD000000080040704710B5ED
:101FC00004460CB9012010BDA06900B100E000BFBB
:101FD00094F8410028B9002084F84000204600F021
:101FE00029F8242084F841002068C06820F40050BB
:101FF0002168C860204601F069FE2068006920F46D
:102000009040216808612068406920F02A0021681A
:1020100048612068C06840F400502168C860002012
:102020006064202084F8410084F84200002060634E
:1020300000BFC8E710B586B00446002002900390A8
:10204000049005901A49206888422ED100BF194893
:10205000806940F48040174988610846806900F42F
:102060008040019000BF00BF00BF0846806940F07B
:10207000040088610846806900F00400019000BFF8
:1020800000BF48150290022003900320059002A98A
:102090000948FEF79BFC4FF48060029000200390FB
:1020A000049002A90448FEF791FC06B010BD0000A0
:1020B00000380140001002400008014000BFFEE768
:1020C00010B5024641EA022305480088984204D12F
:1020D0000020034C2080012010BD0020FCE7000000
:1020E0006800002010B5044644B908211548FEF7E1
:1020F000FDFD08B9002010BD0120FCE7012C08D12E
:1021000020211048FEF7F2FD08B90020F3E7012076
:10211000F1E7022C08D1E1010A48FEF7E7FD08B912
:102120000020E8E70120E6E7032C09D10121064859
:10213000FEF7DCFD012801D10020DCE70120DAE711
:102140000120D8E7000C01400008014010B500F064
:102150009FF900F039FC10BD10B508210020FFF7F1
:10216000AFFFA8B11E480078012808D100201C4903
:102170000870012251031B48FEF7C0FD2BE001202F
:1021800017490870002241031648FEF7B7FD22E008
:1021900008210120FFF794FFA8B111480078012819
:1021A00008D100200E490870012251030D48FEF7A6
:1021B000A5FD10E001200A490870002241030948EA
:1021C000FEF79CFD07E008210220FFF779FF10B120
:1021D0000A200549087000F009F800F0F5FB10BD71
:1021E00051000020001001400100002008B50A48FD
:1021F000007840B909482C231A460A2100902A2069
:1022000000F034FB07E006482C231A460A21009010
:102210002A2000F02BFB08BD510000206678000842
:102220006E79000810B5FFF7E1FF00F0CDFB10BD9F
:1022300010B50948007801280CD100200649087023
:1022400000F026F900F0C0FB01210846FEF790FEE1
:1022500001F0B6FA10BD00005400002014480068D8
:10226000401C13490860084600684EF66021884209
:1022700008D210480078012804D100200C490860D9
:102280000C4908700A4800684EF6602188420ED357
:102290000848007858B90848007840B907480078DD
:1022A00028B90020024908600120054908707047DC
:1022B000580000201C000020500000205500002085
:1022C0005400002000B585B00020019002900390DA
:1022D000049000BF3B48806940F010003949886194
:1022E0000846806900F01000009000BF00BF00BFEA
:1022F0000846806940F0200088610846806900F047
:102300002000009000BF00BF00BF0846806940F079
:10231000040088610846806900F00400009000BF56
:1023200000BF00BF0846806940F008008861084689
:10233000806900F00800009000BF00BF0122510337
:102340002148FEF7DBFC01224FF440511F48FEF705
:10235000D5FC4FF400500190012002900390022020
:10236000049001A91848FEF731FB0120019018489C
:1023700002900220039001A91648FEF727FB4FF4B4
:1023800040500190112002900120039002200490FF
:1023900001A90E48FEF71AFB4FF49470019000203B
:1023A00002900120039001A90848FEF70FFB0022CC
:1023B00011460620FEF762FD0620FEF74FFD05B030
:1023C00000BD00000010024000100140000C014060
:1023D00000001110000801401CB500200190009081
:1023E00019481A4908604FF0FF304860002117482B
:1023F0008160FFF721FB08B1FEF7BAF920208DF8C4
:10240000040015208DF8050000208DF8060001223B
:1024100001A90E48FFF70CFC08B1FEF7A9F9052049
:102420008DF8000003208DF8010020208DF80200B7
:1024300026208DF80300012269460448FFF77CFB43
:1024400008B1FEF795F91CBD00280040CC00002023
:1024500010B50B480B4908604FF4E130486000218B
:1024600008488160C16001610C21416100218161E6
:10247000C161FFF7A4FD08B1FEF77AF910BD0000B5
:1024800000380140E000002000BFFEE700BFFEE78B
:1024900000200CE0002106E00022064B03EBC013F5
:1024A0005A544A1CD1B28029F6DB421CD0B208280B
:1024B000F0DB7047700100202DE9F04304460D4623
:1024C00016461F467F2C01DDBDE8F0833F2D00DD61
:1024D000FAE7A119802902DDC4F18001CEB2E91921
:1024E000402902DDC5F14001CFB2284630E0234645
:1024F00029E04FEAE07C00EB5C7C4FEAEC0CDFF873
:102500005C8008EBCC1C1CF803C002464FEAE07864
:1025100000EB58784FEAE808A0EBC8094FF0010833
:1025200008FA09F82CEA080C01464FEAE07800EBBB
:1025300058784FEAE808DFF8249009EBC81808F843
:1025400003C0591CCBB2A1199942D2DC411CC8B2BC
:10255000E9198142CBDC00BFB6E700007001002022
:1025600010B50446002311E080211941214009B132
:10257000012100E00021084600F048FA012000F0A7
:1025800037FA002000F034FA581CC3B2082BEBDBFA
:10259000012000F02DFA002000F02AFA10BD00B54D
:1025A000012000F033FA012000F022FA002000F0B0
:1025B0002DFA002000F01CFA00BD00B5002000F04C
:1025C00025FA012000F014FA012000F01FFA00BDE6
:1025D00000B5AE2000F028FAD52000F025FA8020C2
:1025E00000F022FAA82000F01FFA3F2000F01CFAA9
:1025F000D32000F019FA002000F016FA402000F075
:1026000013FAA12000F010FAC82000F00DFADA2029
:1026100000F00AFA122000F007FA812000F004FA14
:10262000CF2000F001FAD92000F0FEF9F12000F0EF
:10263000FBF9DB2000F0F8F9302000F0F5F9A420D8
:1026400000F0F2F9A62000F0EFF98D2000F0ECF98F
:10265000142000F0E9F9AF2000F0E6F900BD0FB456
:1026600070B58AB005460E46144612A8019002A81D
:10267000019A119901F0AAFB00200190234602AAB9
:102680003146284600F088F90AB070BC5DF814FBAA
:102690002DE9F04304460D4616461F467F2C01DD0A
:1026A000BDE8F0833F2D00DDFAE7A119802902DDA6
:1026B000C4F18001CEB2E919402902DDC5F1400123
:1026C000CFB2284630E0234629E04FEAE07C00EB19
:1026D0005C7C4FEAEC0CDFF85C8008EBCC1C1CF84F
:1026E00003C002464FEAE07800EB58784FEAE8086A
:1026F000A0EBC8094FF0010808FA09F88CEA080CA9
:1027000001464FEAE07800EB58784FEAE808DFF836
:10271000249009EBC81808F803C0591CCBB2A119C2
:102720009942D2DC411CC8B2E9198142CBDC00BF1E
:10273000B6E700007001002030B505460C4645F0B4
:10274000B00000F071F9102141EA141000F06CF9AA
:1027500004F00F0000F068F930BD0000F8B506463F
:102760000F4614461D46082D0CD1A4F12000164931
:1027700001EB00101023082239460090304600F08B
:1027800075F820E0062D0ED1A4F1200000EB4000EA
:102790000E4901EB400008230622394600903046DE
:1027A00000F064F80FE00C2D0DD1A4F1200000EB37
:1027B000C000074901EB800018230C223946009025
:1027C000304600F053F8F8BD205D000810630008A3
:1027D0004A6500082DE9FC478046894616460027D1
:1027E00000200190002538E0705D01A9C855781CD3
:1027F000C7B2032F2FDB002700240BE004EBC4013A
:10280000184A02EB810001A9FDF70CFD00B90BE0AD
:10281000601CC4B204EBC401124A02EB810012A195
:10282000FDF700FD0028E9D100BF681C032190FBE3
:10283000F1F0401E08EB001000F0FF0A04EBC400AA
:10284000084901EB8000001D10231A4649460090FC
:10285000504600F00BF8681CC5B2705D0028C3D16B
:10286000BDE8FC87A6720008000000002DE9F047D3
:1028700007460C4690469946DDF820A07F2F01DDE3
:10288000BDE8F0873F2C00DDFAE74B464246214683
:102890003846FFF711FE002570E0002669E0B81900
:1028A0007F2800DD67E0E11704EB517105EBE101E2
:1028B000072900DDE4E72046E21704EB527205EB3E
:1028C000E202344B03EBC212BB19D25C2146E31780
:1028D00004EB5373DB10A4EBC30305FB086C1AF87D
:1028E0000CC00CFA03FC42EA0C02E31704EB53732E
:1028F00005EBE303DFF89CC00CEBC31307EB060CFE
:1029000003F80C20E11704EB517105EBE101491CC0
:10291000072900DD2BE02046E21704EB527205EB9D
:10292000E202521C1B4B03EBC212BB19D25C2146C4
:10293000E31704EB5373DB10A4EBC303C3F10803E9
:1029400005FB086C1AF80CC04CFA03FC42EA0C02B6
:10295000E31704EB537305EBE3035B1CDFF834C0B0
:102960000CEBC31307EB060C03F80C2000BF701C24
:10297000C6B2464593DB00BF681CC5B2A9F1010091
:10298000C11700EB5171012202EBE101A94284DC85
:1029900000BF75E7700100202DE9F041064688462A
:1029A00015461F46002409E02A5D04FB0761C8B2F2
:1029B0003B464146FFF7D2FE601CC4B2285D0028AA
:1029C000F2D1BDE8F081000010B500240BE0002139
:1029D0002046FFF7B1FE054901EBC410802100F04D
:1029E00033F8601CC4B2082CF1DB10BD700100206C
:1029F00020B14FF48051044A116004E04FF480513B
:102A0000014A121D11607047100C014020B14FF4B3
:102A10000051044A116004E04FF40051014A121DB4
:102A200011607047100C014010B50446FFF7B7FD68
:102A30007820FFF795FD0020FFF792FD2046FFF775
:102A40008FFDFFF7BAFD10BD70B505460E46FFF7C6
:102A5000A6FD7820FFF784FD4020FFF781FD0024CC
:102A600004E0285DFFF77CFD601CC4B2B442F8DBD3
:102A7000FFF7A3FD70BD20BF00BF704708B5084930
:102A80000968C9084FF47A72B1FBF2F14143009131
:102A900000BF00BF00994A1E00920029F9D108BD6D
:102AA00010000020014600BF080900EB8000420032
:102AB00001F00F001044C0B270470146002203E04D
:102AC000521CA1F10A00C1B20A29F9D2100741EA49
:102AD000106070472DE9F04706468846002700241D
:102AE0000025A146F77B747BB57B00BF40E0012C3D
:102AF0000BD0032C09D0052C07D0072C05D0082CAF
:102B000003D00A2C01D00C2C0CD11F2D01D26D1C2E
:102B10002CE00C2C02D0641C012527E001240125A7
:102B20007F1C23E0042C05D0062C03D0092C01D0F7
:102B30000B2C06D11E2D01D26D1C17E0641C012543
:102B400014E0022C12D11C2D01D26D1C0EE01C2DA4
:102B500008D1B8B200F053F808B16D1C06E0641C4F
:102B6000012503E01D2D01D1641C012509F1010996
:102B7000C145BCD3F7737473B573EAB2E1B238469A
:102B800000F07CF83073BDE8F08770B5044600258E
:102B9000FEF7BAF8054607E0FEF7B6F8401BB0F5B9
:102BA0007A7F01D9032070BD2068406800F02000C2
:102BB0000028F1D02068406840F01000216848608B
:102BC0000020F0E770B5044600252068406820F03A
:102BD000100021684860FEF797F8054607E0FEF709
:102BE00093F8401BB0F57A7F01D9032070BD2068AF
:102BF000406800F020000028F1D00020F6E70146F0
:102C000001F0030008B1002070476420B1FBF0F22E
:102C100000FB121008B10120F6E74FF4C870B1FBB9
:102C2000F0F200FB121008B90120EDE70020EBE7FD
:102C30000146002200230868006A82B20868406AE0
:102C400083B243EA0240704730B5014600220023B8
:102C5000002400200D68AD69AAB20D68ED69ACB220
:102C60000D68AD69ABB29A4205D00D68ED6963F3AA
:102C70001F45284601E044EA024030BDF0B5044655
:102C80000B460021002504F5FA61032B1BD2C3EB90
:102C9000C30000EB03100926B0FBF6F01044001D42
:102CA0004618481E06EB90066427B0FBF7F0361A6C
:102CB000481EBF00B0FBF7F030440726B0FBF6F724
:102CC00006FB17051AE0C3EBC30000EB031009264F
:102CD000B0FBF6F01044001D084400EB91006426A0
:102CE000B1FBF6F6801B4FF4C876B1FBF6F6304424
:102CF000801E0726B0FBF6F706FB1705E8B2F0BD0D
:102D000070B504460D4600262046FFF73EFF08B189
:102D100001260AE0280C21680862A8B221684862EE
:102D20002046FFF74FFF00B10126304670BD70B559
:102D300004460D4600262046FFF727FF08B101266E
:102D40000AE0280C21688861A8B22168C861204681
:102D5000FFF738FF00B10126304670BD10B5FFF710
:102D600097FBFFF731FE10BD10B500F011F91023ED
:102D70001A4630211120FFF78BFCFFF725FE10BD0E
:102D800010B508210020FFF79BF9E0B123488078B7
:102D9000002803DC1F202149887004E01F48807848
:102DA000401E1E49887000221C491D48FEF7C4FEC3
:102DB00000F0EEF810231A4630211120FFF768FCCE
:102DC000FFF702FE29E008210120FFF779F9E0B1C1
:102DD000124880781F2803DD01201049887004E024
:102DE0000E488078401C0D49887000220B490C4821
:102DF000FEF7A2FE00F0CCF810231A463021112075
:102E0000FFF746FCFFF7E0FD07E008210220FFF78F
:102E100057F910B106200349087010BD400000208A
:102E2000CC0000200100002010B5FFF731FBFFF7B8
:102E3000CBFD10BD10B5FFF72BFB00F0A9F815482E
:102E40000078012806D002280BD0032810D00428CF
:102E50001CD114E010231A4600210846FFF718FC85
:102E600014E010231A4619460020FFF711FC0DE06C
:102E700010231A4621210020FFF70AFC06E0102348
:102E80001A4630210020FFF703FC00BF00BFFFF708
:102E90009BFD10BD4400002010B500F079F808211A
:102EA0000020FFF70DF958B137480078401E364929
:102EB000087008460078002834DC0520087031E0EE
:102EC00008210120FFF7FCF858B12F480078401C7A
:102ED0002D49087008460078052823DB012008707A
:102EE00020E008210220FFF7EBF8D8B1264800784F
:102EF000012806D0022808D003280AD0042810D1BF
:102F00000BE00220214908700BE007201F490870E0
:102F100007E008201D49087003E009201B490870DC
:102F200000BF00BF18480078012806D002280DD045
:102F3000032814D0042824D11AE010231A460021B3
:102F40000846FFF7A5FBFFF73FFD1AE010231A46DE
:102F500019460020FFF79CFBFFF736FD11E0102318
:102F60001A4621210020FFF793FBFFF72DFD08E013
:102F700010231A4630210020FFF78AFBFFF724FDBB
:102F800000BF00BF10BD0000440000200100002071
:102F900008B500221D491E48FEF7CBFC00221D4942
:102FA0001B48FEF79DFC1C482023102200210090A6
:102FB0000846FFF75BFC19A210210020FFF70AFC6E
:102FC00017A220210020FFF705FC16A230210020C7
:102FD000FFF700FC0F48C07813A3082210210090CF
:102FE0001120FFF73CFB0B48407811A30822202159
:102FF00000901120FFF733FB064880780CA30822CD
:10300000302100901120FFF72AFB08BD3D00002071
:10301000CC00002040000020BE740008E5B9B400D8
:10302000E69C8800E697A500323025303264000027
:10303000253032640000000010B5FFF729FAFFF7D1
:10304000C3FC10BD10B500F0DFF910231A461121A2
:103050001220FFF71DFBFFF7B7FC10BD10B50821CC
:103060000020FFF72DF8F0B125480078182803DB81
:1030700000202349087004E021480078401C2049C2
:10308000087000201E49887000221E48FEF7D0FDFF
:1030900000F0BAF910231A4611211220FFF7F8FAAE
:1030A000FFF792FC2BE008210120FFF709F8F0B1AF
:1030B00013480078182803DB00201149087004E049
:1030C0000F480078401C0E49087000200C49887099
:1030D00000220C48FEF7ACFD00F096F910231A46CA
:1030E00011211220FFF7D4FAFFF76EFC07E0082148
:1030F0000220FEF7E5FF10B103200349087010BD60
:1031000035000020CC0000200100002010B5FFF7A2
:10311000BFF9FFF759FC10BD10B500F075F9102389
:103120001A4621211220FFF7B3FAFFF74DFC10BD1C
:1031300010B508210020FEF7C3FF40B32F484078A8
:103140003C280DDB00202D49487008460078401EC1
:10315000087008460078182807DB0020087004E093
:1031600026484078401C2549487000202349887033
:1031700000222348FEF75CFD00F046F910231A46B2
:1031800021211220FFF784FAFFF71EFC35E0082109
:103190000120FEF795FF40B3184840783C280DDB2E
:1031A00000201649487008460078401C0870084600
:1031B0000078182807DB0020087004E00F484078EA
:1031C000401C0E49487000200C49887000220C48B1
:1031D000FEF72EFD00F018F910231A4621211220C7
:1031E000FFF756FAFFF7F0FB07E008210220FEF791
:1031F00067FF10B103200349087010BD350000209F
:10320000CC0000200100002010B5FFF741F9FFF7C6
:10321000DBFB10BD10B5FFF7BBFE10231A462021C3
:103220001120FFF735FAFFF7CFFB10BD10B50821CD
:103230000020FEF745FFE0B123484078002803DC7A
:103240000C202149487004E01F484078401E1E4968
:10325000487000221C491D48FEF76EFCFFF798FEDF
:1032600010231A4620211120FFF712FAFFF7ACFBBA
:1032700029E008210120FEF723FFE0B11248407841
:103280000C2803DD01201049487004E00E48407806
:10329000401C0D49487000220B490C48FEF74CFCBD
:1032A000FFF776FE10231A4620211120FFF7F0F9D0
:1032B000FFF78AFB07E008210220FEF701FF10B1AB
:1032C00006200349087010BD40000020CC000020FB
:1032D0000100002010B5FFF7DBF8FFF775FB10BD0C
:1032E00010B5FFF7D5F800F08FF8114800780128E5
:1032F00004D0022809D0032815D10DE010231A4666
:1033000000210846FFF7C4F90DE010231A461121E9
:103310000020FFF7BDF906E010231A462121002006
:10332000FFF7B6F900BF00BFFFF74EFB10BD00006E
:103330003C00002010B500F067F808210020FEF7DF
:10334000BFFE58B12E480078401E2D49087008462F
:10335000007800282EDC042008702BE008210120D2
:10336000FEF7AEFE58B126480078401C244908708C
:103370000846007804281DDB012008701AE00821A7
:103380000220FEF79DFEA8B11D480078012804D058
:10339000022806D003280CD107E002201949087042
:1033A00007E004201749087003E00520154908705C
:1033B00000BF00BF12480078012804D002280BD0BB
:1033C00003281BD111E010231A4600210846FFF7FD
:1033D0005FF9FFF7F9FA11E010231A4611210020D6
:1033E000FFF756F9FFF7F0FA08E010231A462121FB
:1033F0000020FFF74DF9FFF7E7FA00BF00BF10BD4F
:103400003C0000200100002008B5002216491748A2
:10341000FEF78FFA002216491448FEF761FA1548A4
:1034200020231022002100900846FFF71FFA12A265
:1034300011210020FFF7CEF910A221210020FFF773
:10344000C9F9094800780EA3082211210090122022
:10345000FFF705F90448407809A3082221210090CC
:103460001220FFF7FCF808BD35000020CC0000203A
:1034700038000020BE740008E697B600E588860094
:10348000253032640000000010B5FFF701F8FFF7A7
:103490009BFA10BD10B5FFF77BFD102320221946C3
:1034A0001120FFF7F5F8FFF78FFA10BD10B50821CE
:1034B0000020FEF705FE98B11A48C078401E194951
:1034C000C87000221848FEF737FBFFF761FD102394
:1034D000202219461120FFF7DBF8FFF775FA20E0EC
:1034E00008210120FEF7ECFD98B10E48C078401C81
:1034F0000C49C87000220C48FEF71EFBFFF748FD80
:103500001023202219461120FFF7C2F8FFF75CFABA
:1035100007E008210220FEF7D3FD10B10620034981
:10352000087010BD40000020CC00002001000020E9
:1035300010B5FEF7ADFFFFF747FA10BD10B5FEF767
:10354000A7FF00F08FF811480078012804D0022866
:1035500009D0032815D10DE010231A460021084692
:10356000FFF796F80DE01023202211210220FFF72B
:103570008FF806E01023202221210020FFF788F891
:1035800000BF00BFFFF720FA10BD0000340000208C
:1035900010B500F067F808210020FEF791FD58B142
:1035A0002E480078401E2D490870084600780028F3
:1035B0002EDC032008702BE008210120FEF780FD9F
:1035C00058B126480078401C244908700846007805
:1035D00004281DDB012008701AE008210220FEF7F4
:1035E0006FFDA8B11D480078012802D11C49087060
:1035F0000EE01A480078022803D103201849087009
:1036000006E016480078032802D106201449087005
:1036100012480078012804D002280BD003281BD1BF
:1036200011E010231A4600210846FFF731F8FFF792
:10363000CBF911E01023202211210220FFF728F8F6
:10364000FFF7C2F908E01023202221210020FFF714
:103650001FF8FFF7B9F900BF00BF10BD340000200C
:103660000100002008B5094810231A4600210090E7
:103670000846FFF7FBF806A211210220FFF7AAF87F
:1036800005A221210020FFF7A5F808BDBE7400089F
:10369000E697B6E997B40000E697A5E69C9F000080
:1036A00010B5FEF7F5FE00200249088002490880A7
:1036B00010BD00004E0000204C00002010B500F0AE
:1036C0005FF8FFF781F910BD10B5FEF7E1FE0821A4
:1036D0000020FEF7F5FC58B112480078012803D10C
:1036E00000201049087018E001200E49087014E00D
:1036F00008210120FEF7E4FC38B1002009490870D8
:10370000094908800949088007E008210220FEF7DE
:10371000D7FC10B10A200649087000F031F8FFF715
:1037200053F910BD500000204C0000204E00002036
:10373000010000200F480078012819D10E480088A8
:10374000401C0D49088008460088B0F57A7F0FDBE1
:103750000020088009480088401C08490880084665
:1037600000883C2804DB00200349088003490880C6
:1037700070470000500000204E0000204C00002048
:103780001CB5064800880649098806A30C22CDE925
:10379000001014211C20FEF762FF1CBD4E0000200B
:1037A0004C000020253032643A253033640000009C
:1037B00010B502F067F8012801D001F03FFE10BDFE
:1037C00000B593B0282109A8FCF721FD142104A815
:1037D000FCF71DFD00200090019002900390052051
:1037E00009904FF480300A9000200B9001200C903B
:1037F0000D9002201090C10311914FF4E01112912D
:1038000009A8FDF73BFE08B1FCF7B2FF0F200490BA
:1038100002200590002006904FF480600790002061
:103820000890022104A8FDF7E3FC08B1FCF7A0FF13
:1038300001200090000201906846FDF741FC08B1AC
:10384000FCF796FF13B000BD7047000010B50248AA
:10385000FEF7EFFA10BD00002801002010B5026845
:103860001C4B984208D0B0F1804F05D01A4B9842BB
:1038700002D01A4B984203D122F070024B681A43CF
:10388000144B984208D0B0F1804F05D0124B9842AB
:1038900002D0124B984203D122F44072CB681A43F3
:1038A00022F080034C6943EA040202608B68C36221
:1038B0000B688362074B984201D10B6903630123B4
:1038C0004361036903F001031BB1036923F00103A2
:1038D000036110BD002C01400004004000080040BE
:1038E00008B500208149087016E081487F490978B1
:1038F00030F8110000280ADD7D487C49097830F84D
:103900001100401E7A49794A127821F8120077484E
:103910000078401C75490870744800780428E4DB7E
:1039200074480078401C73490870084600781428D1
:1039300075DB002008706D490870D1E06E486B4956
:103940000978405C6D49694A127888546748007864
:10395000FEF7C8FB6849654A1278885408466349EF
:103960000978405C38B9654860490978405C0128AD
:1039700001D1634908700020009062485B490978D2
:10398000405C062815D2DFE800F00315395D698D2B
:10399000594856490978405C58B901205949534A59
:1039A000127888544FF47A715148504A127820F8AE
:1039B000121083E050484D490978405C01280BD132
:1039C00002215048494A12788154C8214848474A40
:1039D000127820F8121010E045484449097830F870
:1039E000110050B904214748404A1278815464209C
:1039F0003F493E4A127821F812005FE03E483B49B9
:103A00000978405C60B939480078102141EA00200B
:103A1000009003213B48354A1278815411E064E05C
:103A200033483249097830F8110050B92F480078EE
:103A3000082141EA00200090002032492B4A1278E8
:103A400088543BE02C4829490978405C012804D17E
:103A500000202C49254A127888542FE02648234913
:103A60000978405C01280BD120480078202141EAE8
:103A700000200090002123481C4A1278815410E055
:103A80001B481A49097830F8110050B917480078D6
:103A9000402141EA0020009005201A49134A12787B
:103AA00088540BE0144811490978405C012804D17E
:103AB000002014490D4A1278885400BF00BFBDF899
:103AC000000040B100231A4669460F48006801F023
:103AD00045FD0020009005480078401C034908700F
:103AE000024800780428FFF629AF08BD1E00002018
:103AF0002C0000201D0000201F00002023000020BB
:103B00001C00002027000020640000200EB50022C9
:103B100018491948FDF70DFF002218491648FDF70E
:103B2000DFFE1648807815494978144AD27814A3E4
:103B3000CDE900210290082200211320FEF78FFD1D
:103B40000C4880780B4949780A4A127810A3CDE9CD
:103B5000002102900C2210210846FEF780FD10A2E1
:103B600030215F20FEF736FE0FA230210020FEF745
:103B700031FE0EBD14000020CC00002017000020F4
:103B8000323025642D253032642D2530326400001A
:103B9000253032643A253032643A253032640000F0
:103BA000E8AEBEE7BDAE0000E88F9CE58D95000055
:103BB00008B501F077FE00900DE0FFF791FEFFF7EA
:103BC000B9FDFEF74BFB01F0F7FA00BF0121684693
:103BD00001F01EFE00BFF0E710B5FEF759FCFEF73E
:103BE000F3FE10BD10B5FFF791FF0C4800780128D7
:103BF00006D11023202230210020FEF749FD09E0E4
:103C000006480078022805D11023202230215F20A9
:103C1000FEF73EFDFEF7D8FE10BD00001B000020A1
:103C200010B5FEF735FCFFF771FF08210020FEF705
:103C300047FA58B123480078401E224908700846C8
:103C40000078002823DC0220087020E008210120F1
:103C5000FEF736FA58B11B480078401C1949087025
:103C600008460078032812DB012008700FE00821C5
:103C70000220FEF725FA50B112480078012803D13E
:103C80000A201149087002E002200F4908700D480F
:103C90000078012802D0022812D108E01023202247
:103CA00030210020FEF7F4FCFEF78EFE08E0102322
:103CB000202230215F20FEF7EBFCFEF785FE00BFDF
:103CC00000BF10BD1B0000200100002070B504469D
:103CD0002168096921F44051E268114322681161A9
:103CE0002269A1681143626941EA02052168C96835
:103CF00041F20C62914329432268D16021684969ED
:103D000021F44071A2691143226851612D4A216852
:103D1000914202D1FDF76AFB01E0FDF757FB00EB92
:103D2000C00101EB001162689200B1FBF2F100EBFF
:103D3000C00202EB001263689B00B2FBF3F2642343
:103D4000B2FBF3F202EBC20303EB0212A1EB82011E
:103D5000322202EB01116422B1FBF2F101F0F00119
:103D600000EBC00202EB001263689B00B2FBF3F2AF
:103D70006423B2FBF3F201EB021200EBC00101EB92
:103D8000001163689B00B1FBF3F100EBC00303EB90
:103D900000136668B600B3FBF6F36426B3FBF6F3D4
:103DA00003EBC30606EB0313A1EB8301322303EB02
:103DB00001116423B1FBF3F101F00F0111442268FA
:103DC000916070BD0038014000BFFEE737B5144672
:103DD0000846064B6A46214600F0F8F80446694654
:103DE000002000F08AFC20463EBD0000FB46000893
:103DF00002480068C0F30220704700000CED00E0AC
:103E000010B5002804DB0A07130E054A135406E018
:103E10000A07140E034A00F00F031B1FD45410BDF1
:103E200000E400E018ED00E002E008C8121F08C13D
:103E3000002AFAD170477047002001E001C1121F2B
:103E4000002AFBD1704700002DE9FF5F82B00021FE
:103E5000DDE90430020DDDF840B0034318D044F62C
:103E60001050A2F2FF3242431514119801281FD0BE
:103E7000A5EB0B00401C5FEA000A4FF000064E4F16
:103E8000DFF83891B046504615D5CAF1000413E06A
:103E9000119801244AA3012801D16FEA0B0102986D
:103EA000119AC0E90031C0E9024206B0BDE8F09FB6
:103EB000CBF10000DFE704460021404A491842EBFD
:103EC0000450CDE9001012E0E00707D032463B462F
:103ED00040464946FCF75BFA8046894632463B46F7
:103EE00010461946FCF753FA06460F466410002C9C
:103EF000EAD1DDE90401DDE90023BAF1000F06DAB9
:103F0000FCF745FA42464B46FCF741FA05E0FCF760
:103F1000B0FA42464B46FCF7ACFA04460E46002285
:103F2000284BFCF715FB03D84FF0FF30014607E0A4
:103F30000022254B20463146FCF782F9FCF7E5FBD1
:103F4000102409E0002C0ADB0A220023FCF72EFBD8
:103F5000039B30321A55641E50EA0102F2D1641CF0
:103F6000039AC4F111031444119A012A03D00122C7
:103F700008430DD10AE0084304D000204FF0110B94
:103F8000119072E7A3EB0B056D1E0DE05B4504DDA0
:103F90004FF0000205F1010504E003DA4FF00002E2
:103FA000A5F10105002AECD002981199C0E902316F
:103FB000C0E9004579E70000000014400000F03F30
:103FC000300000000000F0430000E03F2DE9FF4F0B
:103FD00095B09B468946064600250FE2252877D1F5
:103FE00000242746F84A0121059400E0044316F80E
:103FF000013F203B01FA03F01042F7D130782A2824
:1040000011D06FF02F033078A0F13002092A16D8B2
:10401000059A44F0020402EB820203EB42021044D0
:10402000761C0590EFE759F8042B0592002A03DA75
:10403000504244F40054059044F00204761C307859
:104040002E2816D116F8010F44F004042A280DD0AA
:104050006FF02F023078A0F13003092B09D807EB5D
:10406000870302EB4303C718761CF3E759F8047B78
:10407000761C30786C280FD006DC4C2817D06828C6
:104080000DD06A2814D104E0742810D07A280FD1FA
:104090000DE044F400140AE044F4801401E044F418
:1040A00040147278824202D104F58014761C761C8A
:1040B000307866280BD013DC582877D009DC00282C
:1040C00075D04528F6D04628F4D047281AD19DE16E
:1040D00018E0632835D0642879D0652812D195E19D
:1040E000702873D008DC6728F1D069286FD06E285B
:1040F0000DD06F2806D1B5E073282CD0752875D067
:10410000782874D05A46179990476D1C75E1C4F30E
:104110000250022809D003280DD0D9F80010042835
:104120000DD00D6009F1040967E1D9F80010EA1714
:10413000C1E90052F6E7D9F800100D80F2E70D70E2
:10414000F0E719F8041B8DF8001000208DF801002D
:10415000EA46012003E059F804AB4FF0FF30610755
:104160004FF0000102D40DE008F101018846B94288
:104170000FDA8045F8DB1AF808100029F4D108E0BE
:1041800008F1010188468142FADB1AF8081000297B
:10419000F6D105985B46A0EB080721463846179AEA
:1041A00000F094FA284400EB080507E04DE029E10F
:1041B0000DE01AF8010B5A4617999047B8F101081B
:1041C000F7D25B4621463846179A13E142E00A22AD
:1041D0000092C4F302524FF0000A022A08D059F8A4
:1041E00004CB032A4FEAEC710AD00DE029E02AE063
:1041F00009F1070121F00702F2E802C1914609E046
:104200000FFA8CFC4FEAEC71042A03D14FFA8CFCB4
:104210004FEAEC71002907DA0A460021DCF1000CB4
:1042200061EB02012D2202E0220504D52B228DF83C
:104230000420012203E0E20701D02022F7E79046A4
:1042400059E00A2102E010220DE010214FF0000A8F
:1042500000910BE010224FF0000A44F004040827FC
:10426000009203E008224FF0000A0092C4F30252C9
:10427000022A05D059F804CB0021032A08D009E00E
:1042800009F1070121F00702F2E802C1914605E0B9
:104290001FFA8CFC042A01D10CF0FF0C4FF000082F
:1042A000220728D5702806D0009B83F0100353EA1C
:1042B0000A0305D00EE040228DF80420012208E018
:1042C0005CEA010206D030228DF804208DF805004A
:1042D00002229046009B83F0080353EA0A030AD1A6
:1042E0005CEA010201D1620705D530228DF8042075
:1042F0004FF001087F1E582804D034A003900EA868
:1043000002900DE036A0F9E753466046009AFCF7AC
:104310004DF984460398825C0298401E0290027018
:104320005CEA0100F0D1029806A9081A00F1200AFF
:10433000600702D524F4803400E00127574502DDF0
:10434000A7EB0A0000E0002000EB0A0100900598AE
:104350004144401A0590E00306D45B462146179A73
:10436000059800F0B3F90544002706E001A85A4675
:10437000C05D179990476D1C7F1C4745F6DBE00335
:104380000CD55B462146179A059800F09FF9054425
:1043900004E030205A46179990476D1C0099481E3A
:1043A00000900029F5DC08E0029802995A4600784E
:1043B000491C0291179990476D1CBAF10001AAF1AE
:1043C000010AF1DC65E100000928010030313233D7
:1043D0003435363738396162636465660000000041
:1043E000303132333435363738394142434445462B
:1043F0000000000000F058F90544761C30780028D1
:104400007FF4ECAD19B02846BDE8F08F620700D408
:10441000062709F1070222F0070CFCE80223E14617
:1044200003F000485FEA080C02D00FF2702C0DE098
:104430005FEA045C02D50FF2682C07E05FEAC47CF7
:1044400002D00FF2602C01E0AFF2700C4FF0FF3899
:1044500023F00043CDF850C065280CD006DC452879
:1044600009D046281DD047283DD13DE0662818D008
:1044700067287ED138E00021112F01DB112000E0F8
:10448000781CCDE9000106A90EA8FFF7DDFCDDE9E7
:104490000F010E9A03910021009207F1010A049185
:1044A0004DE04FF000400097CDE9011006A90EA89D
:1044B000FFF7CAFCDDE90F0203920E9B119900225F
:1044C000DDF80CA00093049211B9791C00EB010AED
:1044D000B7EB0A0004D4C0F1FF3007F1010A0490E1
:1044E000AAEB0700019044E0012F00DA0127002128
:1044F000112F01DD112000E03846CDE9000106A9A9
:104500000EA8FFF7A1FCDDE90F010E9A039100212F
:1045100004910092BA4621070CD40399514500DA60
:104520008A46BAF1010F05DD009AAAF10101515C3A
:10453000302908D0B84202DA10F1040F06DA01215E
:10454000CDE9011015E0AAF10101E9E7002805DC39
:10455000049901440491AAEB000102E0411C514579
:1045600000DD8A460499401A401C01904FF000403B
:104570000290200704D40198504501DBCDF8048057
:1045800000208DF84F0002980DF14F07B0F1004F59
:1045900025D02B200E9002984FF0020800280CDA4C
:1045A000404202902D200E9007E00A210298FBF76E
:1045B000E7FF3031029007F8011DB8F10001A8F1C2
:1045C0000108F2DC02980028EFD1791E0E980870DD
:1045D000307800F0200040F0450007F8020D12A8E6
:1045E000C01B00F107081498007800B1012000EB0F
:1045F0000A01019801EBE07105984144401A401E00
:104600000590E00306D45B462146179A059800F012
:104610005DF805441498007818B15A4617999047E8
:104620006D1CE00324D55B462146179A059800F0DF
:104630004DF805441CE00498002807DBDDE9030180
:10464000884203DD0098405C179901E017993020FB
:104650005A469047049805F10105401C04900198C2
:10466000401E019004D12E205A46179990476D1C88
:10467000BAF10001AAF1010ADDDC05E017F8010B2F
:104680005A46179990476D1CB8F10001A8F101082E
:10469000F4DC5B462146179A0598ABE62D00000036
:1046A0002B000000200000002DE9F0410446002509
:1046B0001E461746880404D405E039462020B0473A
:1046C0006D1C641EF9D52846BDE8F0812DE9F04146
:1046D000044600251E469046C80301D5302700E059
:1046E0002027880404D505E041463846B0476D1CB4
:1046F000641EF9D52846BDE8F0810A68531C0B609A
:1047000010707047FCF712FBFFF75AF8FDF7DAFD5F
:10471000FDF79EFEFDF760FEFDF75AFFFCF72CF853
:1047200000BFFEE710B5FDF7B3FEFEF74DF910BD73
:1047300010B500F06FF8FEF747F910BD10B531481D
:104740000078012802D100F0DFF810BD0821002018
:10475000FDF7B6FC98B12C480078401E40B22A49BB
:10476000087001202949087026490870264890F9E8
:10477000000000283EDA0320234908703AE00821AF
:104780000120FDF79DFCA0B11F480078401C40B2FD
:104790001D49087002201D49087001201949087040
:1047A000194890F90000032824DD002016490870FC
:1047B00020E008210220FDF783FCD8B1124890F9CF
:1047C000000030B1012808D002280AD0032810D1F7
:1047D0000BE001200E4908700BE00B200C4908701B
:1047E00007E00C200A49087003E00D200849087012
:1047F00000BF00BF03480078012801D100F084F811
:1048000000BFA2E7480000204B0000204700002026
:104810000100002008B5FDF73BFE37482C231A465F
:104820000A2100902A20FEF721F8344890F9000070
:10483000012826DB314890F90000022810DB2F48C0
:1048400090F90000801E2E4901EBC0102D49009008
:1048500009786039C8B220231A461021FEF706F8FD
:10486000264890F90000401E254901EBC01025495B
:10487000009009783039C8B220231A461021FDF77C
:10488000F5FF1F481D4991F9001000EBC1102023CE
:104890001A46102100901B480078FDF7E7FF1748E3
:1048A00090F90000022826DC144890F90000012845
:1048B00010DC1349114890F90000801C01EBC01076
:1048C0001049009009786031C8B220231A4610219F
:1048D000FDF7CCFF0A49094890F90000401C01EBA4
:1048E000C0100849009009783031C8B220231A4618
:1048F0001021FDF7BBFF08BD5E77000845000020D2
:10490000DE7400084900002010B52C48007801280A
:1049100026D12B4890F90000002809DC0320284903
:1049200008700020274908703020274908703FE0B0
:104930002548007825490978084423490870084625
:104940000078602834D100201E4908701C48007887
:10495000401E40B21A49087030201B49087027E0F9
:1049600016480078022823D1154890F90000032842
:1049700008DB0020124908701249087030201249E3
:10498000087015E01048007810490978401A0E495F
:1049900008700846007858B900200A49087008488D
:1049A0000078401C40B20649087030200649087063
:1049B000FFF730FFFEF708F810BD000047000020A9
:1049C0004500002048000020490000204A00002047
:1049D0002DE9F04705460E46294807682948D0F8D2
:1049E00000802948D0F8009028480068001D00F099
:1049F000F5FB50B92548006890F82C10012088403C
:104A000023490968814322480160681CE0B9DEB18E
:104A100000BF204948681D49096888601B498268B1
:104A20000968CA6019490968091D826851601749F7
:104A30000968091D8160174A144909684A611146CD
:104A40000968491C116018E07C191048006844602E
:104A5000BC4206D20D480168091D484600F0E2FB41
:104A60000BE00A480168091D404600F0DBFB0A48DC
:104A70000068844201D208480460BDE8F087000065
:104A80008000002070000020740000206C000020D6
:104A900084000020240600209C00002010B504465D
:104AA00000F0DAFB34480068401C334908603348A2
:104AB000006840B9314804600846006801280DD1FB
:104AC00000F0E4F90AE02E48006838B92B48006885
:104AD000C06AE16A884201D8284804602948006811
:104AE000401C2849086008460068606400BF94F8CC
:104AF0002C10012088402449096808432249086095
:104B000000BFE16A01EB8101204A02EB81014868A4
:104B1000A0608268E260211D826851608160E16A64
:104B200001EB8101194A02EB81026261E16A01EB4A
:104B30008101164A52F82110491CE26A02EB8202F6
:104B4000124B43F8221000BF00BF00F097FB0C4847
:104B5000006878B100BF09480068C06AE16A88420D
:104B600007D24FF080500A490860BFF34F8FBFF360
:104B70006F8F00BF10BD00007C0000206C00002083
:104B8000880000209800002084000020700500208C
:104B900004ED00E010B516E000F05EFB0C48C068C4
:104BA000C468201D00F01AFB0A480068401E09492D
:104BB000086009480068401E0749086000F05EFB75
:104BC000204600F0B6F8044800680028E4D110BD83
:104BD000100600207C0000207800002070B50446FC
:104BE0000D46206C70B1216CE0680144E160D4E9AD
:104BF0000210884201D32168E1602846226CE168F6
:104C0000FBF7ECFA70BD2DE9F04104460F4615465E
:104C10004FF00008A66B206C28B37DB93946226C92
:104C20006068FBF7DBFA216C606808446060D4E9D7
:104C30000101884217D32068606014E03946226C75
:104C4000E068FBF7CBFA216CE068411AE16021686B
:104C5000E068884203D2216CA068411AE160022D0D
:104C600001D106B1761E701CA0634046BDE8F081FC
:104C7000F0B587B001260027002408E012A0005DEF
:104C800003A9085503A8005D00B902E0641C102CBC
:104C9000F4DB00BF002510E00D4F0E4800EB85004F
:104CA00000210B468022CDE9001003A9384600F010
:104CB00093FD064606B902E06D1C012DECDB00BF3A
:104CC000304607B0F0BD000049444C4500000000EC
:104CD000B14D0008A00000202DE9FF5F074688467F
:104CE00016469946DDE90EABB00000F0B5F9054671
:104CF00075B1542000F0B0F904462CB1542120467F
:104D0000FBF785FA256304E0284600F0C7FA00E0C7
:104D1000002454B100204B4632464146CDE900AB59
:104D2000CDE90240384600F06CF8204604B0BDE8FA
:104D3000F09F10B50446206B00F0B0FA204600F05A
:104D4000ADFA10BD30B54FF48843144800F00704A5
:104D50002CB1C01D20F00700104C041B1B1B104C75
:104D6000206000240E4D6C60C218083A22F0070241
:104D70000C4C226000240B4D2D686C60094D2D6891
:104D80002C600146541A4C60064C24680C60064D99
:104D90004C682C60054D4C682C6030BD38060020F6
:104DA000AC000020B4000020BC000020B8000020AF
:104DB00000BFFFF7EFFE064800680128F9D94FF061
:104DC000805004490860BFF34F8FBFF36F8FF0E747
:104DD0007005002004ED00E02DE9F04106460D4687
:104DE00017469846069C0DB9246000E02760E663EC
:104DF00025640121204600F061FB84F84C80BDE869
:104E0000F0812DE9F05F81460E4617469A46DDF89F
:104E100028800C9CB900A522206BFBF7F1F9781EC5
:104E2000216B01EB800B2BF0070B7EB1002507E017
:104E3000715D04F134004155705D00B902E06D1CF4
:104E4000102DF5D300BF002143200155B8F1050F07
:104E500001D34FF00408C4F82C80201D00F0DFF9C6
:104E600004F1180000F0DBF92461C8F10500A0612D
:104E7000646252464946584600F06EF920600B982D
:104E800008B10B980460BDE8F09F000010B5002445
:104E900007E004EB84010F4A02EB810000F0B2F955
:104EA000641C052CF5D30C4800F0ACF90B4800F05D
:104EB000A9F90B4800F0A6F90A4800F0A3F90A483E
:104EC00000F0A0F90448094908600448084908604E
:104ED00010BD000070050020D4050020E80500206A
:104EE000FC05002010060020240600207000002091
:104EF0007400002010B50146164800E00068036801
:104F00008B42FBD30246436813448B4204D143686F
:104F10004C682344436001460A464B6813440468C6
:104F2000A34211D10C4C03682468A34208D04B68FB
:104F30000468646823444B6003681B680B6005E0E9
:104F4000054B1B680B6001E003680B60884200D0D2
:104F5000016010BDAC000020B400002070B5054613
:104F600000F07AF9A86B08B9012400E0002400F0F1
:104F700085F9204670BD70B5054600F06DF9A86B47
:104F8000E96B884201D1012400E0002400F076F9A9
:104F9000204670BD09480068006808B9012000E09B
:104FA000002020B14FF0FF300549086005E00348BC
:104FB0000068C068006802490860704770000020FF
:104FC0009C00002000BFBF2080F31188BFF34F8FEB
:104FD000BFF36F8F00BF00BFFEE770B5044600F05F
:104FE0003BF994F9455010E0606A08B9012000E0EF
:104FF000002038B904F1240000F02AFD18B100F0B7
:105000008BF900E003E0681E45B2002DECDC00BF28
:10501000FF2084F8450000F031F900F01DF994F903
:10502000445010E0206908B9012000E0002048B990
:1050300004F1100000F00CFD08B100F06DF9681EDD
:1050400045B200E001E0002DECDC00BFFF2084F859
:10505000440000F013F970BD2DE9F04704464FF00D
:105060000009DCB114F1090F01D9012000E0002092
:1050700098B9083404F0070080B104F00700C0F1CB
:105080000808C8F1FF30A04201D2012000E0002052
:1050900008B9444402E0002400E0002400F078F95C
:1050A0002848006808B9FFF74DFE012000EBE470C6
:1050B000002841D0002C3FD02348006884423BD8D0
:1050C000224E3046056801E02E462D686868A042F1
:1050D00002D228680028F7D11A48006885422BD0F0
:1050E000306800F10809286830606868001B1028E3
:1050F00007D92F196868001B78606C6030683860C9
:105100003760114968680968081A0F49086008463D
:1051100000680F490968884203D20B4800680C49AF
:105120000860686840F00040686000202860094816
:105130000068401C0749086000F016FD4846BDE8BD
:10514000F0870000B4000020B8000020AC00002070
:10515000BC000020C0000020001F4FF080730360DF
:10516000001F21F001030360001F034B036014388C
:105170000260203870470000C54F000810B50C4889
:105180000078012812D1002009490870FDF780F944
:10519000FDF71AFC4FF48070FBF7C8FE0548006865
:1051A00040F0040003490860FBF7CEFE10BD00008C
:1051B000550000200070004010B50648007838B94E
:1051C00020210320FCF77CFF012801D1024908704F
:1051D00010BD0000540000205500002001460A695F
:1051E000D1E901309860D1E90103586050688842E4
:1051F00001D188685060002008611068401E10606E
:105200001068704700F1080141604FF0FF31816084
:1052100000F10801C16001610021016070470021B7
:105220000161704710B502460B685C1C0CB910692F
:1052300007E002F1080000E04068446824689C42EE
:10524000FAD944684C604C68A160886041600A618A
:105250001468641C146010BD00BFBF2080F3118867
:10526000BFF34F8FBFF36F8F00BF03480068401C30
:105270000149086070470000C80000200648006827
:10528000401E054908600846006820B9002080F3E8
:10529000118800BF00BF7047C800002070B50646E7
:1052A0003546E6B1083D2C466068C00FB8B12068AD
:1052B000A8B9606820F00040606000F069F8084913
:1052C000606809680844064908602046FFF712FE36
:1052D00004480068401C0349086000F045FC70BDAC
:1052E000B8000020C400002000204FF0E021086139
:1052F0008861024848610720086170473F19010032
:10530000034909680160034909684160704700006A
:1053100094000020800000200120014908607047AF
:105320009000002070B505460C460548016818310C
:105330002846FFF777FF01212046FFF749FB70BDA4
:105340006C00002010B5FFF793FC0446012C14D12B
:1053500000BFBF2080F31188BFF34F8FBFF36F8F63
:1053600000BF4FF0FF300649086001200549086082
:1053700000200549086000F047F80448006810BDA7
:105380009C0000208800002080000020A400002055
:1053900002480068401C014908607047A8000020CE
:1053A0001448006818B101201349086021E000206A
:1053B0001149086000BF11480068B0FA80F0C0F1E0
:1053C0001F0100BF01EB81020D4B03EB820042681D
:1053D0005268426000F108024368934201D1C268FA
:1053E00042604268D268074B1A6000BF00BF18468F
:1053F00000687047A8000020900000208400002072
:10540000700500206C00002010B50A48006840F4C8
:105410007F00084908600846006840F07F40086047
:10542000FFF762FF002004490860FAF77BFE0020C6
:1054300010BD000020ED00E0C800002010B500BF46
:10544000BF2080F31188BFF34F8FBFF36F8F00BF72
:1054500000F02EFA18B14FF080500449086000BFE8
:10546000002080F3118800BF10BD000004ED00E0B3
:105470002DE9F84304460E4617460025DCB1681EA8
:10548000B0FBF4F0B04216D304FB06F010F1510F5C
:1054900011D804FB06F909F15000FFF7DDFD0546C0
:1054A0004DB1A84608F150083B46424631462046D9
:1054B0000095FFF791FC2846BDE8F8832DE9F041FF
:1054C00005460E4601272C46002C41D0E06B0028F3
:1054D0003ED0B91EE06BB1FBF0F0216C884237D3AF
:1054E000FFF7BAFED4E90F12206801FB0200A060AA
:1054F0000020A06320686060E06B401E226C216881
:1055000000FB0211E160FF2084F8440084F84500AC
:105510009EB9206908B9012000E00020A8B904F173
:10552000100000F095FA80B14FF080500A490860F1
:10553000BFF34F8FBFF36F8F07E004F11000FFF749
:1055400061FE04F12400FFF75DFEFFF797FE00E027
:1055500000273846BDE8F08104ED00E02DE9FF4367
:1055600083B0074688461D464FF000093C4600BF01
:10557000FFF772FEA06BE16B884201D3022D28D1A8
:105580002A4641462046FFF73EFB0646606A08B9B8
:10559000012000E0002068B904F1240000F058FA6E
:1055A00088B14FF0805032490860BFF34F8FBFF38E
:1055B0006F8F08E03EB14FF080502D490860BFF377
:1055C0004F8FBFF36F8FFFF759FE012007B0BDE883
:1055D000F083059818B9FFF751FE0020F6E7B9F1FE
:1055E000000F04D101A8FFF78BFE4FF00109FFF770
:1055F00045FEFFF7CDFEFFF72FFE94F94400401C57
:1056000010B9002084F8440094F94500401C10B9FA
:10561000002084F84500FFF731FE05A901A800F03D
:10562000ABF8F0B92046FFF7A6FCA0B104F11000DA
:105630000599FFF777FE2046FFF7CFFC00F094FABC
:10564000002895D14FF0805009490860BFF34F8F73
:10565000BFF36F8F8CE72046FFF7BFFC00F084FAA2
:1056600086E72046FFF7B9FC00F07EFA0020ADE7A0
:1056700004ED00E02DE9F74183B005460F464FF0F9
:1056800000082C4600BFFFF7E7FDA66BF6B13946D0
:105690002046FFF7A3FA701EA063206908B9012015
:1056A00000E0002060B904F1100000F0D1F938B139
:1056B0004FF080502F490860BFF34F8FBFF36F8FBB
:1056C000FFF7DCFD012006B0BDE8F081059818B9B0
:1056D000FFF7D4FD0020F6E7B8F1000F04D101A8D0
:1056E000FFF70EFE4FF00108FFF7C8FDFFF750FE71
:1056F000FFF7B2FD94F94400401C10B9002084F873
:10570000440094F94500401C10B9002084F845007D
:10571000FFF7B4FD05A901A800F02EF8F0B9204666
:10572000FFF71CFCA0B104F124000599FFF7FAFD76
:105730002046FFF752FC00F017FA0028A3D14FF0E3
:1057400080500C490860BFF34F8FBFF36F8F9AE70B
:105750002046FFF742FC00F007FA94E72046FFF7E7
:105760003CFC00F001FA2046FFF7F8FB00288AD045
:105770000020A8E704ED00E070B506460C46FFF7F0
:105780006BFD134802687068131A2068401C08B942
:10579000002519E00F4930680968884206D0706812
:1057A000904203D80125002020600DE02068984237
:1057B00007D92068C01A20603046FFF7A1FD0025F8
:1057C00002E0002020600125FFF758FD284670BD4B
:1057D00080000020940000202DE9FC5F06460F4663
:1057E00090469946DDE90CAB4B4642463946304679
:1057F000CDE900ABFFF770FA054625B12846FFF763
:105800004DF9012401E04FF0FF342046BDE8FC9F34
:105810002DE9F047044688464FF00009FFF7B8FD30
:1058200016480668206800EB08052068B04207D9D2
:105830002068A8420BD9B54209D94FF0010906E00A
:105840002068A84201D8B54201D94FF0010925606E
:10585000B9F1000F03D0A81B0021FFF7B9F800F041
:1058600083F907463FB94FF0805005490860BFF300
:105870004F8FBFF36F8F4846BDE8F0878000002050
:1058800004ED00E00549096809B9012005E0044973
:10589000096809B9022000E0002070478800002054
:1058A000A80000200149086870470000800000201F
:1058B0002DE9F04100275B48006800287DD15A4857
:1058C0000068451C5848056095B900BF5748D0F896
:1058D000008057480068554908605548C0F8008066
:1058E00054480068401C53490860FFF753FB00BF51
:1058F0005148006885427DD300BF4C48006800686D
:1059000008B9012000E0002020B14FF0FF304A49E3
:1059100008606EE045480068C068C4686668B542C3
:1059200002D24548066064E000BF6069D4E9021213
:105930008A60D4E902214A60211D42688A4201D16D
:10594000E1684160002262610168491E016000BF98
:10595000A06AA0B100BFA06AD4E907128A60D4E9A6
:1059600007214A6004F1180142688A4201D1216A84
:1059700041600022A2620168491E016000BF00BFB1
:1059800094F82C10012088402C49096808432B49C1
:10599000086000BFE16A01EB8101294A02EB810145
:1059A0004868A0608268E260211D82685160816061
:1059B000E16A01EB8101224A00E02BE002EB810267
:1059C0006261E16A01EB81011D4A52F82110491C14
:1059D000E26A02EB82021A4B43F8221000BF00BFBA
:1059E0001849E06A0968C96A884286D9012784E7AC
:1059F00000E000BF13480068C06A00EB8000104957
:105A000051F82000012800D901270F48006800B193
:105A1000012704E00D480068401C0C490860384626
:105A2000BDE8F081A8000020800000207000002068
:105A300074000020940000209C00002084000020BE
:105A4000700500206C000020900000208C000020D9
:105A500070B50346D868C16800BF886AD1E90745B8
:105A6000A560D1E90754656001F118044568A542B5
:105A700001D10C6A446000258D620468641E0460D4
:105A800000BF33480068002842D100BF4869D1E90F
:105A90000245A560D1E9025465600C1D4568A54228
:105AA00001D1CC68446000254D610468641E046027
:105AB00000BF00BF91F82C400120A040254C246875
:105AC0002043244C206000BFCC6A04EB8404224DA8
:105AD00005EB8404606888608568CD600C1D85686E
