:020000040800F2
:10000000F008002001010008F5220008951F0008F3
:10001000F1220008A5060008FD3A000800000000D3
:10002000000000000000000000000000B92B0008E4
:10003000A906000800000000D7280008793400084D
:100040001B0100081B0100081B0100081B01000820
:100050001B0100081B0100081B0100081B01000810
:100060001B0100081B0100081B0100081B01000800
:100070001B0100081B0100081B0100081B010008F0
:100080001B0100081B0100081B0100081B010008E0
:100090001B0100081B0100081B0100081B010008D0
:1000A0001B0100081B0100081B0100081B010008C0
:1000B0000D3500081B0100081B0100081B0100088A
:1000C0001B0100081B0100081B0100081B010008A0
:1000D0001B0100081B0100081B0100081B01000890
:1000E0001B0100081B0100081B010008DFF80CD0F1
:1000F00000F0C6FA0048004739440008F008002024
:100100000648804706480047FEE7FEE7FEE7FEE7B1
:10011000FEE7FEE7FEE7FEE7FEE7FEE7093500083B
:10012000ED000008202A04DB203A21FA02F0002129
:10013000704721FA02F3D040C2F1200291400843F7
:1001400019467047D2B201E000F8012B491EFBD2DC
:1001500070470022F6E710B513460A4604461946D2
:10016000FFF7F0FF204610BD10B5002200E0521C42
:10017000835C8C5CA34201D1002BF8D1D8B2E1B2F0
:10018000401A10BD2DE9FE4F804681EA0300C00FE2
:100190000C46009021F0004123F00045B8EB02002E
:1001A000A94105D24046214690461C460B460246D0
:1001B00023F00040104347D0270DC7F30A00C3F3D4
:1001C0000A510290401A019040286BDAC3F31300E1
:1001D00040F4801B0098924620B10023D2EB030A22
:1001E00063EB0B0B01985946C0F14002504600F0FA
:1001F000B0F906460D4650465946019A00F0B8F946
:1002000010EB08006141002487EA115284EAE77389
:100210001A4340D0009A62B3019A012A4FEA07526A
:1002200015DC001B61EB02014FF0004202EA0752AD
:10023000CDE90042001C41F5801132462B4600F00A
:10024000B8F903B0BDE8F08F40462146F9E7001B3E
:1002500061EB0201001C41F5801300185B4120187E
:10026000A2F5001747EB030140EAD570B6196D41BE
:1002700011E06D084FEA360645EAC0754FEA0752AD
:10028000001B61EB0201001C41F5801149084FEA97
:1002900030000019514132462B4603B0BDE8F04F03
:1002A00000F078B90098012240000023D0EB020250
:1002B00063EBE073009821464FEAE074B8EB00006E
:1002C00061EB0401E9E783F000435BE781F0004163
:1002D00058E72DE9FE4F81EA030404F0004421F0C1
:1002E000004100944FF0000B23F0004350EA01045A
:1002F0005ED052EA03045BD0C3F30A54C1F30A553B
:100300002C44A4F2F3340194A0FB0254C1F3130172
:1003100041F48011C3F3130343F4801301FB02443F
:1003200000FB034E840A970A44EA815447EA835744
:10033000A4FB076802958D0A05FB07854FEA932CFD
:1003400004FB0C542705029D4FEA065847EA16376E
:10035000B5EB08056EEB070C870E920E47EA811786
:1003600042EA8312A7FB0201B6EB0B0164EB000427
:100370002B0D43EA0C335E1844EB1C50DA46514611
:10038000E7FB0201C5F313044FEA0B3343EA1453AE
:100390004FEA0432019C43EA0603A4F10C040294E0
:1003A000009CCDE900B400F004F903B0BDE8F08F83
:1003B00000200146F9E72DE9F04D81EA030404F03D
:1003C000004B21F0004514464FF0000A23F0004195
:1003D00050EA050220D054EA01021DD0C5F30A57A5
:1003E0000246C5F31303C1F31300C1F30A5640F4E8
:1003F000801543F48013A7EB0608101BD64608F2BD
:10040000FD3873EB050002D308F1010801E09218F2
:100410005B41B8F1000F03DA00200146BDE8F08D22
:1004200000204FF48011064684460EE0171B73EB44
:10043000050705D3121B63EB050306434CEA010CC9
:1004400049084FEA300092185B4150EA0107EDD1AC
:1004500052EA030012D082EA040083EA050108434D
:1004600005D0101BAB4106D20122002306E000227A
:100470004FF0004302E06FF0010253101AEB060048
:100480004CEB085110EB0A0041EB0B01BDE8F04DBD
:1004900000F080B830B5041E71F1000404DB4FF0A9
:1004A0000044404264EB0101141E73F1000405DBBB
:1004B0001C464FF00043524263EB0403994208BFCD
:1004C000904230BD30B50B46014600202022012469
:1004D00009E021FA02F59D4205D303FA02F5491B12
:1004E00004FA02F52844151EA2F10102F1DC30BD28
:1004F0002DE9F05F0546002092469B468846064659
:10050000814640241BE02846414647462246FFF7E5
:1005100009FE53465A46C01A914110D31146184657
:10052000224600F016F82D1A67EB01084F462246C6
:100530000120002100F00DF817EB00094E41201EAC
:10054000A4F10104DFDC484631462A464346BDE8B3
:10055000F09F202A04DB203A00FA02F100207047C5
:100560009140C2F1200320FA03F3194390407047F1
:10057000202A06DBCB17203A41FA02F043EAE07367
:1005800006E041FA02F3D040C2F120029140084354
:100590001946704710B5141E73F1000408DA401CA8
:1005A00041F1000192185B411A4301D120F0010092
:1005B00010BD2DE9F04D92469B4611B1B1FA81F282
:1005C00002E0B0FA80F220329046FFF7C2FF044604
:1005D0000F4640EA0A0041EA0B0153465A460843D7
:1005E00013D0114653EA010019D0C8F14002504619
:1005F000FFF798FD05460E46504659464246FFF71E
:10060000A8FF084305D0012004E020463946BDE894
:10061000F08D0020054346EAE0762C4337430A98E4
:100620006305E40AA0EB08000022FD0A44EA4754EF
:100630000A3002D500200146E9E701051019694199
:10064000DDE9084500196941BDE8F04DA2E7C1F3B5
:100650000A52C1F3130140F2FF3341F480119A4270
:1006600002DA00200146704740F233439A42A2F278
:10067000334202DC5242FFF755BDFFF76ABF00006C
:10068000064C074D06E0E06840F0010394E80700DF
:1006900098471034AC42F6D3FFF72CFDC86400082D
:1006A000E864000800BFFEE7704772B600BFFEE7CF
:1006B00010B504460D2C2CD2DFE804F02B070A0DF0
:1006C000101316191C1F2225280003F033F920E00F
:1006D00002F0B2FD1DE002F0A5FC1AE002F09EFB64
:1006E00017E002F0F3FB14E002F0BCFA11E002F0B4
:1006F0004FFD0EE002F042FC0BE002F05EFA08E073
:1007000003F0CAFE05E002F031FE02E001F07CFCDD
:1007100000BF00BF10BD10B504460D2C2CD2DFE881
:1007200004F02B070A0D101316191C1F2225280090
:1007300003F012F920E002F091FD1DE002F084FCCC
:100740001AE002F07DFB17E002F0D2FB14E002F0A9
:100750009BFA11E002F02EFD0EE002F021FC0BE00E
:1007600002F03EFA08E003F0A3FE05E002F012FEFC
:1007700002E001F04FFC00BF00BF10BD10B5044601
:100780000D2C2CD2DFE804F02B070A0D10131619DC
:100790001C1F2225280003F0D3F820E002F052FDB0
:1007A0001DE002F045FC1AE002F03EFB17E002F00B
:1007B00093FB14E002F05CFA11E002F0EFFC0EE0B3
:1007C00002F0E2FB0BE002F0FEF908E003F06AFE43
:1007D00005E002F0D9FD02E001F082FC00BF00BF9D
:1007E00010BD00002DE9F8470346002294466EE153
:1007F0004FF0010808FA02F4D1F8008008EA04007A
:10080000A0427DD1DFF8DCA2D1F80480A8EB0A0970
:10081000D0453AD014DCB8F1030F50D009DCB8F160
:10082000000F31D0B8F1010F1CD0B8F1020F49D13F
:1008300020E0B8F1110F18D0B8F1120F42D11EE02C
:10084000B9F5881F25D006DCB9F5803F20D0B9F571
:10085000801F37D11AE0B9F5001F18D0B9F5041F71
:1008600030D117E0D1F80CC02DE0D1F80C8008F1A0
:10087000040C28E0D1F80C8008F1080C23E0D1F832
:100880000C8008F10C0C1EE000BF00BF00BF00BFD1
:1008900000BF00BFD1F80880B8F1000F02D14FF0BF
:1008A000040C0BE0D1F80880B8F1010F03D14FF030
:1008B000080C1C6102E04FF0080C5C6103E04FF093
:1008C000000C00E000BF00BFFF2801D8984601E0FF
:1008D00003F104084646FF2802D84FEA820803E0E5
:1008E000A2F108084FEA88084746D6F800804FF082
:1008F0000F0909FA07F928EA09080CFA07F900E0D4
:1009000088E048EA0908C6F80080D1F8048008F0B9
:100910008058B8F1805F7DD100BFDFF8CC81D8F876
:10092000188048F00108DFF8C091C9F81880C8465F
:10093000D8F8188008F00108CDF8008000BF00BF8B
:100940004FEAB9384FEA920958F829504FEA8278AD
:100950004FEA18794FF00F0808FA09F825EA080558
:10096000DFF88881434502D14FF0000816E0DFF838
:100970008081434502D14FF001080FE0DFF8748118
:10098000434502D14FF0020808E0DFF86C8143458F
:1009900002D14FF0030801E04FF004084FEA8279DA
:1009A0004FEA197908FA09F848EA0505DFF84C8199
:1009B0004FEA920948F82950D1F8048008F48018C9
:1009C000B8F5801F0AD1DFF83881D8F8008048EAEE
:1009D0000008DFF82C91C9F8008009E0DFF82081D9
:1009E000D8F8008028EA0008DFF81491C9F80080E0
:1009F000D1F8048008F40018B8F5001F10D1DFF812
:100A0000008108F10408D8F8008048EA0008DFF8FF
:100A1000F09000E05AE009F10409C9F800800DE007
:100A2000DFF8DC8008F10408D8F8008028EA000824
:100A3000DFF8CC9009F10409C9F80080D1F80480EE
:100A400008F40038B8F5003F0ED1DFF8B480A8F103
:100A50000408D8F8008048EA0008DFF8A490A9F15B
:100A60000409C9F800800DE0DFF89480A8F10408BB
:100A7000D8F8008028EA0008DFF88490A9F104097A
:100A8000C9F80080D1F8048008F48038B8F5803FB8
:100A90000ED1DFF86C80A8F10808D8F8008048EA89
:100AA0000008DFF85C90A9F10809C9F800800DE0A2
:100AB000DFF84C80A8F10808D8F8008028EA000880
:100AC000DFF83C90A9F10809C9F80080521CD1F860
:100AD000008028FA02F8B8F1000F7FF489AEBDE873
:100AE000F8870000000011100010024000080140CB
:100AF000000C0140001001400014014008000140BA
:100B000008040140024693680B400BB1012000E04D
:100B1000002070470AB1016101E00B0403617047D6
:100B20000148006870470000040000200348006886
:100B3000034909780844014908607047040000200F
:100B40000C00002010B50848006840F0100006496D
:100B50000860032000F0A8F80F2000F007F800F06C
:100B60002BF8002010BD00000020024070B50446A4
:100B70000E4800784FF47A71B1FBF0F00C49096827
:100B8000B1FBF0F5284600F04BFF08B1012070BD25
:100B9000102C07D200222146501E00F047F80548CD
:100BA000046001E00120F2E70020F0E70C000020E3
:100BB000100000200800002008B500BF114880691F
:100BC00040F001000F4988610846806900F001008B
:100BD000009000BF00BF00BF0846C06940F08050D1
:100BE000C8610846C06900F08050009000BF00BF97
:100BF00000BF0549486820F0E06040F000704860A0
:100C000000BF08BD00100240000001400146084638
:100C1000002809DB00F01F0301229A4043099B00D2
:100C200003F1E023C3F8002100BF70472DE9F05F16
:100C300080460D461646002702F074FF07463946E7
:100C40002A46334601F00700C0F1070ABAF1040F43
:100C500002D94FF0040A01E0C0F1070AD14600F1C1
:100C6000040ABAF1070F02D24FF0000A01E0A0F126
:100C7000030AD4464FF0010A0AFA09FAAAF1010A56
:100C80000AEA020A0AFA0CFA4FF0010B0BFA0CFB03
:100C9000ABF1010B0BEA030B4AEA0B042146404679
:100CA00002F048FFBDE8F09F00BF00F00702064BCE
:100CB00019684FF6FF031940044B0B4343EA022126
:100CC000014B196000BF70470CED00E00000FA0511
:100CD000012001490862704700000E422DE9F047EB
:100CE00006464FF00008002500270024A146012EEB
:100CF00031D0022E56D0102E5FD1324844680068A1
:100D000000F0807008B33048C4F38341475C04F4BA
:100D1000803078B12B484068C0F340402B4911F82F
:100D2000008004F4803040B12948B0FBF8F000FBAB
:100D300007F502E0274807FB00F52248406800F469
:100D40008000B0F5800F01D1A94603E068000321BF
:100D5000B0FBF1F932E01B48046A04F44070B0F5CE
:100D6000807F05D104F0020010B14FF4004918E073
:100D700004F44070B0F5007F07D11248406A00F0DB
:100D8000020010B149F640490BE004F44070B0F5A0
:100D9000407F06D10B48006800F4003008B14FF2E4
:100DA00024490BE000F08CF906494968C1F3813110
:100DB000491C4900B0FBF1F900E000BF00BF484604
:100DC000BDE8F0870010024046470008564700087B
:100DD00000127A0000093D00F8B5044600260025FF
:100DE000207800F0010000286BD000274348C0693C
:100DF00000F0805070B900BF4048C06940F080509A
:100E00003E49C8610846C06900F08050009000BFAC
:100E100000BF01273A48006800F48070B0B9384834
:100E2000006840F4807036490860FFF779FE064696
:100E300006E0FFF775FE801B642801D90320F8BD8A
:100E40002F48006800F480700028F2D02B48006A18
:100E500000F440752DB3A08800F44070A84220D063
:100E60002648006A20F440750120264908600020C9
:100E700008602248056205F0010090B1FFF750FEBE
:100E8000064608E0FFF74CFE801B41F2883188429D
:100E900001D90320D3E71948006A00F002000028B6
:100EA000F0D01648006A20F4407061680843134986
:100EB0000862012F04D10846C06920F08050C86143
:100EC00000BF207800F00200022807D10B484068DC
:100ED00020F44040A168084308494860207800F0A9
:100EE0001000102807D10548406820F48000E16810
:100EF0000843024948600020A1E7000000100240BA
:100F0000007000404004424270B504460D460CB9E2
:100F1000012070BD5A48006800F00700A8420ED2B8
:100F20005748006820F007002843554908600846E4
:100F3000006800F00700A84201D00120E9E720780E
:100F400000F0020002281DD1207800F004000428DF
:100F500005D14C48406840F4E0604A494860207838
:100F600000F00800082805D14648406840F4605069
:100F7000444948604348406820F0F000A1680843B5
:100F800040494860207800F0010078B3606801288B
:100F900006D13C48006800F4003090B90120B8E761
:100FA0006068022806D13748006800F0007040B938
:100FB0000120AEE73348006800F0020008B90120C4
:100FC000A7E73048406820F00300616808432D49D6
:100FD0004860FFF7A5FD064609E0FFF7A1FD801B6D
:100FE00041F28831884202D9032092E707E0254880
:100FF000406800F00C006168B0EB810FEDD1204833
:10100000006800F00700A8420ED91D48006820F0D3
:10101000070028431A4908600846006800F00700E6
:10102000A84201D0012074E7207800F004000428D1
:1010300007D11448406820F4E060E1680843114992
:101040004860207800F00800082808D10D48406862
:1010500020F46050216940EAC1000A49486000F06C
:101060003FF808494968C1F30311074A515CC84079
:101070000649086006480068FFF778FD002048E749
:1010800000200240001002405847000810000020D5
:101090000800002001480068704700001000002090
:1010A00000B5FFF7F7FF04494968C1F30221034A7D
:1010B000515CC84000BD00000010024068470008B5
:1010C00000B5FFF7E7FF04494968C1F3C221034AAD
:1010D000515CC84000BD0000001002406847000895
:1010E00070B500210022002400230020134D696800
:1010F00001F00C05F5B1042D02D0082D19D101E045
:101100000F4819E00F4DC1F38346AB5D01F4803504
:1011100055B10A4D6D68C5F340450B4E725D084DE3
:101120005D43B5FBF2F402E0084D03FB05F42046F5
:1011300002E000BF024800BF00BF70BD00100240C7
:1011400000127A00344700084447000800093D00B7
:10115000F8B504460CB90120F8BD207800F0010074
:10116000002878D0F848406800F00C0004280CD023
:10117000F548406800F00C00082811D1F24840689A
:1011800000F48030B0F5803F0AD1EF48006800F4E9
:10119000003000285FD0606800285CD10120DBE7C8
:1011A00000BF6068B0F5803F06D1E748006840F4B2
:1011B0008030E549086028E0606858B9E248006876
:1011C00020F48030E04908600846006820F4802060
:1011D00008601AE06068B0F5A02F0BD1DA4800680B
:1011E00040F48020D84908600846006840F4803008
:1011F00008600AE0D448006820F48030D2490860D2
:101200000846006820F48020086000BF606888B14C
:10121000FFF786FC054606E0FFF782FC401B6428CA
:1012200001D9032098E7C848006800F4003000287E
:10123000F2D010E0FFF774FC054606E0FFF770FC03
:10124000401B642801D9032086E7BF48006800F4EA
:1012500000300028F2D1207800F00200022857D197
:10126000B948406800F00C0050B1B748406800F041
:101270000C00082818D1B448406800F4803098B9B0
:10128000B148006800F0020020B12069012801D0B7
:10129000012061E7AC48006820F0F800616940EA8D
:1012A000C100A949086033E02069E8B10120A749DD
:1012B0000860FFF735FC054606E0FFF731FC401BF0
:1012C000022801D9032047E79F48006800F0020088
:1012D0000028F2D09C48006820F0F800616940EADC
:1012E000C1009949086013E0002098490860FFF7A1
:1012F00017FC054606E0FFF713FC401B022801D946
:10130000032029E79048006800F002000028F2D18D
:10131000207800F0080008282DD1A069B8B101207C
:101320008B490860FFF7FCFB054606E0FFF7F8FB7A
:10133000401B022801D903200EE78348406A00F0D1
:1013400002000028F2D0012001F0C6FA13E00020CC
:101350007F490860FFF7E4FB054606E0FFF7E0FB86
:10136000401B022801D90320F6E67748406A00F0C6
:1013700002000028F2D1207800F00400042873D184
:1013800000277148C06900F0805070B900BF6E48F6
:10139000C06940F080506C49C8610846C06900F0DF
:1013A0008050009000BF00BF01276A48006800F429
:1013B0008070B0B96748006840F480706549086083
:1013C000FFF7AEFB054606E0FFF7AAFB401B6428CB
:1013D00001D90320C0E65F48006800F4807000284F
:1013E000F2D000BFE068012806D15748006A40F0FB
:1013F00001005549086227E0E06858B95248006A80
:1014000020F00100504908620846006A20F00400FC
:10141000086219E0E06805280BD14B48006A40F0EB
:101420000400494908620846006A40F00100086269
:101430000AE04548006A20F0010043490862084676
:10144000006A20F00400086200BFE068A0B1FFF766
:1014500067FB054609E0FFF763FB401B41F288315B
:10146000884202D9032077E622E03748006A00F07C
:1014700002000028EFD012E0FFF752FB054608E01B
:10148000FFF74EFB401B41F28831884201D903200F
:1014900062E62D48006A00F002000028F0D1012F1A
:1014A00005D12948C06920F080502749C86100BF94
:1014B000E069C8B32448406800F00C00082860D0F8
:1014C000E069022848D1002020490866FFF728FB80
:1014D000054606E0FFF724FB401B022801D9032044
:1014E0003AE61948006800F000700028F2D1206A3E
:1014F000B0F5803F07D11448406820F40030A1685F
:10150000084311494860D4E9080108430E49496875
:1015100021F4741108430C49486001200B49086606
:10152000FFF7FEFA054607E03DE0FFF7F9FA401B3A
:10153000022801D903200FE60348006800F000707C
:101540000028F2D02FE000000010024000004242CC
:101550008004424200700040002014490866FFF7F2
:10156000DFFA054606E0FFF7DBFA401B022801D947
:101570000320F1E50E48006800F000700028F2D169
:1015800011E0E069012800D1E6E50948466806F463
:101590008031206A814204D106F47011606A814270
:1015A00001D00120D8E50020D6E50000000042422D
:1015B00000100240F8B505460C4616460020009083
:1015C00005B10CB90120F8BD00226946284600F09B
:1015D0001AF808B10120F6E7287B2070E87BE0705C
:1015E000687B6070A87BA0705EB1E07801F093F931
:1015F000E070607801F08FF96070A07801F08BF9ED
:10160000A0700020DFE72DE9F04780460C469146A8
:1016100000250026AA460027B8F1000F00D014B913
:101620000120BDE8F087D8F800004068C0F38000D2
:1016300008B10120F5E7404601F034FA05464FF4C1
:101640006160B5FBF0F7B5FBF0F100FB11503C21F8
:10165000B0FBF1F060704FF46160B5FBF0F100FB9E
:1016600011503C21B0FBF1F201FB1200A070182FC9
:1016700039D31820B7FBF0FAB7FBF0F100FB11707B
:101680002070404601F002FA0646701C18B1AE42C6
:1016900001D9761B01E04FF0FF360AEB4A00C0008B
:1016A000C0EB4011C1EB0020A5EB001529464046D8
:1016B00001F06BFA08B10120B3E7701C38B12E4479
:1016C0003146404601F04AFA40B10120A9E73146CF
:1016D000404601F043FA08B10120A2E751464046D6
:1016E00001F026F900E02770B9F1000F0BD0207847
:1016F00001F011F92070607801F00DF96070A078A8
:1017000001F009F9A07000208BE7000070B50446D5
:1017100000250CB9012070BD607C20B90020207428
:10172000204600F053F802206074204600F058F97B
:1017300018B1042060740120EDE7204601F053F950
:1017400018B1042060740120E5E72068406820F0AB
:10175000070021684860A06828B11B48006820F095
:101760000100194908601848001F006820F46070E3
:10177000A16808431449091F08606068401C08B14B
:10178000656809E00120FFF7A9FA05461DB90420A4
:1017900060740120BFE76D1EC5F3034021688860B7
:1017A000A8B22168C860204601F03AF918B10420B7
:1017B00060740120AFE70021E17301216173A1731F
:1017C000012060740020A6E7306C004038B5044664
:1017D0000B492068884212D1FFF77AFA00BF094806
:1017E000C06940F000600749C8610846C06900F060
:1017F0000060009000BF00BF01200349086038BDB1
:1018000000280040001002403C0442422DE9F0470D
:1018100004460D46904600260027B14604B115B98E
:101820000120BDE8F08700BF207C012801D1022003
:10183000F7E70120207400BF02206074B8F1000FA8
:1018400006D1E978E17369786173A978A1730BE037
:10185000E87801F055F8E073687801F051F86073AA
:10186000A87801F04DF8A073A27B617BE07B01F0CA
:1018700033F92073207B2870204601F013F90646C7
:101880004FF46160B6FBF0F9B9F1180F2FD91820A9
:10189000B9FBF0F000EB4000C000C0EB4011C1EB21
:1018A0000020A6EB00163146204601F06EF938B153
:1018B0000420607400BF0020207400BF0120B0E746
:1018C000204601F0E3F80746781C80B1B7420ED2FB
:1018D0000B4807443946204601F040F938B104204E
:1018E000607400BF0020207400BF012099E7012030
:1018F000607400BF0020207400BF00BF91E70000AB
:10190000805101002DE9F04704460D46904600261F
:10191000002704B115B90120BDE8F08700BF207C85
:10192000012801D10220F7E70120207400BF022026
:101930006074B8F1000F0BD128784FF4616148430F
:101940006978C1EB011100EB8100A978461812E01B
:10195000287800F0D5FF4FF4616100FB01F9687849
:1019600000F0CEFFC0EB001009EB8009A87800F072
:10197000C7FF09EB00063146204601F006F938B1F1
:101980000420607400BF0020207400BF0120C3E762
:101990002068406820F0050021684860204601F07A
:1019A00075F80746781C80B1B7420ED20B48074441
:1019B0003946204601F0D2F838B10420607400BFE7
:1019C0000020207400BF0120A6E70120607400BF42
:1019D0000020207400BF00BF9EE70000805101007E
:1019E00070B5044600250CB9012070BD2068406820
:1019F00020F0080021684860FFF792F8054607E0EC
:101A0000FFF78EF8401BB0F57A7F01D90320ECE791
:101A10002068406800F008000028F1D00020E4E7CA
:101A200070B504462546681EB0F1807F01D30120C1
:101A30000FE0681E4FF0E02148610F214FF0FF30AA
:101A400002F078F800204FF0E0218861072008615B
:101A5000002070BD7047704730B502460B4600BF8E
:101A600092F83C00012801D1022030BD012082F80B
:101A70003C0000BF022082F83D00106844681068F6
:101A8000816824F070041868044310684460104DA5
:101A90001068A8420BD01068B0F1804F07D00D4DF0
:101AA0001068A84203D00C4D1068A84205D121F05F
:101AB00080015868014310688160012082F83D0070
:101AC00000BF002082F83C0000BF00BFCDE700004F
:101AD000002C0140000400400008004010B50446FE
:101AE0000CB9012010BD94F83D0028B9002084F8FD
:101AF0003C00204600F026F8022084F83D00211D1D
:101B0000206801F00BFD012084F8460000BF84F836
:101B10003E0001213F200155402001554120015543
:101B200000BF00BF012084F842004320015544203B
:101B300001554520015500BF012084F83D000020DB
:101B4000D0E7000038B504462068B0F1804F15D1C9
:101B500000BF0B48C06940F001000949C861084650
:101B6000C06900F00100009000BF00BF00221146D4
:101B70001C20FFF75BF81C20FFF748F838BD000079
:101B800000100240014691F83D00012801D00120DB
:101B90007047022081F83D000868C06840F00100ED
:101BA0000B68D860124B086898420BD00868B0F1F7
:101BB000804F07D00F4B0868984203D00E4B08683F
:101BC00098420CD10868806800F00702062A0CD001
:101BD0000868006840F001000B68186005E00868BC
:101BE000006840F001000B6818600020D0E700009A
:101BF000002C014000040040000800402DE9F041A5
:101C000004460D46002700BF94F83C00012802D18D
:101C10000220BDE8F081012084F83C0000BF0220D2
:101C200084F83D002068866826F0770626F47F4613
:101C3000206886602868502833D00CDC202850D0DB
:101C400004DC00284BD0102851D149E0302849D07D
:101C500040284CD139E060282DD0702807D0B0F54D
:101C6000805F03D0B0F5005F41D10DE041E0D5E9E0
:101C700002136A68206801F093FC2068866846F0C9
:101C800077062068866034E0D5E902136A68206828
:101C900001F086FC2068806840F4804021688860FC
:101CA00027E0EA686968206801F08EFC502120680E
:101CB00001F081FC1DE0EA686968206801F097FC8A
:101CC0006021206801F077FC13E0EA686968206809
:101CD00001F07AFC4021206801F06DFC09E000BFB2
:101CE00000BF00BF2968206801F065FC01E0012702
:101CF00000BF00BF012084F83D0000BF002084F831
:101D00003C0000BF384684E7704770B50446206841
:101D1000C5682068066906F00200022819D105F09E
:101D20000200022815D1401F216808610120207798
:101D30002068806900F0030018B12046FFF7E4FF37
:101D400005E0204600F097F8204600F095F80020C6
:101D5000207706F00400042819D105F004000428B7
:101D600015D1C0432168086102202077206880696E
:101D700000F4407018B12046FFF7C6FF05E020468A
:101D800000F079F8204600F077F80020207706F080
:101D90000800082819D105F00800082815D1C0430B
:101DA00021680861042020772068C06900F00300E2
:101DB00018B12046FFF7A8FF05E0204600F05BF8C9
:101DC000204600F059F80020207706F01000102877
:101DD00019D105F01000102815D1C0432168086101
:101DE000082020772068C06900F4407018B12046B0
:101DF000FFF78AFF05E0204600F03DF8204600F09E
:101E00003BF80020207706F0010048B105F0010002
:101E100030B16FF0010021680861204600F02EF813
:101E200006F08000802809D105F08000802805D1C7
:101E3000C043216808612046FFF70CFE06F0400011
:101E4000402809D105F04000402805D1C043216851
:101E50000861204600F01EF806F02000202809D175
:101E600005F02000202805D1C043216808612046E4
:101E7000FFF7F1FD70BD70477047000010B50446D4
:101E80000348844203D101F0C7FB01F0B7FA10BD4B
:101E90005C000020704710B504460CB9012010BD4D
:101EA000A06900B100E000BF94F8410028B900200B
:101EB00084F84000204600F029F8242084F84100EE
:101EC0002068C06820F400502168C860204601F0F6
:101ED00097FD2068006920F490402168086120681F
:101EE000406920F02A00216848612068C06840F4F9
:101EF00000502168C86000206064202084F8410000
:101F000084F842000020606300BFC8E710B586B0C7
:101F10000446002002900390049005901A4920681E
:101F200088422ED100BF1948806940F4804017498B
:101F300088610846806900F48040019000BF00BFBE
:101F400000BF0846806940F0040088610846806947
:101F500000F00400019000BF00BF4815029002206D
:101F600003900320059002A90948FEF73BFC4FF4BB
:101F70008060029000200390049002A90448FEF7BC
:101F800031FC06B010BD00000038014000100240D6
:101F90000008014000BFFEE702460748805C084099
:101FA00040B1012904D00448805C8843024B985416
:101FB000012070470020FCE71C00002010B50446FB
:101FC00044B908210F48FEF79DFD08B9002010BD57
:101FD0000120FCE7012C08D120210A48FEF792FDE0
:101FE00008B90020F3E70120F1E7022C08D1E10154
:101FF0000448FEF787FD08B90020E8E70120E6E77E
:102000000120E4E7000C014010B500F075F900F084
:102010000FFC10BD10B508210020FFF7BDFFA8B1CF
:102020001E480078012808D100201C4908700122B0
:1020300051031B48FEF76EFD2BE001201749087085
:10204000002241031648FEF765FD22E00821012029
:10205000FFF7A2FFA8B111480078012808D100209D
:102060000E490870012251030D48FEF753FD10E0A0
:1020700001200A490870002241030948FEF74AFD81
:1020800007E008210220FFF787FF10B10A20054969
:10209000087000F009F800F0CBFB10BD47000020ED
:1020A000001001400100002008B50A48007840B93E
:1020B00009482C231A460A2100902A2000F00AFB26
:1020C00007E006482C231A460A2100902A2000F037
:1020D00001FB08BD47000020B6620008BE6300088F
:1020E00010B5FFF7E1FF00F0A3FB10BD00B585B010
:1020F0000020019002900390049000BF3248806954
:1021000040F01000304988610846806900F01000F6
:10211000009000BF00BF00BF0846806940F020006B
:1021200088610846806900F02000009000BF00BF71
:1021300000BF0846806940F0080088610846806951
:1021400000F00800009000BF00BF00BF0846806993
:1021500040F0040088610846806900F004000090A7
:1021600000BF00BF012251031848FEF7D3FC012233
:102170004FF440511648FEF7CDFC4FF4005001904B
:102180000120029003900220049001A90F48FEF75D
:1021900029FB4FF440500190112002900120039040
:1021A0000220049001A90A48FEF71CFB4FF494702A
:1021B0000190002002900120039001A90448FEF73D
:1021C00011FB05B000BD00000010024000100140EE
:1021D000000C01401CB500200190009019481A49DC
:1021E00008604FF0FF304860002117488160FFF71A
:1021F0008DFA08B1FEF759FA20208DF80400152059
:102200008DF8050000208DF80600012201A90E4876
:10221000FFF778FB08B1FEF748FA05208DF80000BB
:1022200003208DF8010020208DF8020026208DF873
:102230000300012269460448FFF7E8FA08B1FEF7F7
:1022400034FA1CBD002800404800002000B587B0CB
:1022500000200390049005900690019002904FF0AA
:10226000804014490860472048600021114881607F
:102270004FF47A71C1600021016180218161FFF713
:102280002DFC08B1FEF711FA4FF48050039003A91A
:102290000848FFF7B3FC08B1FEF707FA00200190E9
:1022A000029001A90348FFF7D7FB08B1FEF7FDF93B
:1022B00007B000BD5C00002010B50B480B4908605A
:1022C0004FF4E1304860002108488160C16001613D
:1022D0000C21416100218161C161FFF7DCFD08B182
:1022E000FEF7E3F910BD000000380140A400002013
:1022F00000BFFEE700BFFEE700200CE0002106E083
:102300000022064B03EBC0135A544A1CD1B2802959
:10231000F6DB421CD0B20828F0DB7047EC0000204E
:102320002DE9F04304460D4616461F467F2C01DD7D
:10233000BDE8F0833F2D00DDFAE7A119802902DD19
:10234000C4F18001CEB2E919402902DDC5F1400196
:10235000CFB2284630E0234629E04FEAE07C00EB8C
:102360005C7C4FEAEC0CDFF85C8008EBCC1C1CF8C2
:1023700003C002464FEAE07800EB58784FEAE808DD
:10238000A0EBC8094FF0010808FA09F82CEA080C7C
:1023900001464FEAE07800EB58784FEAE808DFF8AA
:1023A000249009EBC81808F803C0591CCBB2A11936
:1023B0009942D2DC411CC8B2E9198142CBDC00BF92
:1023C000B6E70000EC00002070B50546002411E0DF
:1023D00080212141294009B1012100E00021084666
:1023E00000F046FA012000F037FA002000F034FA3D
:1023F000601CC4B2082CEBDB012000F02DFA002099
:1024000000F02AFA70BD10B5012000F031FA012069
:1024100000F022FA002000F02BFA002000F01CFA55
:1024200010BD10B5002000F023FA012000F014FACE
:10243000012000F01DFA10BD10B5AE2000F024FA06
:10244000D52000F021FA802000F01EFAA82000F02C
:102450001BFA3F2000F018FAD32000F015FA0020F4
:1024600000F012FA402000F00FFAA12000F00CFA60
:10247000C82000F009FADA2000F006FA122000F075
:1024800003FA812000F000FACF2000F0FDF9D920F6
:1024900000F0FAF9F12000F0F7F9DB2000F0F4F990
:1024A000302000F0F1F9A42000F0EEF9A62000F0B1
:1024B000EBF98D2000F0E8F9142000F0E5F9AF20E9
:1024C00000F0E2F910BD0FB470B58AB005460E46B3
:1024D000144612A8019002A8019A119901F010FB6C
:1024E00000200190234602AA3146284600F088F9D0
:1024F0000AB070BC5DF814FB2DE9F04304460D46AC
:1025000016461F467F2C01DDBDE8F0833F2D00DD20
:10251000FAE7A119802902DDC4F18001CEB2E919E0
:10252000402902DDC5F14001CFB2284630E0234604
:1025300029E04FEAE07C00EB5C7C4FEAEC0CDFF832
:102540005C8008EBCC1C1CF803C002464FEAE07824
:1025500000EB58784FEAE808A0EBC8094FF00108F3
:1025600008FA09F88CEA080C01464FEAE07800EB1B
:1025700058784FEAE808DFF8249009EBC81808F803
:1025800003C0591CCBB2A1199942D2DC411CC8B27C
:10259000E9198142CBDC00BFB6E70000EC00002067
:1025A00070B505460C4645F0B00000F06DF91021FD
:1025B00041EA141000F068F904F00F0000F064F92B
:1025C00070BD0000F8B506460F4614461D46082D9E
:1025D0000CD1A4F12000164901EB001010230822B1
:1025E00039460090304600F075F820E0062D0ED1F7
:1025F000A4F1200000EB40000E4901EB400008234D
:10260000062239460090304600F064F80FE00C2DA9
:102610000DD1A4F1200000EBC000074901EB8000C0
:1026200018230C2239460090304600F053F8F8BDCC
:1026300070470008604D00089A4F00082DE9FC47DC
:10264000804689461646002700200190002538E084
:10265000705D01A9C855781CC7B2032F2FDB002776
:1026600000240BE004EBC401184A02EB810001A92D
:10267000FDF77AFD00B90BE0601CC4B204EBC401A5
:10268000124A02EB810012A1FDF76EFD0028E9D18C
:1026900000BF681C032190FBF1F0401E08EB001006
:1026A00000F0FF0A04EBC400084901EB8000001DA4
:1026B00010231A4649460090504600F00BF8681C5B
:1026C000C5B2705D0028C3D1BDE8FC87F65C000888
:1026D000000000002DE9F04707460C469046994659
:1026E000DDF820A07F2F01DDBDE8F0873F2C00DD65
:1026F000FAE74B46424621463846FFF711FE0025D1
:1027000070E0002669E0B8197F2800DD67E0E11776
:1027100004EB517105EBE101072900DDE4E72046F8
:10272000E21704EB527205EBE202344B03EBC212E8
:10273000BB19D25C2146E31704EB5373DB10A4EB07
:10274000C30305FB086C1AF80CC00CFA03FC42EA40
:102750000C02E31704EB537305EBE303DFF89CC0B3
:102760000CEBC31307EB060C03F80C20E11704EB8A
:10277000517105EBE101491C072900DD2BE02046E2
:10278000E21704EB527205EBE202521C1B4B03EB07
:10279000C212BB19D25C2146E31704EB5373DB1062
:1027A000A4EBC303C3F1080305FB086C1AF80CC0C3
:1027B0004CFA03FC42EA0C02E31704EB537305EBFB
:1027C000E3035B1CDFF834C00CEBC31307EB060C10
:1027D00003F80C2000BF701CC6B2464593DB00BF57
:1027E000681CC5B2A9F10100C11700EB51710122AB
:1027F00002EBE101A94284DC00BF75E7EC00002098
:102800002DE9F0410646884615461F46002409E09A
:102810002A5D04FB0761C8B23B464146FFF7D2FE82
:10282000601CC4B2285D0028F2D1BDE8F081000030
:1028300010B500240BE000212046FFF7B1FE05494A
:1028400001EBC410802100F02FF8601CC4B2082CEA
:10285000F1DB10BDEC00002010B5044622464FF419
:1028600080510248FEF756F910BD0000000C0140EF
:1028700010B5044622464FF400510248FEF74AF9CB
:1028800010BD0000000C014010B50446FFF7BBFD71
:102890007820FFF799FD0020FFF796FD2046FFF70F
:1028A00093FDFFF7BEFD10BD70B505460E46FFF760
:1028B000AAFD7820FFF788FD4020FFF785FD002462
:1028C00004E0285DFFF780FD601CC4B2B442F8DB71
:1028D000FFF7A7FD70BD704708B508490968C9082A
:1028E0004FF47A72B1FBF2F14143009100BF00BF97
:1028F00000994A1E00920029F9D108BD100000205D
:10290000014600BF080900EB8000420001F00F0003
:102910001044C0B270470146002203E0521CA1F1EE
:102920000A00C1B20A29F9D2100741EA10607047C3
:102930002DE9F04706468846002700240025A146D9
:10294000F77B747BB57B00BF40E0012C0BD0032CE0
:1029500009D0052C07D0072C05D0082C03D00A2C51
:1029600001D00C2C0CD11F2D01D26D1C2CE00C2C95
:1029700002D0641C012527E0012401257F1C23E0EF
:10298000042C05D0062C03D0092C01D00B2C06D129
:102990001E2D01D26D1C17E0641C012514E0022CD1
:1029A00012D11C2D01D26D1C0EE01C2D08D1B8B225
:1029B00000F053F808B16D1C06E0641C012503E02B
:1029C0001D2D01D1641C012509F10109C145BCD3AC
:1029D000F7737473B573EAB2E1B2384600F07CF86D
:1029E0003073BDE8F08770B504460025FEF798F80F
:1029F000054607E0FEF794F8401BB0F57A7F01D951
:102A0000032070BD2068406800F020000028F1D04D
:102A10002068406840F01000216848600020F0E71E
:102A200070B5044600252068406820F01000216839
:102A30004860FEF775F8054607E0FEF771F8401BA1
:102A4000B0F57A7F01D9032070BD2068406800F09E
:102A500020000028F1D00020F6E7014601F0030035
:102A600008B1002070476420B1FBF0F200FB1210A7
:102A700008B10120F6E74FF4C870B1FBF0F200FB9B
:102A8000121008B90120EDE70020EBE70146002213
:102A900000230868006A82B20868406A83B243EA89
:102AA0000240704730B50146002200230024002078
:102AB0000D68AD69AAB20D68ED69ACB20D68AD697B
:102AC000ABB29A4205D00D68ED6963F31F45284605
:102AD00001E044EA024030BDF0B504460B46002157
:102AE000002504F5FA61032B1BD2C3EBC30000EBF6
:102AF00003100926B0FBF6F01044001D4618481ECE
:102B000006EB90066427B0FBF7F0361A481EBF00AC
:102B1000B0FBF7F030440726B0FBF6F706FB1705CD
:102B20001AE0C3EBC30000EB03100926B0FBF6F07C
:102B30001044001D084400EB91006426B1FBF6F63A
:102B4000801B4FF4C876B1FBF6F63044801E072692
:102B5000B0FBF6F706FB1705E8B2F0BD70B504460A
:102B60000D4600262046FFF73EFF08B101260AE089
:102B7000280C21680862A8B2216848622046FFF745
:102B80004FFF00B10126304670BD70B504460D46BA
:102B900000262046FFF727FF08B101260AE0280C8F
:102BA00021688861A8B22168C8612046FFF738FF14
:102BB00000B10126304670BD704710B5FFF79CFB91
:102BC000FFF736FE10BD10B500F0DAF810231A46F4
:102BD00030211120FFF790FCFFF72AFE10BD000006
:102BE00010B508210020FFF7D7F998B11A4880786E
:102BF000401E1949887000221848FEF707FE00F0B1
:102C0000BFF810231A4630211120FFF775FCFFF79B
:102C10000FFE20E008210120FFF7BEF998B10E4811
:102C20008078401C0C49887000220C48FEF7EEFDAD
:102C300000F0A6F810231A4630211120FFF75CFCA3
:102C4000FFF7F6FD07E008210220FFF7A5F910B114
:102C500006200349087010BD350000204800002000
:102C60000100002010B5FFF747FBFFF7E1FD10BDA5
:102C700010B500F085F810231A4600210846FFF72A
:102C80003BFCFFF7D5FD10BD10B500F079F8082129
:102C90000020FFF781F958B137480078401E3649C7
:102CA000087008460078002834DC0520087031E000
:102CB00008210120FFF770F958B12F480078401C17
:102CC0002D49087008460078052823DB012008708C
:102CD00020E008210220FFF75FF9D8B126480078EC
:102CE000012806D0022808D003280AD0042810D1D1
:102CF0000BE00220214908700BE007201F490870F3
:102D000007E008201D49087003E009201B490870EE
:102D100000BF00BF18480078012806D002280DD057
:102D2000032814D0042824D11AE010231A460021C5
:102D30000846FFF7E1FBFFF77BFD1AE010231A4678
:102D400019460020FFF7D8FBFFF772FD11E01023B2
:102D50001A4621210020FFF7CFFBFFF769FD08E0AD
:102D600010231A4630210020FFF7C6FBFFF760FD55
:102D700000BF00BF10BD000039000020010000208E
:102D800008B500221B491C48FEF714FC1B482023F1
:102D90001022002100900846FFF79CFC18A2102189
:102DA0000020FFF74BFC17A220210020FFF746FC74
:102DB00015A230210020FFF741FC0E48C07813A374
:102DC0000822102100901120FFF77DFB0948407870
:102DD00010A30822202100901120FFF774FB054862
:102DE00080780CA30822302100901120FFF76BFBA4
:102DF00008BD000035000020480000200E5F0008DC
:102E0000E5B9B400E69C8800E697A500323025308D
:102E100032640000253032640000000010B5FFF776
:102E20006BFAFFF705FD10BD10B500F077F9102320
:102E30001A4611211220FFF75FFBFFF7F9FC10BDC6
:102E400010B508210020FFF7A7F8A8B11C480078AA
:102E5000401E1B4908700020887000221948FEF7A8
:102E600051FD00F05BF910231A4611211220FFF7E3
:102E700043FBFFF7DDFC22E008210120FFF78CF87F
:102E8000A8B10F480078401C0D49087000208870D8
:102E900000220C48FEF736FD00F040F910231A46D8
:102EA00011211220FFF728FBFFF7C2FC07E00821E1
:102EB0000220FFF771F810B103200349087010BD1C
:102EC00031000020480000200100002010B5FFF76D
:102ED00013FAFFF7ADFC10BD10B500F01FF9102379
:102EE0001A4621211220FFF707FBFFF7A1FC10BDB6
:102EF00010B508210020FFF74FF8A8B11C48407812
:102F0000401E1B4948700020887000221948FEF7B7
:102F1000F9FC00F003F910231A4621211220FFF7D3
:102F2000EBFAFFF785FC22E008210120FFF734F8D7
:102F3000A8B10F484078401C0D49487000208870A7
:102F400000220C48FEF7DEFC00F0E8F810231A46D9
:102F500021211220FFF7D0FAFFF76AFC07E00821D1
:102F60000220FFF719F810B103200349087010BDC3
:102F700031000020480000200100002010B5FFF7BC
:102F8000BBF9FFF755FC10BD10B5FFF7F9FE102394
:102F90001A4620211120FFF7AFFAFFF749FC10BDB8
:102FA00010B508210020FEF7F7FF98B11A484078C5
:102FB000401E1949487000221848FEF727FCFFF709
:102FC000DFFE10231A4620211120FFF795FAFFF7A4
:102FD0002FFC20E008210120FEF7DEFF98B10E480B
:102FE0004078401C0C49487000220C48FEF70EFC4B
:102FF000FFF7C6FE10231A4620211120FFF77CFAA6
:10300000FFF716FC07E008210220FEF7C5FF10B10C
:1030100006200349087010BD35000020480000203C
:103020000100002010B5FFF767F9FFF701FC10BDA4
:1030300010B500F073F810231A4600210846FFF778
:103040005BFAFFF7F5FB10BD10B500F067F808213B
:103050000020FEF7A1FF58B12E480078401E2D49F0
:1030600008700846007800282EDC042008702BE049
:1030700008210120FEF790FF58B126480078401C37
:10308000244908700846007804281DDB01200870D8
:103090001AE008210220FEF77FFFA8B11D48007842
:1030A000012804D0022806D003280CD107E0022012
:1030B0001949087007E004201749087003E005204B
:1030C0001549087000BF00BF12480078012804D0DD
:1030D00002280BD003281BD111E010231A4600212F
:1030E0000846FFF709FAFFF7A3FB11E010231A4681
:1030F00011210020FFF700FAFFF79AFB08E01023E8
:103100001A4621210020FFF7F7F9FFF791FB00BFD6
:1031100000BF10BD340000200100002008B50022CF
:1031200014491548FEF76FFA144820231022002195
:1031300000900846FFF7CEFA11A211210020FFF7F8
:103140007DFA10A221210020FFF778FA09480078C3
:103150000DA30822112100901220FFF7B4F90548B1
:10316000407809A30822212100901220FFF7ABF933
:1031700008BD000031000020480000200E5F00085C
:10318000E697B600E588860025303264000000002E
:1031900010B5FFF7B1F8FFF74BFB10BD10B5FFF707
:1031A000EFFD1023202219461120FFF7A5F9FFF7A4
:1031B0003FFB10BD10B508210020FEF7EDFE98B1D1
:1031C0001A48C078401E1949C87000221848FEF7F6
:1031D0001DFBFFF7D5FD1023202219461120FFF714
:1031E0008BF9FFF725FB20E008210120FEF7D4FE34
:1031F00098B10E48C078401C0C49C87000220C4899
:10320000FEF704FBFFF7BCFD102320221946112016
:10321000FFF772F9FFF70CFB07E008210220FEF729
:10322000BBFE10B106200349087010BD3500002018
:10323000480000200100002010B5FFF75DF8FFF7FF
:10324000F7FA10BD10B500F073F810231A460021EC
:103250000846FFF751F9FFF7EBFA10BD10B500F083
:1032600067F808210020FEF797FE58B12E48007835
:10327000401E2D4908700846007800282EDC0320E7
:1032800008702BE008210120FEF786FE58B1264881
:103290000078401C244908700846007804281DDB8B
:1032A000012008701AE008210220FEF775FEA8B17F
:1032B0001D480078012802D11C4908700EE01A4808
:1032C0000078022803D103201849087006E0164848
:1032D0000078032802D106201449087012480078AB
:1032E000012804D002280BD003281BD111E01023A1
:1032F0001A4600210846FFF7FFF8FFF799FA11E098
:103300001023202211210220FFF7F6F8FFF790FA90
:1033100008E01023202221210020FFF7EDF8FFF71D
:1033200087FA00BF00BF10BD300000200100002060
:1033300008B5094810231A46002100900846FFF7F7
:10334000C9F906A211210220FFF778F905A221216F
:103350000020FFF773F908BD0E5F0008E697B6E995
:1033600097B40000E697A5E69C9F000010B5FEF715
:10337000C3FF0020024908800249088010BD0000F8
:10338000440000204200002010B500F05DF8FFF777
:103390004FFA10BD10B508210020FEF7FDFD58B111
:1033A00012480078012803D100201049087018E065
:1033B00001200E49087014E008210120FEF7ECFD01
:1033C00038B1002009490870094908800949088076
:1033D00007E008210220FEF7DFFD10B10A200649B0
:1033E000087000F031F8FFF723FA10BD4600002006
:1033F0004200002044000020010000200F48007817
:10340000012819D10E480088401C0D490880084643
:103410000088B0F57A7F0FDB00200880094800881B
:10342000401C08490880084600883C2804DB00202E
:1034300003490880034908807047000046000020C7
:1034400044000020420000201CB5064800880649C0
:10345000098806A30C22CDE9001014211C20FFF7D7
:1034600032F81CBD440000204200002025303264A8
:103470003A2530336400000010B5FDF757FB10BD4E
:1034800000B593B0282109A8FCF763FE142104A815
:10349000FCF75FFE00200090019002900390052051
:1034A00009904FF480300A9000200B9001200C907E
:1034B0000D9002201090C10311914FF4E011129170
:1034C00009A8FDF745FE08B1FDF7EFF80F200490BD
:1034D00002200590002006904FF4806007900020A5
:1034E0000890022104A8FDF70FFD08B1FDF7DDF8F3
:1034F00001200090000201906846FDF76DFC08B1C4
:10350000FDF7D3F813B000BD7047000010B50248B6
:10351000FEF7FBFB10BD00005C00002010B5026848
:103520001C4B984208D0B0F1804F05D01A4B9842FE
:1035300002D01A4B984203D122F070024B681A4312
:10354000144B984208D0B0F1804F05D0124B9842EE
:1035500002D0124B984203D122F44072CB681A4336
:1035600022F080034C6943EA040202608B68C36264
:103570000B688362074B984201D10B6903630123F7
:103580004361036903F001031BB1036923F00103E5
:10359000036110BD002C0140000400400008004001
:1035A00030B50C46816821F47F4142EA032525436A
:1035B0002943816030BD0A46816821F0700142F0E4
:1035C000070319438160704730B50B461446026A01
:1035D000056A25F001050562816921F0F00141EAE3
:1035E000041122F00A021A438161026230BD30B533
:1035F0000B461446026A056A25F0100505628169CA
:1036000021F4704141EA043122F0A00242EA03129F
:103610008161026230BD000010B50020954908703C
:1036200016E095489349097830F8110000280ADD22
:1036300091489049097830F81100401E8E498D4A12
:10364000127821F812008B480078401C89490870D4
:10365000884800780328E4DB88480078401C8749C4
:10366000087008460078142875DB0020087081492E
:103670000870F9E082487F490978405C81497D4AB9
:10368000127888547B480078FEF798FC7C49794A88
:1036900012788854084677490978405C50B97A48CE
:1036A00074490978405C40F001017748714A12780A
:1036B000815409E074486F490978405C20F00101A9
:1036C00071486C4A127881546D486A490978405CA7
:1036D00078B96C4867490978405C012809D16A4883
:1036E00064490978405C40F002006749614A1278F9
:1036F000885463485F490978405C01280ED16148CD
:103700005C490978405C48B95F485A490978405C8F
:1037100040F004005C49574A127888545B48554988
:103720000978405C052815D2DFE800F003163A65F9
:10373000710053484F490978405C58B901205349FA
:103740004C4A127888544FF47A714B48494A12789F
:1037500020F8121082E08CE0494846490978405C24
:1037600001280BD102214948424A12788154C821CC
:103770004148404A127820F8121010E03E483D4976
:10378000097830F8110050B904214048394A1278BC
:10379000815464213848374A127820F812105DE0CD
:1037A000374834490978405C78B937483149097855
:1037B000405C40F0100134482E4A127881540320B6
:1037C00032492C4A1278885414E02B482949097848
:1037D00030F8110070B92C4826490978405C40F057
:1037E00008012948234A1278815400202749214A98
:1037F0001278885432E022481E490978405C01283A
:1038000004D1002021491B4A1278885426E01C4824
:1038100018490978405C01280FD11B4815490978DF
:10382000405C40F020001849124A12788854002168
:103830001648104A127881540FE00F480D49097854
:1038400030F8110048B910480A490978405C40F046
:1038500040000D49074A1278885400BF00BF054850
:103860000078401C03490870024800780328FFF6DE
:1038700001AF10BD200000202A0000201F00002002
:1038800021000020240000201C0000202700002030
:103890000EB5002218491948FDF7B5FE0022184957
:1038A0001648FDF787FE1648807815494978144A6E
:1038B000D27814A3CDE90021029008220021132020
:1038C000FEF701FE0C4880780B4949780A4A1278C5
:1038D00010A3CDE9002102900C2210210846FEF72A
:1038E000F2FD10A230215F20FEF7A8FE0FA23021CA
:1038F0000020FEF7A3FE0EBD1400002048000020AB
:1039000017000020323025642D253032642D2530FB
:1039100032640000253032643A253032643A253072
:1039200032640000E8AEBEE7BDAE0000E88F9CE563
:103930008D95000010B5FEF7DFFCFEF779FF10BD96
:1039400010B5FFF7A5FF3F23202230210020FEF70E
:10395000D3FDFEF76DFF10BD10B5FFF799FF0821ED
:103960000020FEF719FB58B123480078401E224979
:10397000087008460078002823DC0220087020E048
:1039800008210120FEF708FB58B11B480078401CB5
:103990001949087008460078032812DB01200870D6
:1039A0000FE008210220FEF7F7FA50B11248007824
:1039B000012803D10A201149087002E002200F49B2
:1039C00008700D480078012802D0022812D108E0C2
:1039D0003F23202230210020FEF78EFDFEF728FF36
:1039E00008E03F237F2230215F20FEF785FDFEF7B0
:1039F0001FFF00BF00BF10BD1B0000200100002002
:103A000070B504462168096921F44051E268114308
:103A1000226811612269A1681143626941EA0205C5
:103A20002168C96841F20C62914329432268D16040
:103A30002168496921F44071A269114322685161EA
:103A40002D4A2168914202D1FDF73AFB01E0FDF7D2
:103A500027FB00EBC00101EB001162689200B1FB93
:103A6000F2F100EBC00202EB001263689B00B2FBB4
:103A7000F3F26423B2FBF3F202EBC20303EB021294
:103A8000A1EB8201322202EB01116422B1FBF2F1BF
:103A900001F0F00100EBC00202EB001263689B0032
:103AA000B2FBF3F26423B2FBF3F201EB021200EB80
:103AB000C00101EB001163689B00B1FBF3F100EB67
:103AC000C00303EB00136668B600B3FBF6F364268D
:103AD000B3FBF6F303EBC30606EB0313A1EB830181
:103AE000322303EB01116423B1FBF3F101F00F0169
:103AF00011442268916070BD0038014000BFFEE7AC
:103B000037B514460846064B6A46214600F0F8F8D9
:103B100004466946002000F08AFC20463EBD0000B5
:103B20002F44000802480068C0F3022070470000DC
:103B30000CED00E010B5002804DB0A07130E054A5F
:103B4000135406E00A07140E034A00F00F031B1F6C
:103B5000D45410BD00E400E018ED00E002E008C815
:103B6000121F08C1002AFAD170477047002001E0F7
:103B700001C1121F002AFBD1704700002DE9FF5F31
:103B800082B00021DDE90430020DDDF840B00343CE
:103B900018D044F61050A2F2FF3242431514119887
:103BA00001281FD0A5EB0B00401C5FEA000A4FF074
:103BB00000064E4FDFF83891B046504615D5CAF191
:103BC000000413E0119801244AA3012801D16FEAEF
:103BD0000B010298119AC0E90031C0E9024206B017
:103BE000BDE8F09FCBF10000DFE704460021404A2A
:103BF000491842EB0450CDE9001012E0E00707D06D
:103C000032463B4640464946FCF763FB80468946C0
:103C100032463B4610461946FCF75BFB06460F460C
:103C20006410002CEAD1DDE90401DDE90023BAF1DA
:103C3000000F06DAFCF74DFB42464B46FCF749FB0A
:103C400005E0FCF7B8FB42464B46FCF7B4FB0446E4
:103C50000E460022284BFCF71DFC03D84FF0FF3026
:103C6000014607E00022254B20463146FCF78AFA40
:103C7000FCF7EDFC102409E0002C0ADB0A220023EB
:103C8000FCF736FC039B30321A55641E50EA0102E1
:103C9000F2D1641C039AC4F111031444119A012A4D
:103CA00003D0012208430DD10AE0084304D00020CC
:103CB0004FF0110B119072E7A3EB0B056D1E0DE099
:103CC0005B4504DD4FF0000205F1010504E003DA75
:103CD0004FF00002A5F10105002AECD002981199DD
:103CE000C0E90231C0E9004579E700000000144056
:103CF0000000F03F300000000000F0430000E03F13
:103D00002DE9FF4F95B09B468946064600250FE2F8
:103D1000252877D100242746F84A0121059400E0A0
:103D2000044316F8013F203B01FA03F01042F7D19B
:103D300030782A2811D06FF02F033078A0F13002AC
:103D4000092A16D8059A44F0020402EB820203EB1A
:103D500042021044761C0590EFE759F8042B0592B7
:103D6000002A03DA504244F40054059044F002045F
:103D7000761C30782E2816D116F8010F44F0040472
:103D80002A280DD06FF02F023078A0F13003092BD4
:103D900009D807EB870302EB4303C718761CF3E748
:103DA00059F8047B761C30786C280FD006DC4C2840
:103DB00017D068280DD06A2814D104E0742810D0D8
:103DC0007A280FD10DE044F400140AE044F4801482
:103DD00001E044F440147278824202D104F5801468
:103DE000761C761C307866280BD013DC582877D0E8
:103DF00009DC002875D04528F6D04628F4D047289D
:103E00001AD19DE118E0632835D0642879D065285F
:103E100012D195E1702873D008DC6728F1D06928A9
:103E20006FD06E280DD06F2806D1B5E073282CD046
:103E3000752875D0782874D05A46179990476D1C0C
:103E400075E1C4F30250022809D003280DD0D9F837
:103E5000001004280DD00D6009F1040967E1D9F8BC
:103E60000010EA17C1E90052F6E7D9F800100D80FA
:103E7000F2E70D70F0E719F8041B8DF80010002030
:103E80008DF80100EA46012003E059F804AB4FF039
:103E9000FF3061074FF0000102D40DE008F101018D
:103EA0008846B9420FDA8045F8DB1AF80810002975
:103EB000F4D108E008F1010188468142FADB1AF8E2
:103EC00008100029F6D105985B46A0EB08072146AB
:103ED0003846179A00F094FA284400EB080507E0EA
:103EE0004DE029E10DE01AF8010B5A461799904769
:103EF000B8F10108F7D25B4621463846179A13E11C
:103F000042E00A220092C4F302524FF0000A022A51
:103F100008D059F804CB032A4FEAEC710AD00DE01F
:103F200029E02AE009F1070121F00702F2E802C1C5
:103F3000914609E00FFA8CFC4FEAEC71042A03D198
:103F40004FFA8CFC4FEAEC71002907DA0A4600218F
:103F5000DCF1000C61EB02012D2202E0220504D508
:103F60002B228DF80420012203E0E20701D0202259
:103F7000F7E7904659E00A2102E010220DE01021F7
:103F80004FF0000A00910BE010224FF0000A44F0BD
:103F900004040827009203E008224FF0000A009270
:103FA000C4F30252022A05D059F804CB0021032A97
:103FB00008D009E009F1070121F00702F2E802C187
:103FC000914605E01FFA8CFC042A01D10CF0FF0C8D
:103FD0004FF00008220728D5702806D0009B83F0F8
:103FE000100353EA0A0305D00EE040228DF80420A6
:103FF000012208E05CEA010206D030228DF804209C
:104000008DF8050002229046009B83F0080353EAD6
:104010000A030AD15CEA010201D1620705D5302208
:104020008DF804204FF001087F1E582804D034A0DA
:1040300003900EA802900DE036A0F9E753466046C3
:10404000009AFCF755FA84460398825C0298401E59
:10405000029002705CEA0100F0D1029806A9081AE9
:1040600000F1200A600702D524F4803400E0012723
:10407000574502DDA7EB0A0000E0002000EB0A0133
:10408000009005984144401A0590E00306D45B4631
:104090002146179A059800F0B3F90544002706E079
:1040A00001A85A46C05D179990476D1C7F1C474573
:1040B000F6DBE0030CD55B462146179A059800F025
:1040C0009FF9054404E030205A46179990476D1C2B
:1040D0000099481E00900029F5DC08E0029802993A
:1040E0005A460078491C0291179990476D1CBAF105
:1040F0000001AAF1010AF1DC65E1000009280100D4
:10410000303132333435363738396162636465664D
:10411000000000003031323334353637383941420F
:10412000434445460000000000F058F90544761C61
:10413000307800287FF4ECAD19B02846BDE8F08F48
:10414000620700D4062709F1070222F0070CFCE8F9
:104150000223E14603F000485FEA080C02D00FF2A8
:10416000702C0DE05FEA045C02D50FF2682C07E0CA
:104170005FEAC47C02D00FF2602C01E0AFF2700C59
:104180004FF0FF3823F00043CDF850C065280CD025
:1041900006DC452809D046281DD047283DD13DE002
:1041A000662818D067287ED138E00021112F01DB66
:1041B000112000E0781CCDE9000106A90EA8FFF748
:1041C000DDFCDDE90F010E9A03910021009207F159
:1041D000010A04914DE04FF000400097CDE9011035
:1041E00006A90EA8FFF7CAFCDDE90F0203920E9B99
:1041F00011990022DDF80CA00093049211B9791CEA
:1042000000EB010AB7EB0A0004D4C0F1FF3007F15C
:10421000010A0490AAEB0700019044E0012F00DAA4
:1042200001270021112F01DD112000E03846CDE9E2
:10423000000106A90EA8FFF7A1FCDDE90F010E9A07
:104240000391002104910092BA4621070CD40399EE
:10425000514500DA8A46BAF1010F05DD009AAAF14C
:104260000101515C302908D0B84202DA10F1040F84
:1042700006DA0121CDE9011015E0AAF10101E9E713
:10428000002805DC049901440491AAEB000102E036
:10429000411C514500DD8A460499401A401C01909A
:1042A0004FF000400290200704D40198504501DBF4
:1042B000CDF8048000208DF84F0002980DF14F07D3
:1042C000B0F1004F25D02B200E9002984FF002083D
:1042D00000280CDA404202902D200E9007E00A21BF
:1042E0000298FCF7EFF83031029007F8011DB8F1A1
:1042F0000001A8F10108F2DC02980028EFD1791E34
:104300000E980870307800F0200040F0450007F863
:10431000020D12A8C01B00F107081498007800B124
:10432000012000EB0A01019801EBE071059841447E
:10433000401A401E0590E00306D45B462146179ABA
:10434000059800F05DF805441498007818B15A46B5
:10435000179990476D1CE00324D55B462146179AB8
:10436000059800F04DF805441CE00498002807DB90
:10437000DDE90301884203DD0098405C179901E004
:10438000179930205A469047049805F10105401CC2
:1043900004900198401E019004D12E205A4617998E
:1043A00090476D1CBAF10001AAF1010ADDDC05E0BD
:1043B00017F8010B5A46179990476D1CB8F1000188
:1043C000A8F10108F4DC5B462146179A0598ABE694
:1043D0002D0000002B000000200000002DE9F0411E
:1043E000044600251E461746880404D405E03946D5
:1043F0002020B0476D1C641EF9D52846BDE8F08129
:104400002DE9F041044600251E469046C80301D51B
:10441000302700E02027880404D505E041463846CF
:10442000B0476D1C641EF9D52846BDE8F0810A68C6
:10443000531C0B6010707047FCF784FBFFF720F8EB
:10444000FDF754FEFDF738FFFDF7C4FEFDF7FEFE55
:10445000FDF7F2FF0D48FDF795FB16E00C480078DC
:104460000C490978884204D109480078FCF753F9CF
:104470000BE007480078FCF71BF906480078FCF7CA
:104480007DF90448007802490870E7E75C000020E5
:10449000000000200100002010B5FDF72DFFFEF701
:1044A000C7F910BD10B500F067F8FEF7C1F910BDEF
:1044B00010B508210020FDF76FFD98B12A4800785B
:1044C000401E40B228490870012028490870284938
:1044D0000870254890F9000000283EDA03202249A0
:1044E00008703AE008210120FDF756FDA0B11E48F2
:1044F0000078401C40B21C49087002201B4908701B
:1045000001201B490870184890F90000032824DD99
:1045100000201549087020E008210220FDF73CFD2D
:10452000D8B1114890F9000030B1012808D0022814
:104530000AD0032810D10BE001200E4908700BE0CF
:104540000B200C49087007E00C200A49087003E0B2
:104550000D200849087000BF00BF054800780128F9
:1045600001D100F083F810BD400000203C00002085
:104570003D0000200100002008B5FDF7BDFE3748D2
:104580002C231A460A2100902A20FEF7A3F834486B
:1045900090F90000012826DB314890F9000002283C
:1045A00010DB2F4890F90000801E2E4901EBC0104F
:1045B0002D49009009786039C8B220231A4610218D
:1045C000FEF788F8264890F90000401E254901EBC7
:1045D000C0102549009009783039C8B220231A4606
:1045E0001021FEF777F81F481D4991F9001000EBE4
:1045F000C11020231A46102100901B480078FEF7B6
:1046000069F8174890F90000022826DC144890F950
:104610000000012810DC1349114890F90000801CAB
:1046200001EBC0101049009009786031C8B2202316
:104630001A461021FEF74EF80A49094890F9000081
:10464000401C01EBC0100849009009783031C8B215
:1046500020231A461021FEF73DF808BDAE61000880
:104660003A0000202E5F00083E00002010B52C48C4
:104670000078012826D12B4890F90000002809DC99
:104680000320284908700020274908703020274956
:1046900008703FE0254800782549097808442349F7
:1046A000087008460078602834D100201E49087040
:1046B0001C480078401E40B21A49087030201B493F
:1046C000087027E016480078022823D1154890F991
:1046D0000000032808DB0020124908701249087006
:1046E00030201249087015E0104800781049097808
:1046F000401A0E4908700846007858B900200A4947
:10470000087008480078401C40B206490870302004
:1047100006490870FFF730FFFEF78AF810BD000069
:104720003C0000203A0000203D0000203E00002018
:104730003F00002002030405060708090A0B0C0DC0
:104740000E0F1010010202030405060708090A0BE8
:104750000C0D0E0F10100102000000000000000000
:104760000102030406070809000000000102030417
:104770000000000000000000000000000000000039
:10478000000000F8000000000000003330000000CE
:1047900000160E00160E00000000000000000000D1
:1047A00040C07840C0784000043F04043F04040047
:1047B000007088FC08300000001820FF211E000057
:1047C000F008F000E018000000211C031E211E006C
:1047D00000F00888700000001E21232419272110F2
:1047E000000000160E0000000000000000000000A5
:1047F000000000E01804020000000007182040003C
:1048000000020418E000000000402018070000002B
:10481000404080F0804040000202010F010202008F
:10482000000000F0000000000101011F0101010073
:10483000000000000000000000B070000000000058
:104840000000000000000000000101010101010161
:1048500000000000000000000030300000000000F8
:1048600000000000806018040060180601000000CD
:1048700000E010080810E000000F102020100F00CA
:10488000001010F8000000000020203F2020000051
:1048900000700808088870000030282422213000A9
:1048A00000300888884830000018202020110E00B1
:1048B0000000C02010F8000000070424243F24005A
:1048C00000F80888880808000019212020110E002F
:1048D00000E0108888180000000F112020110E0041
:1048E00000380808C83808000000003F0000000039
:1048F0000070880808887000001C222121221C00FA
:1049000000E010080810E0000000312222110F0022
:10491000000000C0C00000000000003030000000B7
:10492000000000C0C0000000000080B07000000067
:104930000000804020100800000102040810200040
:10494000404040404040400004040404040404008B
:104950000008102040800000002010080402010020
:10496000007048080808F000000000303601000020
:10497000C030C828E810E0000718272423140B00D3
:104980000000C038E0000000203C2302022738204D
:1049900008F8888888700000203F202020110E0031
:1049A000C030080808083800071820202010080028
:1049B00008F808080810E000203F202020100F0011
:1049C00008F88888E8081000203F202023201800DD
:1049D00008F88888E8081000203F20000300000045
:1049E000C03008080838000007182020221E0200E6
:1049F00008F808000008F808203F210101213F20A5
:104A0000000808F8080800000020203F20200000CF
:104A100000000808F8080800C08080807F000000BF
:104A200008F888C028180800203F200126382000F8
:104A300008F8080000000000203F2020202030005F
:104A400008F8F800F8F80800203F003F003F200079
:104A500008F830C00008F808203F200007183F0081
:104A6000E01008080810E0000F10202020100F00B0
:104A700008F808080808F000203F210101010000A3
:104A8000E01008080810E0000F18242438504F00E8
:104A900008F8888888887000203F2000030C3020A8
:104AA00000708808080838000038202121221C00E6
:104AB000180808F8080818000000203F200000002F
:104AC00008F808000008F808001F202020201F0018
:104AD0000878880000C83808000007380E01000078
:104AE000F80800F80008F800033C0700073C030042
:104AF000081868808068180820302C03032C3020A8
:104B00000838C800C83808000000203F2000000016
:104B100010080808C838080020382621202018006E
:104B2000000000FE020202000000007F4040400042
:104B3000000C30C000000000000000010638C0007A
:104B400000020202FE000000004040407F00000022
:104B500000201008040810200000000000000000E1
:104B60000000000000000000808080808080808045
:104B70000002040800000000000000000000000027
:104B800000008080808000000019242222223F2023
:104B900008F8008080000000003F112020110E0066
:104BA0000000008080800000000E112020201100F5
:104BB000000000808088F800000E112020103F20A7
:104BC0000000808080800000001F2222222213002B
:104BD000008080F0888888180020203F2020000076
:104BE0000000808080808000006B9494949360002B
:104BF00008F8008080800000203F210000203F2036
:104C000000809898000000000020203F2020000035
:104C1000000000809898000000C08080807F000025
:104C200008F8000080808000203F24022D30200002
:104C3000000808F8000000000020203F20200000AD
:104C40008080808080808000203F20003F20003FC7
:104C5000008080008080000000203F2100203F2055
:104C60000000808080800000001F202020201F0086
:104C7000808000808000000080FFA12020110E00B5
:104C80000000008080808000000E112020A0FF80A6
:104C9000808080008080800020203F212000010053
:104CA00000008080808080000033242424241900A8
:104CB000008080E0808000000000001F20200000B5
:104CC0008080000000808000001F202020103F20F6
:104CD000808080000080808000010E300806010086
:104CE00080800080008080800F300C030C300F002B
:104CF00000808000808080000020312E0E31200056
:104D0000808080000080808080818E701806010085
:104D100000808080808080000021302C22213000A3
:104D200000000000807C020200000000003F4040C4
:104D300000000000FF00000000000000FF00000075
:104D40000002027C800000000040403F00000000A4
:104D50000080404080000080000000000001010051
:104D60000000000000000000002F0000000007000D
:104D7000070000147F147F1400242A7F2A120023C6
:104D800013086462003649552250000000070000F5
:104D900000001C224100000041221C000014083EBB
:104DA00008140008083E0808000000A06000000881
:104DB00008080808000060600000002010080402D5
:104DC000003E5149453E0000427F40000042615193
:104DD0004946002141454B31001814127F1000272D
:104DE00045454539003C4A494930000171090503F0
:104DF00000364949493600064949291E0000363621
:104E00000000000056360000000814224100001483
:104E10001414141400004122140800020151090660
:104E2000003E4955592E007C1211127C007F4949E1
:104E30004936003E41414122007F4141221C007F12
:104E400049494941007F09090901003E4149497A20
:104E5000007F0808087F0000417F4100002040419A
:104E60003F01007F08142241007F40404040007F06
:104E7000020C027F007F0408107F003E4141413E4A
:104E8000007F09090906003E4151215E007F091992
:104E900029460046494949310001017F0101003F8F
:104EA0004040403F001F2040201F003F4038403F0F
:104EB0000063140814630007087008070061514973
:104EC000454300007F41410000020408102000001B
:104ED00041417F0000040201020400404040404084
:104EE000000001020400002054545478007F48441C
:104EF000443800384444442000384444487F003853
:104F00005454541800087E0901020018A4A4A47C7B
:104F1000007F080404780000447D40000040808445
:104F20007D00007F102844000000417F4000007C8D
:104F300004180478007C0804047800384444443899
:104F400000FC242424180018242418FC007C0804E5
:104F5000040800485454542000043F444020003CBE
:104F60004040207C001C2040201C003C4030403C45
:104F7000004428102844001CA0A0A07C00446454D5
:104F80004C440000087F41000000007F000000004A
:104F9000417F08000008040810080000000000001D
:104FA0000000000000000000000000000000000001
:104FB00000000000000000000000000000000000F1
:104FC000000000F0F000000000000000000000778A
:104FD0000F000000000000000000001C1C0000008A
:104FE000000000008060301C8C60301C0C00000051
:104FF00000000000000000000000000000000000B1
:1050000000000000000000000000F000000000F0C0
:105010000000008383FF83838383FB878300000179
:105020001F01010101011F010100000080C060207B
:10503000F820E0C00000000003070C18FF71E181B8
:1050400000000000070F12107F100F070000C03093
:105050001030C00000C03000000007181018CF3812
:10506000C6311030C00000001807000007181018E3
:1050700007000000E0F010F0E00000000000C0E0D9
:10508000173FF8C70308F8080800070F1810101397
:105090000F0E1910100C00008C4C3800000000009E
:1050A0000000000000000000000000000000000000
:1050B00000000000000000000000000000000000F0
:1050C0008060100804000000000000FE01000000E5
:1050D0000000000000000000030C1020400000044D
:1050E00008106080000000000000000000000001C7
:1050F000FE0000000000004020100C030000000033
:105100000000000000000000C080000000000066F9
:1051100066243810FF183C2466660000000000007A
:1051200003000000000000000000000080000000FC
:105130000000001010101010FF10101010100000D0
:10514000000000000300000000000000000000005C
:10515000000000000000000000000000000000004F
:10516000000000008C4C380000000000000000002F
:1051700000000000000000000000001010101010DF
:1051800010101010100000000000000000000000CF
:10519000000000000000000000000000000000000F
:1051A0000000000000000000000000001C1C1C00AB
:1051B0000000000000000000000000000000E038D7
:1051C0000C000000000080701C0300000000006064
:1051D000380E0100000000000000000080C06020C8
:1051E0002060C080000000FEFF010000000001FF01
:1051F000FE000001070E181010180E070100000035
:10520000404040C0E000000000000000000000FF3F
:10521000FF000000000000001010101F1F101010F1
:1052200000000080402020202060C080000000039B
:10523000030000C060301F07000000181C1211108E
:105240001010101E000000C0C020202060C0800090
:105250000000000101001010182FE7800000000E70
:105260000E10101010180F070000000000000000C2
:1052700080E0E000000000C0A098848380FFFF80F1
:105280008080000000000010101F1F1010000000A0
:10529000E020202020202020000000003F100808EF
:1052A0000818F0E0000000070B101010101C0F038E
:1052B0000000000080C040202020E0C0000000FC72
:1052C000FF211008080818F0E0000001070C181072
:1052D0001010080F03000000C0602020202020E0F4
:1052E0006000000001000000E0180700000000005E
:1052F0000000001F1F00000000000080C060202090
:10530000202060C080000083CF6C1810303068CF40
:10531000830000070F0810101010180F070000007E
:10532000C0C020202020C0800000001F3F604040FF
:10533000402010FFFE0000000C1C101010080F038E
:10534000000000000000000000000000000000005D
:105350000000001C1C1C0000000000000000001CDD
:105360001C1C000000000000000000000000000005
:10537000000000000000000C0C0000000000000015
:10538000000000D83800000000000000000000000D
:10539000008040201000000010284482010000001E
:1053A00000000000000000000102040810000000DE
:1053B0000000000000000000000000444444444499
:1053C0004444444444000000000000000000000089
:1053D00000000000102040800000000000000000DD
:1053E00000000000018244281000000010080402A0
:1053F00001000000000000008040402020202060CC
:10540000C080000007060000E01018080F07000029
:105410000000001C1C1C000000000000C0E0201068
:105420009090A060800000FEFF00F8FF03FC078062
:105430007F000000070E18111111090C0200000076
:1054400000008060E000000000000000807847401D
:10545000415FF0800000101C131000000000111FBD
:1054600018100020E0E020202060C0C000000000F4
:10547000FFFF101010182FE7800000101F1F1010E2
:105480001010180F0700000080C04020202060E0AE
:10549000800000FCFF01000000000000030000018C
:1054A000070E18101010080C03002020E0E0202048
:1054B0002040C08000000000FFFF0000000001FF4E
:1054C000FE0010101F1F101010080E07010020E032
:1054D000E020202020206060800000FFFF101010DE
:1054E00010FC00000100101F1F10101010101018E9
:1054F000060020E0E020202020206060800000FFE7
:10550000FF10101010FC00000100101F1F101000F1
:10551000000000000000000080C0602020204080CB
:10552000000000FCFF0100004040C0C340400001FB
:10553000070E181010100F0F000020E0E0200000F0
:10554000000020E0E02000FFFF101010101010FFFE
:10555000FF00101F1F1000000000101F1F10000090
:10556000202020E0E020202000000000000000FFBC
:10557000FF000000000000001010101F1F1010108E
:105580000000000000202020E0E02020200000009B
:1055900000000000FFFF000000000060E08080C00D
:1055A0007F3F0000000020E0E0200000A0E060203D
:1055B000000000FFFF300C3AE18000000000101FE7
:1055C0001F10000000131E18100020E0E020200033
:1055D00000000000000000FFFF00000000000000CD
:1055E0000000101F1F10101010101018060020E0EF
:1055F000E000000000C0E0E0200000FF0FFFE080BE
:105600007C03FFFF0000101F10000F0700101F1F7A
:1056100010000020E0E08000002020E020200000BA
:10562000FF01071E78C000FF000010101F101000BF
:1056300000030F1F0000000080C060202060C080B9
:10564000000000FEFF010000000000FFFE0000015E
:10565000070E181010180C07010020E0E020202091
:10566000202040C0800000FFFF2020202030101F9D
:105670000F00101F1F1010000000000000000000AD
:1056800080C060202060C080000000FEFF0100009C
:10569000000000FFFE000001070E1911173C6C67A7
:1056A000210020E0E0202020202060C0800000FFBA
:1056B000FF10101070D0080F0700101F1F100000FF
:1056C0000001071E18100080C0602020202040E04C
:1056D000000000070F1C18383070E0E18000000760
:1056E0000C0810101010180F07008060202020E018
:1056F000E020202060800100000000FFFF0000008B
:10570000000100000010101F1F10100000000020FA
:10571000E0E02000000020E020000000FFFF00008B
:10572000000000FF00000000070F1810101008070D
:1057300000002060E02000000000A06020000000C9
:10574000077EE00080780700000000000000071ED0
:1057500003000000000020E020002060E020002086
:10576000E0200003FFC0C03C3FF0807C030000004D
:10577000001F0300001F07000000002060E0200061
:105780000020E020200000000001877CE886010066
:10579000000000101816010000131E1810002060F1
:1057A000E0200000000020A060200000010F3CF875
:1057B000E0180601000000000010101F1F1010006C
:1057C00000000080E06020202020A0E020000001F8
:1057D0000000806018060300000000101C17111064
:1057E0001010101806000000000000FC040404045F
:1057F00000000000000000FF0000000000000000AA
:105800000000007F404040400000000030C0000029
:10581000000000000000000000000718E080000009
:10582000000000000000000000030C708000000079
:1058300004040404FC00000000000000000000005C
:10584000FF00000000000000404040407F000000DA
:10585000000000000008040202040800000000002C
:105860000000000000000000000000000000000038
:105870000000000000000000000000000000000028
:105880000000000000000000000000000000808018
:1058900080808080808080808080000000040408F8
:1058A00008000000000000000000000000000000F0
:1058B00000000000000000000000000000000000E8
:1058C00000000000000000000000000098988444E0
:1058D0004444FCF80000000F1F19101010080F1F9F
:1058E00010180020E0F000000000000000000000A0
:1058F000FFFF180804040CF8F00000001F0F081048
:105900001010180F0300000000000000000000004D
:10591000000000E0F8180404043C38000000000314
:105920000F0C10101010080600000000000000000E
:105930002020E0F0000000E0F81C04040408FFFF51
:10594000000000030F18101010081F0F08000000BF
:10595000000000000000000000000000E0F8888463
:1059600084848CF8E0000000030F0C101010100865
:1059700004000000000080C0602020E0C00000049F
:105980000404FFFF040404000000000010101F1FA7
:1059900010101000000000000000000000000000D7
:1059A0000000000070F88C040CFCF40C0C0000707B
:1059B0007ECF85858DCD787800000020E0F0000056
:1059C0000000000000000000FFFF08040404FCF8D1
:1059D000000000101F1F100000101F1F100000000B
:1059E000000000606000000000000000040404FCEF
:1059F000FE000000000000001010101F1F1010100B
:105A00000000000000000000606060000000000076
:105A10000000040404FCFE0000000000C0C0808000
:105A2000C07F3F0000000020E0F000000000000008
:105A300000000000FFFF8040E01C04040000001094
:105A40001F1F100000131E1810000000202020E06F
:105A5000F000000000000000000000FFFF00000058
:105A6000000000001010101F1F1010100000000098
:105A70000000000000000000000004FCFC0804FC22
:105A8000F80804FCFC00101F1F10101F1F10101F2F
:105A90001F100000000000000000000000000004D3
:105AA000FCFC08040404FCF8000000101F1F100098
:105AB00000101F1F10000000000000000000000088
:105AC000000000E0F0180C04040C18F0E0000003E3
:105AD0000F0C101010100C0F03000000000000004D
